:020000040800F2
:1000000000040020C1010008311C0008311C000858
:10001000311C0008311C0008311C0008311C00088C
:10002000311C0008311C0008311C00084117000871
:10003000311C0008311C0008311C0008311C00086C
:10004000311C0008311C0008311C0008311C00085C
:10005000311C0008311C0008311C0008311C00084C
:10006000311C0008311C0008311C00081117000861
:10007000E1160008B11600088116000851160008A4
:1000800021160008F1150008611A0008311C00084B
:10009000311C0008311C0008311C0008311C00080C
:1000A000311C0008B1120008311C0008211300089F
:1000B000711300085113000891130008311C000847
:1000C000311C0008311C0008311C0008311C0008DC
:1000D000311C0008B1180008311C0008311C000850
:1000E000311C0008311C0008311C0008311C0008BC
:1000F000311C0008311C0008311C0008C115000823
:10010000311C0008311C000831130008311C0008A4
:10011000311C0008311C0008311C0008311C00088B
:100120009115000861150008311500080115000837
:10013000D1140008311C0008311C0008311C0008D3
:10014000311C0008311C0008311C0008311C00085B
:10015000A11400087114000841140008311C0008A3
:10016000311C0008311C0008311C0008311C00083B
:10017000311C0008311C0008311C0008311C00082B
:10018000311C0008311C0008311C0008311C00081B
:10019000311C0008311C0008311C0008311C00080B
:1001A000311C0008311C0008311C0008311C0008FB
:1001B000311C0008311C0008311C0008311C0008EB
:1001C00072B6234880F30988022080F31488BFF3B5
:1001D0006F8F03F065F903F073F84FF055301D4948
:1001E0001D4A91423CBF41F8040BFAE71B49184AEB
:1001F00091423CBF41F8040BFAE71949194A1A4BDE
:100200009A423EBF51F8040B42F8040BF8E7002075
:100210001649174A91423CBF41F8040BFAE703F034
:10022000F7F803F035F9134C134DAC4203DA54F8E8
:10023000041B8847F9E702F003FC104C104DAC4258
:1002400003DA54F8041B8847F9E703F019B90000F2
:10025000000800200000002000040020000400200E
:10026000F04C000800080020340800203808002066
:10027000A00F0020C0010008C0010008C001000854
:10028000C0010008000000000000000000000000A5
:100290002DE9F04FC1F80CD0C3689D46BDE8F08F42
:1002A000002383F311882846A047002003F068F854
:1002B00003F08EF800DFFEE7000000000000000001
:1002C00081F0004102E000BF83F0004330B54FEA07
:1002D00041044FEA430594EA050F08BF90EA020F74
:1002E0001FBF54EA000C55EA020C7FEA645C7FEA07
:1002F000655C00F0E2804FEA5454D4EB5555B8BF2A
:100300006D420CDD2C4480EA020281EA030382EA9A
:10031000000083EA010180EA020281EA0303362D2C
:1003200088BF30BD11F0004F4FEA01314FF4801CFF
:100330004CEA113102D0404261EB410113F0004F11
:100340004FEA03334CEA133302D0524263EB4303C8
:1003500094EA050F00F0A780A4F10104D5F1200E66
:100360000DDB02FA0EFC22FA05F2801841F10001C1
:1003700003FA0EF2801843FA05F359410EE0A5F195
:1003800020050EF1200E012A03FA0EFC28BF4CF0C6
:10039000020C43FA05F3C01851EBE37101F000457C
:1003A00007D54FF0000EDCF1000C7EEB00006EEB89
:1003B0000101B1F5801F1BD3B1F5001F0CD3490813
:1003C0005FEA30004FEA3C0C04F101044FEA44526A
:1003D00012F5800F80F09A80BCF1004F08BF5FEAF1
:1003E000500C50F1000041EB045141EA050130BDD1
:1003F0005FEA4C0C404141EB010111F4801FA4F174
:100400000104E9D191F0000F04BF01460020B1FAC8
:1004100081F308BF2033A3F10B03B3F120020CDA00
:100420000C3208DD02F1140CC2F10C0201FA0CF0DE
:1004300021FA02F10CE002F11402D8BFC2F1200C43
:1004400001FA02F120FA0CFCDCBF41EA0C019040F9
:10045000E41AA2BF01EB0451294330BD6FEA040442
:100460001F3C1CDA0C340EDC04F11404C4F120022D
:1004700020FA04F001FA02F340EA030021FA04F33F
:1004800045EA030130BDC4F10C04C4F1200220FA96
:1004900002F001FA04F340EA0300294630BD21FAD4
:1004A00004F0294630BD94F0000F83F4801306BF9A
:1004B00081F480110134013D4EE77FEA645C18BF8E
:1004C0007FEA655C29D094EA050F08BF90EA020F25
:1004D00005D054EA000C04BF1946104630BD91EA1D
:1004E000030F1EBF0021002030BD5FEA545C05D120
:1004F0004000494128BF41F0004130BD14F580045F
:100500003CBF01F5801130BD01F0004545F0FE41D2
:1005100041F470014FF0000030BD7FEA645C1ABF07
:10052000194610467FEA655C1CBF0B46024650EA3E
:10053000013406BF52EA033591EA030F41F400216A
:1005400030BD00BF90F0000F04BF0021704730B5F0
:100550004FF4806404F132044FF000054FF00001C5
:1005600050E700BF90F0000F04BF0021704730B586
:100570004FF4806404F1320410F0004548BF40425B
:100580004FF000013EE700BF42004FEAE2014FEAB0
:1005900031014FEA02701FBF12F07F4393F07F4F8B
:1005A00081F06051704732F07F4208BF704793F08E
:1005B0007F4F04BF41F40021704730B54FF46074A1
:1005C00001F0004521F000411CE700BF50EA0102A4
:1005D00008BF704730B54FF000050AE050EA01024D
:1005E00008BF704730B511F0004502D5404261EBBD
:1005F00041014FF4806404F132045FEA915C3FF4FE
:10060000D8AE4FF003025FEADC0C18BF03325FEA9A
:10061000DC0C18BF033202EBDC02C2F1200300FA4B
:1006200003FC20FA02F001FA03FE40EA0E0021FA70
:1006300002F11444BDE600BF00000000000000000D
:1006400070B54FF0FF0C4CF4E06C1CEA11541DBF68
:100650001CEA135594EA0C0F95EA0C0F00F0DEF833
:100660002C4481EA030621EA4C5123EA4C5350EA18
:10067000013518BF52EA033541F4801143F4801369
:1006800038D0A0FB02CE4FF00005E1FB02E506F0FA
:100690000042E0FB03E54FF00006E1FB03569CF04F
:1006A000000F18BF4EF0010EA4F1FF04B6F5007F55
:1006B00064F5407404D25FEA4E0E6D4146EB0606C7
:1006C00042EAC62141EA55514FEAC52040EA5E5050
:1006D0004FEACE2EB4F1FD0C88BFBCF5E06F1ED8FA
:1006E000BEF1004F08BF5FEA500E50F1000041EB31
:1006F000045170BD06F0004646EA010140EA0200DE
:1007000081EA0301B4EB5C04C2BFD4EB0C0541EAFF
:10071000045170BD41F480114FF0000E013C00F314
:10072000AB8014F1360FDEBF002001F0004170BD38
:10073000C4F10004203C35DA0C341BDC04F1140451
:10074000C4F1200500FA05F320FA04F001FA05F2DD
:1007500040EA020001F0004221F0004110EBD370AA
:1007600021FA04F642EB06015EEA430E08BF20EAD6
:10077000D37070BDC4F10C04C4F1200500FA04F379
:1007800020FA05F001FA04F240EA020001F000410B
:1007900010EBD37041F100015EEA430E08BF20EA7E
:1007A000D37070BDC4F1200500FA05F24EEA020EC6
:1007B00020FA04F301FA05F243EA020321FA04F0F5
:1007C00001F0004121FA04F220EA020000EBD370AC
:1007D0005EEA430E08BF20EAD37070BD94F0000FAC
:1007E0000FD101F00046400041EB010111F4801FE0
:1007F00008BF013CF7D041EA060195F0000F18BF91
:10080000704703F00046520043EB030313F4801FCC
:1008100008BF013DF7D043EA0603704794EA0C0F86
:100820000CEA135518BF95EA0C0F0CD050EA41069C
:1008300018BF52EA4306D1D181EA030101F0004119
:100840004FF0000070BD50EA410606BF1046194641
:1008500052EA430619D094EA0C0F02D150EA01364D
:1008600013D195EA0C0F05D152EA03361CBF10468E
:1008700019460AD181EA030101F0004141F0FE412D
:1008800041F470014FF0000070BD41F0FE4141F4B1
:10089000780170BD70B54FF0FF0C4CF4E06C1CEAB1
:1008A00011541DBF1CEA135594EA0C0F95EA0C0F66
:1008B00000F0A7F8A4EB050481EA030E52EA033521
:1008C0004FEA013100F088804FEA03334FF0805542
:1008D00045EA131343EA12634FEA022245EA11156F
:1008E00045EA10654FEA00260EF000419D4208BF20
:1008F000964244F1FD0404F5407402D25B084FEACD
:100900003202B61A65EB03055B084FEA32024FF478
:1009100080104FF4002CB6EB020E75EB030E22BFD5
:10092000B61A754640EA0C005B084FEA3202B6EB95
:10093000020E75EB030E22BFB61A754640EA5C0044
:100940005B084FEA3202B6EB020E75EB030E22BFD4
:10095000B61A754640EA9C005B084FEA3202B6EBD5
:10096000020E75EB030E22BFB61A754640EADC0094
:1009700055EA060E18D04FEA051545EA16754FEAF6
:1009800006164FEAC30343EA52734FEAC2025FEA14
:100990001C1CC0D111F4801F0BD141EA00014FF0A3
:1009A00000004FF0004CB6E711F4801F04BF014374
:1009B0000020B4F1FD0C88BFBCF5E06F3FF6AFAE90
:1009C000B5EB030C04BFB6EB020C5FEA500C50F120
:1009D000000041EB045170BD0EF0004E4EEA1131A3
:1009E00014EB5C04C2BFD4EB0C0541EA045170BDAA
:1009F00041F480114FF0000E013C90E645EA060EEE
:100A00008DE60CEA135594EA0C0F08BF95EA0C0F1B
:100A10003FF43BAF94EA0C0F0AD150EA01347FF463
:100A200034AF95EA0C0F7FF425AF104619462CE73A
:100A300095EA0C0F06D152EA03353FF4FDAE10469D
:100A4000194622E750EA410618BF52EA43067FF4EE
:100A5000C5AE50EA41047FF40DAF52EA43057FF47E
:100A6000EBAE12E7000000000000000000000000F4
:100A70004FF0FF3C06E000BF4FF0010C02E000BF6A
:100A80004FF0010C4DF804CD4FEA410C7FEA6C5C4D
:100A90004FEA430C18BF7FEA6C5C1BD001B050EAF0
:100AA000410C0CBF52EA430C91EA030F02BF90EADB
:100AB000020F0020704710F1000F91EA030F58BF9A
:100AC000994208BF90422CBFD8176FEAE37040F0FC
:100AD000010070474FEA410C7FEA6C5C02D150EA9A
:100AE000013C07D14FEA430C7FEA6C5CD6D152EA55
:100AF000033CD3D05DF8040B704700BF844610461A
:100B000062468C461946634600E000BF01B5FFF718
:100B1000B7FF002848BF10F1000F01BD4DF808EDE8
:100B2000FFF7F4FF0CBF012000205DF808FB00BFB9
:100B30004DF808EDFFF7EAFF34BF012000205DF813
:100B400008FB00BF4DF808EDFFF7E0FF94BF012060
:100B500000205DF808FB00BF4DF808EDFFF7CEFF61
:100B600094BF012000205DF808FB00BF4DF808EDA0
:100B7000FFF7C4FF34BF012000205DF808FB00BF71
:100B80004FEA410212F5001215D211D56FF47873B5
:100B9000B3EB625212D94FEAC12343F0004343EA58
:100BA000505311F0004F23FA02F018BF4042704733
:100BB0004FF00000704750EA013005D111F00040BD
:100BC00008BF6FF0004070474FF00000704700BF53
:100BD0004FEA4102B2F1E04324BFB3F5001CDCF15F
:100BE000FE5C0DD901F0004C4FEAC0024CEA507097
:100BF000B2F1004F40EB830008BF20F001007047C6
:100C000011F0804F21D113F13872BCBF01F00040C8
:100C1000704741F480114FEA5252C2F11802C2F1FA
:100C2000200C10FA0CF320FA02F018BF40F001007B
:100C30004FEAC1234FEAD32303FA0CFC40EA0C002D
:100C400023FA02F34FEA4303CCE77FEA625307D16A
:100C500050EA01331EBF4FF0FE4040F440007047A1
:100C600001F0004040F0FE4040F40000704700BF3B
:100C70004FF0FF3C06E000BF4FF0010C02E000BF68
:100C80004FF0010C4DF804CD4FEA40024FEA41030A
:100C90007FEA226C18BF7FEA236C11D001B052EAC0
:100CA000530C18BF90EA010F58BFB2EB030088BF86
:100CB000C81738BF6FEAE17018BF40F001007047F5
:100CC0007FEA226C02D15FEA402C05D17FEA236CD7
:100CD000E4D15FEA412CE1D05DF8040B704700BF1E
:100CE000844608466146FFE70FB5FFF7C9FF0028B5
:100CF00048BF10F1000F0FBD4DF808EDFFF7F4FFEE
:100D00000CBF012000205DF808FB00BF4DF808ED86
:100D1000FFF7EAFF34BF012000205DF808FB00BFA9
:100D20004DF808EDFFF7E0FF94BF012000205DF8CB
:100D300008FB00BF4DF808EDFFF7D2FF94BF01207C
:100D400000205DF808FB00BF4DF808EDFFF7C8FF75
:100D500034BF012000205DF808FB00BF0000000048
:100D60004FEA4002B2F1FE4F0FD34FF09E03B3EBB8
:100D700012620DD94FEA002343F0004310F0004FF8
:100D800023FA02F018BF404270474FF0000070474E
:100D900012F1610F01D1420205D110F0004008BFED
:100DA0006FF0004070474FF00000704700000000F7
:100DB000014B5B6883607047001000E0000000009A
:100DC000024AD36843F08003D360704700100140AB
:100DD000144B154A70B41846144C40F8042B0125E6
:100DE000002210211D7203F174065A6103F10C05F3
:100DF0009A62996303F1640203F15401DC6403F124
:100E000030041E64C3E90355C3E90C44DB621B656F
:100E100058609961C3E90811DA61DA63C3E9112204
:100E200070BC7047D0080020F04A0008C10D0008CF
:100E3000214A1369D1681878F0B4146B28B10129DC
:100E400094BF44F4807444F48474D06A5D8800686C
:100E50009668C66001FB05F14160D96804600568C9
:100E6000926A9E6945F00105D3E9044705600020B8
:100E70001060DD69D760D3E9080341F08061166135
:100E800041F48071D56210635363630051600BD5E8
:100E900024F0804340F2033123F002030C430B4360
:100EA00093609460F0BC704744F4407444F00104D3
:100EB0009460F0BC704700BF3808002000000000BC
:100EC000704700BF000000000000000000000000AC
:100ED000FEE700BF0000000000000000000000006E
:100EE0000346202282F311880849094A08681268DB
:100EF000073323F00703121A93429ABF1B180B60A3
:100F00000020002383F31188704700BF880B002066
:100F10003C0B00200000000000000000000000006A
:100F2000F8B5C36841681A69DC681440E2B2D2437C
:100F30001A610B7D054604F0020704F00406C3B9EC
:100F40007EB10378042B09D087B9E30705D56B6818
:100F500028461B69984703232B70F8BD8B6803B3A1
:100F60009847002FF1D02B78042B11D004232B703D
:100F7000EBE747B10378042B02D0002EF6D1E4E76B
:100F80008B688BB19847002EDFD02B78042BEDD1E6
:100F90006968CB68002BE9D02846984704232B705A
:100FA000D3E7002FF5D1D0E7002EF2D1CDE700BF77
:100FB000C268D36810B413F0FF040CD14168146107
:100FC0000C7D88684CB968B143F00603096909B122
:100FD00043F00103D36010BC70470028F4D143F004
:100FE0000403F3E743F00203F0E700BF0000000052
:100FF0000278C368012A30B437D000221A605A63DD
:101000009A635A62D0E901128C694D68B2FBF5F21D
:1010100000251D6124F0FF04013A4FF6FF75DC60E6
:101020009A62DD620C7D0A788CB940F20124542169
:101030009C61996042B113221A6203F13802343381
:10104000C0E9042330BC704731221A62F5E74FF43F
:10105000817464219C6199603ABB13221A6203F186
:1010600034023833C0E90423ECE7284A904236D0F2
:10107000274A90421CD0274A9042C3D1264A27498A
:10108000146C274D44F008041464146A44F00804F6
:101090001462002414624FF48022702481F83243D9
:1010A000C1F884214A608560ACE731221A62D6E734
:1010B000194A1A49146C1A4D44F002041464146A53
:1010C00044F002041462002414624FF000527024B1
:1010D00081F81D43C1F880210A60856092E70E4ABD
:1010E0000E49146C0E4D44F001041464146A44F06B
:1010F00001041462002414624FF08052702481F8BD
:101100001C43C1F880210A6085607BE76C080020E1
:10111000840800209C0800200038024000E100E024
:1011200000D8B8050000000000000000000000002A
:1011300030B40A480A4C0B4B0B4AC26001214FF0F5
:1011400080450022E560017005F540651970217049
:101150006260DD6042605A6030BC704784080020E5
:101160006C0800209C0800200004004000000000E3
:1011700002F0030C2DE9F047D209674600244FF036
:1011800001094FF003084FF00F0E0FE0D0F800A058
:1011900003EA0A033B43072C036035D8036A1E4069
:1011A0003543056249082DD0BF000134CB07F9D57E
:1011B000436809FA04F523EA050343606300856880
:1011C00008FA03F3DB431D408560C66804F0070599
:1011D000AD001E400EFA05FABCF1020FC66002FA1D
:1011E00005F56FEA0A06D1D1072C12D8D0F820A055
:1011F00006EA0A063543056205682B403B43490869
:101200000360D1D1BDE8F087436A1E403543456293
:10121000C8E7D0F824A006EA0A0635434562EBE7A2
:1012200030B4202383F31188C3685A69002142F047
:101230000102052503245A6119611D60047081F3C0
:10124000118830BC704700BF0000000000000000A3
:10125000202383F31188114B5B6813F4006302D1E0
:1012600083F31188704780B400AFEFF309834FF028
:10127000807243F8042CA3F1200282F30988084A03
:10128000116892698968926891428CBF054A064A42
:1012900043F8082CBD4680BC704700BF00ED00E05D
:1012A00048090020B1020008B40200080000000054
:1012B00038B5174DAB691C69DA681440E2B2D24305
:1012C0001A61A30704D56B681B690BB128469847C0
:1012D000600704D56B689B690BB10D4898472107DF
:1012E00004D56B681B6A0BB109489847E20604D520
:1012F0006B689B6A0BB106489847E30704D56B6897
:101300009B680BB102489847BDE83840FFF7A0BF83
:10131000B4080020000000000000000000000000F1
:10132000FFF7C6BF00000000000000000000000042
:1013300008B50348FFF7F4FDBDE80840FFF788BF94
:101340009C080020000000000000000000000000D9
:1013500008B50348FFF7E4FDBDE80840FFF778BF94
:1013600084080020000000000000000000000000D1
:1013700008B50348FFF7D4FDBDE80840FFF768BF94
:101380006C080020000000000000000000000000C9
:10139000264A13699B0701D4FFF75ABF2DE9F04194
:1013A00000271761202686F31188214C506AB4F873
:1013B00026C0E16980B2A0EB0C050B89ADB29D425D
:1013C00038BF04F11C081ED3154604F11C080A6836
:1013D00063444245E384CB68C2F80480E261CF6095
:1013E00008BFEF6087F311880869984786F3118872
:1013F000686AB4F826C0E16980B2A0EB0C020B89E0
:1014000092B29342E3D9414509D063441B1A9BB27F
:10141000022B2CBFC318831C044A9BB253630023C6
:1014200083F31188BDE8F041FFF712BF00080040C8
:10143000480900200000000000000000000000003B
:10144000084B09485968826F890D01F03D0110B5BC
:101450008C05DC600AB1C06F9047BDE81040FFF713
:10146000F7BE00BF00640240B80A00200000000080
:10147000084B09485968026F090C01F03D0110B58D
:101480000C04DC600AB1406F9047BDE81040FFF7E4
:10149000DFBE00BF00640240B80A00200000000068
:1014A000084B09485968826E890901F03D0110B561
:1014B0008C01DC600AB1C06E9047BDE81040FFF7B8
:1014C000C7BE00BF00640240B80A00200000000050
:1014D00008B5074B07485968026E01F03D01D96015
:1014E0000AB1406E9047BDE80840FFF7B1BE00BFAB
:1014F00000640240B80A0020000000000000000064
:10150000084B09481968826D890D01F03D0110B53D
:101510008C059C600AB1C06D9047BDE81040FFF794
:1015200097BE00BF00640240B80A0020000000001F
:10153000084B09481968026D090C01F03D0110B50E
:101540000C049C600AB1406D9047BDE81040FFF765
:101550007FBE00BF00640240B80A00200000000007
:10156000084B09481968826C890901F03D0110B5E2
:101570008C019C600AB1C06C9047BDE81040FFF739
:1015800067BE00BF00640240B80A002000000000EF
:1015900008B5074B07481968026C01F03D019960D6
:1015A0000AB1406C9047BDE80840FFF751BE00BF4C
:1015B00000640240B80A00200000000000000000A3
:1015C000084B09485968826B890D01F03D0110B53F
:1015D0008C05DC600AB1C06B9047BDE81040FFF796
:1015E00037BE00BF00600240B80A002000000000C3
:1015F000084B09485968026B090C01F03D0110B510
:101600000C04DC600AB1406B9047BDE81040FFF766
:101610001FBE00BF00600240B80A002000000000AA
:10162000084B09485968826A890901F03D0110B5E3
:101630008C01DC600AB1C06A9047BDE81040FFF73A
:1016400007BE00BF00600240B80A00200000000092
:1016500008B5074B07485968026A01F03D01D96097
:101660000AB1406A9047BDE80840FFF7F1BD00BFEE
:1016700000600240B80A00200000000000000000E6
:10168000084B094819688269890D01F03D0110B5C0
:101690008C059C600AB1C0699047BDE81040FFF717
:1016A000D7BD00BF00600240B80A00200000000063
:1016B000084B094819680269090C01F03D0110B591
:1016C0000C049C600AB140699047BDE81040FFF7E8
:1016D000BFBD00BF00600240B80A0020000000004B
:1016E000084B094819688268890901F03D0110B565
:1016F0008C019C600AB1C0689047BDE81040FFF7BC
:10170000A7BD00BF00600240B80A00200000000032
:1017100008B5074B074A196801F03D019960136845
:101720000BB150689847BDE80840FFF791BD00BF76
:1017300000600240B80A0020000000000000000025
:1017400080B400AFEFF30983203383F309880023CB
:1017500083F31188BD4680BC704700BF00000000C5
:101760000F4A104B52681B6F81682DE93008D31A5D
:10177000D0E90445C2685B1A01324168C26014EBCB
:10178000030B0268836045F1000C8B4288BF436005
:101790009342C0E904BC38BF0360BDE8300870471D
:1017A000001000E0480900200000000000000000D8
:1017B000202383F31188037F072B0DD8DFE803F084
:1017C000260C0C2208040C08026A9368013393600B
:1017D000D0E9003213605A6010B400224FF0FF3499
:1017E00081680C4B046202771B689A688A42FBD2BC
:1017F0005A680021C0E900321060586081F31188F6
:1018000010BC7047036A00221A60E5E7002383F3E7
:101810001188704748090020000000000000000007
:1018200000228168074B10B4044602771B689A684F
:101830008A42FBD25A682046C4E9003214605C60D8
:1018400010BC7047480900200000000000000000A4
:10185000F8B5154F57F8044FBC421FD00546002677
:1018600004E00B2A1BD02468BC4217D0E3682B434A
:10187000E36015B122691342F5D0D4E90103416B4D
:10188000027F0B430A2A4363EBD1026A1342EAD078
:101890000662FFF7C5FF2468BC42E7D1F8BD026AC3
:1018A00032EA0303DFD1F3E7D00800200000000094
:1018B0002DE9F047674C666FD6F80C803368DA057F
:1018C0009DB27DD4202383F3118815F02F0F49D0CA
:1018D000614F4FF0000908E0A906D6F804A01DD416
:1018E0003568ADB215F02F0F3CD02B07F4D015F0B2
:1018F000080F0CBF00208020E90748BF40F02000FF
:10190000AA0748BF40F040006B0748BF40F4807012
:10191000FFF79EFFA906D6F804A0E1D56369002B66
:1019200040D0D4E90832934243D06269591C013255
:101930006261216283F800A0D4E907329A4201D3A0
:10194000A3692362E368BB42CAD01A68E260184602
:101950005760C3F82090FFF763FF3568ADB215F00C
:101960002F0FC2D1002383F3118818F0800F01D00C
:101970002A0633D46B0611D5202383F31188D4E9CA
:1019800011239A4251D04FF6BF7308EA03036FF058
:101990004002F3600023326083F31188BDE8F04712
:1019A000FFF756BC0420FFF753FFD4E908329342F7
:1019B000BBD16269002AB8D08020FFF749FF8FE7CA
:1019C000202383F311884FF40070FFF741FF6FF479
:1019D00080733360002383F3118873E7202383F33C
:1019E0001188D4E911239A4226D0A26B216C581C8D
:1019F0000132A263A06488421F7801D3E36BA36421
:101A0000236B164A934209D0196821634FF0000CEA
:101A10004A601846C3F820C0FFF702FF7760002332
:101A200083F311886B06B9D5A6E7A36B002BAAD068
:101A30001020FFF70DFFA6E7A26B002AD5D00820E3
:101A4000FFF706FF4FF63F7308EA030343F0400336
:101A5000F360E4E7D0080020DC0800200009002043
:101A6000F8B5224B1A6800211960930636D5204C30
:101A7000E16A0A685368002B30D02569002D2DD00B
:101A8000136823F01F031360136813F00103FBD1E5
:101A90000F7A4E68AD68A26A3D20B84001213060DF
:101AA000536093609160EDB1052323701048A847FF
:101AB0002378052B04BF02232370002323612023F6
:101AC00083F31188606930B14FF0FF330362002364
:101AD0006361FFF7A5FE002383F31188BDE8F8409A
:101AE000FFF7B6BB022325612370E8E70020014021
:101AF0003808002000000000000000000000000086
:101B000011F00C0F2DE9F0410446056933D0C06A8D
:101B100003681A6822F01F021A60196811F00101A7
:101B2000FBD1077A4668AD68A36A3D22BA4001201E
:101B30003260596099609860002D3ED00523237073
:101B40002046A8472378052B04BF022323700023D7
:101B50002361202383F3118863693BB100214FF097
:101B6000FF32616118461A62FFF75AFE002383F3C1
:101B70001188BDE8F081002DFBD08A0612D52B78A4
:101B80006E68F3B1002EF4D0D0E90212012A43D9D5
:101B90006B88520802FB03F301EB43013346BDE8B7
:101BA000F0411847CB06E4D56B68002BE1D0D0E9B3
:101BB0000212BDE8F0415208184702232561237044
:101BC000C7E7C06A0268136823F01F031360136835
:101BD00013F00103FBD1077A4568A26A3D21B940A1
:101BE00001202960536093609060CEB1042323707C
:101BF000D4E902122046B0472378042B10D02023CA
:101C000083F311886369002BB0D00022626118460B
:101C10001A62FFF705FEA9E73346BDE8F041184711
:101C20000222002322702361E9E700BF00000000C8
:101C3000FEE700BF00000000000000000000000000
:101C4000134B996930B404468D6880680022A8421D
:101C500022620BD822771B689A689042FBD95A6897
:101C6000C4E9003214605C6030BC70470A771A46E1
:101C7000126890688542FBD95068486001250A6067
:101C800001605160257720469C6130BCFEF700BBA7
:101C900048090020000000000000000000000000D3
:101CA000F8B50446202585F3118824394618C66006
:101CB000002543500F4F104B75603762036159691F
:101CC000C2638260022601228683827700F12406A5
:101CD00000F128024161C0E90D5585610861C0E944
:101CE0000962C2625861FFF7ABFF85F31188204695
:101CF000F8BD00BFA1020008480900200000000054
:101D0000074B99691A6810B40877106818600124A5
:101D100043601477104610BC9A61FEF7B9BA00BF51
:101D20004809002000000000000000000000000042
:101D3000F0B54FF6FF73994287B05AD04A4CDFF89E
:101D400030C1A269DCF8243005922546022955F8F5
:101D50001C2F074638BF022144480490AA429EB275
:101D60006CD0B4F826E01089A6EB0E069BB2314485
:101D700089B2A3EB0E03994233DA1268091A10896B
:101D800089B2814205D91268091A108989B288423C
:101D9000F9D35368029301AE01921E605660ADF80C
:101DA0000C101389591A4FF6FF731181A38438461A
:101DB000FFF7A6FF049B83B1E269019BB2421FD0EB
:101DC000029A1360019B0021AB425A60049104D037
:101DD0001A89BDF80C100A441A81A369186A07B061
:101DE000F0BD8142CDD28E441FFA8EF3CCF8343050
:101DF000C7E71D4CFFF784FFA369186A07B0F0BD61
:101E00000022AB42E3615D6004922AD0184DE08C61
:101E1000696A1A89BDF80C7089B20E1A3A4492B2F6
:101E2000B6B2B2421A81D8D9521A024492B2022AE8
:101E30002CBF8918023189B26963CEE77318E68432
:101E40009BB201AECDE90155ADF80C10C4E90766AF
:101E50000022CCF834300223CCF81020CCF80C301F
:101E6000A5E7034BDA60B8E748090020B11700087E
:101E7000000800400000000000000000000000001A
:101E800061B1084B9B6910B4186044685C600246FD
:101E900023600420536010BCFFF74ABF4FF0FF30AF
:101EA000704700BF4809002000000000000000004B
:101EB0002DE9F04F83B004460E4615460193D0F845
:101EC0001C804FF0200989F311880027BA46A268C8
:101ED000B346204602B36169A2684E1C013A6661AE
:101EE000A2601BF8012B0A70D4E90421914224BF9F
:101EF000E2686261B8F1000F00D0C0478AF3118830
:101F0000013D07F1010711D089F31188A2685E46EF
:101F1000B3462046002ADED1019900922046FFF701
:101F2000AFFF009A0028D2D082F31188384603B060
:101F3000BDE8F08F0000000000000000000000007D
:101F40003030FFF7B5BF00BF000000000000000008
:101F500030304FF6FF73FFF7ABBF00BF000000004B
:101F6000F8B504460F461646202383F3118803E094
:101F7000FFF786FF002818DBA56831462046002DB4
:101F8000F6D06269A368511C013B6161A3601770C0
:101F9000D4E904329A4224BFE3686361E36903B180
:101FA0009847002080F31188F8BD85F31188F8BDAB
:101FB0003030FFF7D5BF00BF000000000000000078
:101FC00030304FF6FF72FFF7CBBF00BF00000000BC
:101FD0002DE9F04F044683B0894693461D46D0F85C
:101FE0001C80202787F3118800260197B246B8F19C
:101FF000000F05D02046C04702E0FFF741FFE0B9DF
:10200000A76829462046002FF7D0A269A368511C73
:10201000013BA161A360137809F8013B2369A26920
:102020009A4224BFE368A3618AF311880136B3455D
:1020300005D0019B83F31188D9E787F311883046D7
:1020400003B0BDE8F08F00BF0000000000000000FA
:102050000C30FFF7BDBF00BF000000000000000013
:102060000C304FF6FF73FFF7B3BF00BF0000000056
:1020700070B520230E46044683F31188C3692BB143
:10208000984703E0FFF7FCFE002815DBA568314602
:102090002046002DF6D0A169A36825694A1C013BA2
:1020A000AA42A360A26128BFE368087828BFA361A1
:1020B000002383F3118870BD85F3118870BD00BFC4
:1020C0002DE98048444C454F83B004F114084FF685
:1020D000FF714348FFF7CCFF40B280306CD100263F
:1020E00043E040494A8398074FF080010A464BBFBE
:1020F0003D4A3D4951830A8313F0040F3B4B4FF097
:10210000400114BF598319834FF0200989F31188C6
:102110000DF10603A360364B03254FF0010BC4E914
:1021200003B32570FEF784FEBB696361C3F82080AA
:102130002846FFF7E5FD4FF0000A8AF3118889F37E
:10214000118801ABC4E9023B2A4B23612570FEF7DD
:102150006FFEBB6963612846C3F82080FFF7D0FD9E
:102160008AF311885E44082E09D0F3B213F0010FF0
:102170004FF02002B5D11B4920220A83B3E74FF666
:10218000FF711748FFF774FF1B4B1A68BB6989F38F
:10219000118802F1280119621960D16A596040B2B0
:1021A00018630B60117FD3620E2910D00C20FFF74B
:1021B000A7FD002383F31188202383F311880121D5
:1021C0000820FFF7B5FD002383F311887FE7104651
:1021D000FFF726FBEAE700BF380800204809002087
:1021E000DC08002000000240000802400004024019
:1021F000D0490008004A0008840B002000000000BD
:102200000C30FFF735BF00BF0000000000000000E9
:102210000C304FF6FF71FFF72BBF00BF000000002E
:102220000EB42DE9F04F90B019AB4FF0000953F800
:10223000042B09931546984615F8011B71B1252901
:1022400012D0824F3A683846926809F101099047E6
:102250002A46154615F8011B0029F0D1484610B052
:10226000BDE8F04F03B0704753782D2B05BF93782E
:10227000951C00220122302B019200F0B380202215
:102280000092691C002607E050F8042BD2B2804669
:1022900011F8013B02EB4406A3F13002D2B2092A45
:1022A00040460D4606EB8604F2D92A2BECD02E2BA5
:1022B0004FF0000745D003F0DF024C2A51D0A3F1C4
:1022C0004401342900F2D881DFE811F0AD01D601D4
:1022D000D601D601D601AD01D601D601D601D6016F
:1022E000D6012502D601D601D601D601D6011D029E
:1022F000D601D6012202D601D601D601D601D601D9
:10230000D601D601D601D601D6015C01AD01D601B8
:10231000C200D601D601AD01D601D601D601D60143
:10232000D6012502D601D601D6019000D6011D02A4
:10233000D601D601220251F8042BD2B2884602EB14
:10234000400715F8013BA3F13002D2B2092A4146F9
:1023500007EB8700F3D92A2BEDD003F0DF024C2ADC
:10236000ADD12A78002A00F08781A2F1440301351B
:10237000342B00F28081DFE813F056017E017E01EC
:102380007E017E0156017E017E017E017E017E017D
:1023900095017E017E017E017E017E01BC017E01F0
:1023A0007E01C1017E017E017E017E017E017E01F2
:1023B0007E017E017E017E01050156017E016B00DA
:1023C0007E017E0156017E017E017E017E017E013D
:1023D00095017E017E017E0139007E01BC017E01F6
:1023E0007E01C101009301352B784AE758F8044B70
:1023F000002C00F0A581237847F6FF72002F08BF5C
:102400001746002B00F0CC81A64601E0FB4206D423
:102410001EF8012F6FEA0E032344002AF6D1AEEB1B
:1024200004072023B6EB070A009307F1FF3B019B4B
:1024300040F1B780002B40F02D81BBF1000FFFF67B
:1024400007AF024FDDF804A0CCE000BFD0080020A9
:1024500008F1070828F00708F8E80201FEF7B8FBC2
:1024600000218246FEF752FC002840F05F810AAC52
:1024700004945046FEF788F8013F082FCDE9020189
:1024800000F27181C04B53F82730059318469B46E4
:10249000FEF758F8BD4F5B46CDE90601A7FB0337B1
:1024A000FF085046FEF75CFC049BDFF8E0E203F116
:1024B0000B0A01465246AEFB01C3DB0803EB830B5C
:1024C0009C46A1EB4B0330338B46DBB2BBF1090FCB
:1024D00002F8013D6146EED804999E46AAEB020A35
:1024E00001EB0A0C734601E012F8013F01F8013BD1
:1024F0006145F9D1049A2E230AF1FF3A52440B7038
:102500009246FEF72FF802460B46DDE90201FDF781
:10251000DBFEDDE90623FEF793F8FEF731FB059BB2
:102520009A490AF10D0E092B98BF07460AF10203DA
:1025300072460493A1FB00C3DB0803EB830B9C46AC
:10254000A0EB4B033033BB46DBB2A1FB0707BBF16B
:10255000090F02F8013D60464FEAD707EAD8AEEB13
:102560000207B91C8A44049901E012F8013F01F8FE
:10257000013B5145F9D1049B3B441F463F1B07F1EA
:10258000FF3B09E058F8043B8DF8283020234FF03A
:10259000000B012700930AACB6EB070A019B3FF53D
:1025A00049AF002B71D1BB1B0193BAF1000F6AD068
:1025B000774F21783A682D29926800F0C680744ED2
:1025C000DDF804A001E03B689A6800993046904726
:1025D0001AF1010AF7D1019BBBF1000FA9EB030926
:1025E000FFF636AE6A4B04EB0B063A6814F8011B93
:1025F000926818469047321B002A654BF5DA09F1BC
:102600000109D944BAF1000F3FF422AE604F54469D
:102610003E463B6800999B6830469847013CF8D19C
:10262000D1442A4615E6D8F8000008F10403002832
:10263000984673DB0AAC274607F10B0C6146DFF8BE
:102640004CE100E01046AEFB0032D20802EB820300
:10265000A0EB43033033DBB2092801F8013DF1DC84
:10266000ACEB010CBC4401E011F8013F07F8013B61
:102670006745F9D182E713468DF828304FF0000BFB
:1026800001270AAC88E7DDF804A0BBF1000FB9DB35
:102690003F4FA7E7BBF1000FFFF6DAAD4FF0000A9E
:1026A0003B4F9FE758F8041B4FF0080C0DF1330720
:1026B0003B4600E003460C46B1FBFCF10CFB114E1F
:1026C0000EF13002392AC8BF0EF13702D2B264458A
:1026D00003F1FF3003F8012CECD23F1A0AAC384466
:1026E000214601E013F8012B01F8012B8342F9D1B7
:1026F00045E758F8041B4FF00A0CD7E758F8041BBD
:102700004FF0100CD2E74FF00A0C58F8041BCDE73D
:102710004FF0100CF9E74FF0080CF6E72D2340427C
:102720008DF828300DF129070AAC85E72D238DF8A7
:1027300028300DF129030AF1004A04930AAC98E607
:10274000D7B947F6FF77134C5EE6009B302B7FF43A
:1027500036AF384690473A6809F10109926801346A
:102760000BF1FF3B2BE706A3D3E90023CDE90623BA
:10277000094B0A4F059394E6064C45E6AFF30080FB
:102780000000000065CDCD41404A0008CDCCCCCC46
:10279000D00800206049000800CA9A3B00E1F50516
:1027A000019B3BB97342019346B1202300934FF044
:1027B000FF3BFDE62023B246009323E79A46202301
:1027C00000931FE700000000000000000000000070
:1027D0002DE98048DFF84CB287B04FF020084FF069
:1027E0000D0988F31188DBF8182013464FF0000A12
:1027F00053F8284F9C4200F0B380216891624B60EF
:1028000084F81C908AF31188256B2846FDF7AAFEF0
:1028100006460F4688F311882046FFF711FA8AF31F
:1028200011883046394602F00BF88028D9DC4FF683
:10283000FF716D48FFF71CFC40B2FDF793FE0022CC
:102840006A4BFEF727F8CDE90201FEF799F92A460F
:10285000034667496748FFF7E3FC5DA3D3E900231C
:1028600030463946FEF716F800224FF04043CDE9D6
:102870000401FEF753F90028AFD15F4B5F4EDFF83C
:10288000A8A15F4F0022CDE900230446DDE9000145
:1028900051A3D3E90023FDF719FDDDE90423CDE9B8
:1028A0000001FDF711FD4EA3D3E90023FDF7C8FE9B
:1028B00000F0FEFD0022534BFDF7C2FE0022524BFA
:1028C000FDF7BEFE00F044FE0022002380460D46C8
:1028D000FEF72EF9002850D14046294600224B4BE6
:1028E000FEF726F9002844D1DFF840E1844662462D
:1028F000734640462946FDF7E9FC02460B468046F2
:102900008946DDE90201FDF7E1FCFEF739F917F927
:10291000011B1AF9012B012303FA02F28B4001B2C9
:10292000002992B29BB234DB394814BF0283428340
:102930004383B6F90030002B34D049464046FEF7B9
:102940001FF90134024633492A48FFF769FC032C7A
:1029500006F102069AD130492648FFF761FC3CE7B0
:102960000E20FFF7CDF9DBF81820946A02F1280356
:1029700043E7C44605F1004EB9E740462946002228
:10298000264BFEF7F3F80028F3D18446DFF8A0E0E9
:10299000ADE71F4D2B836A83B6F90030404201B288
:1029A000002BCAD1202282F311881D48012582699B
:1029B000C068A540284304F10C0502EB8502184DC0
:1029C0005160E86083F311883180B6E7AFF300808F
:1029D0000000000000C05F40555555555555E53F76
:1029E00044174154FB210940DC080020000034401A
:1029F00070480008D00800200000F0BF7C0B0020C9
:102A000060480008000031400000444000001440CD
:102A1000000802407C48000878480008000014C004
:102A2000B4080020480900205048000800C0724047
:102A300000C072C0000000000000000000000000A4
:102A40001A4B1B4C1A694FF0FF3100222DE98048C8
:102A500019611A61586959615A61186A60F08050A9
:102A600018621A62586A59625A62196C41F08051B0
:102A70001964216841F480712160196F01F440717B
:102A8000B1F5007F89B003D04FF4803119671A6720
:102A9000074A08495368084D23F400735360074BF5
:102AA00000200246186004460CE000BF00380240D7
:102AB000007000408C48000810600240380B002075
:102AC00051F80C5CC04B2C6043F832400132102AA4
:102AD00001F10C01F4D1DFF854B3DFF854E3DFF86F
:102AE000549301924FF0FF33CBF80830CBF80C3001
:102AF000CEF80830CEF80C30D9F830E0DFF838A343
:102B0000B24ADFF838C3DFF838B3B14EB14DB2483E
:102B1000B249B34FDFF82C834EF09F0EC9F830E076
:102B2000D9F850E04EF09F0EC9F850E06FF48A6E6D
:102B3000CAF80440CAF808E04FF6DF7ECAF80C2055
:102B4000CAF814E04FF4EE4ECAF820E04FF42A2EF3
:102B5000CAF824E08022CAF800B04FF0553E4FF684
:102B6000FF7BCCF80440CCF80830CCF80CE0CCF873
:102B700014B0CCF82040CCF82440CCF80020994A7E
:102B8000DFF8C4C274604FF0010AB360F260C6F8A7
:102B900014B03462746234606C606026AB60C5F857
:102BA0000CE0C5F814B02C626C622C604460836049
:102BB000C0F80CE0C0F814B00462446204604C60D9
:102BC0008B60C1F80CC0DFF884C2C1F814B0DFF824
:102BD00080E20C624FF480254C62A0F570400C60DE
:102BE00087F800A007F1180188F812637E4EC8F834
:102BF0008051C8F80050C7E90A0CC7F830E0C7E9AF
:102C00000144C7E903447C613C62C7E90611FEF751
:102C10008FFA042075493074B16186F800A07460A1
:102C2000F460FEF7D5F8D9F84050DFF828C27048B4
:102C30007049DFF824E245F00405C9F84050DCF89B
:102C4000085045F00405CCF808506FF07F034FF0B2
:102C5000804542F27F5CC0F828C0C0F82CB0846187
:102C60004463C4604460C0F814A0C0F800A088F8B1
:102C70001E33C8F88051C8F800508C60C8685E4B9D
:102C8000DFF8D8C1019A4FF6FF05284040EA0E0E42
:102C9000C1F80CE0D868594D40F080706D60D86084
:102CA000DCF80000AC6040EA0A004FF02003CCF8EA
:102CB0000000CA7781F8223005F11C02504B2D60CC
:102CC000C5E907224F4A002102A8C5E904555A6701
:102CD00000224FF0FF33C5F824B0CDE90612CDE94C
:102CE00002342C67CDE90444FEF762F802A8FEF72F
:102CF00037FD4549454B464AD5F814B09C6121F053
:102D0000070C0499296703F1100022F0070E4021F7
:102D100005F12C02C3E904006963A96685F84940FE
:102D2000C5E9184485F84AA06C64ED63C5F840B065
:102D3000CBF81020C5E9052205F150023549364887
:102D40002A65364A1A60C3E9024405F1540385F83E
:102D500048A0C5E91533C1F800C0C0F800E084F30D
:102D6000118862B6AB692E4A9A61D821524605F1A4
:102D700078002C4BFEF794FF2B4B8361FEF728F86D
:102D80001F4B204A5A67202282F311881B7A534531
:102D90000DD1D9F8443043F01003C9F84430C022B3
:102DA000202388F82523C8F88431C8F80430144B50
:102DB0005A6F144B9A4253D003F580639A424FD016
:102DC0004FF4D07393604EE0B80A002005511564AB
:102DD00000080240000C024000100240001C0240AB
:102DE0003808002055555551B40800200000014016
:102DF0000008004000ED00E0F0ED00E04809002090
:102E0000D008002000100140A70F0020980A0020E1
:102E100000000220880B00203C0B0020E10E00087F
:102E200040490008D10E0008304A00080060024006
:102E300000640240003802400000024000040240EA
:102E4000A004802A00E100E05055555510490008C3
:102E5000162C0200002004E00003FA05001000E038
:102E600040F24133936040231361012142F22C1060
:102E700000235161D060136014685268B24A022086
:102E8000107283F311880420B04AB261317073600C
:102E9000F3603074202282F31188AD4932784C6897
:102EA000012AC6E9011400F0CD81B26913605363B1
:102EB0009363D36313645362CB6872690868B2FB8F
:102EC000F0F003F00F03B269CD6A013C0138012B29
:102ED0009062D462556000F02381022B00F02181C2
:102EE0000023486900F00F00012800F01F8102282C
:102EF00000F01A81C86900F00F00012800F01B8162
:102F0000022800F01681486A00F00F00012800F046
:102F10001781022800F01281096B1362002421F04E
:102F2000FF0301254FF4004085214FF00208556151
:102F30001461D36050641160F46086F8008084F3FB
:102F40001188FEF7F5F8202585F31188DFF820A217
:102F5000804BCAF804305046FEF74AF88AF80080E1
:102F600084F3118885F31188DFF808927A4BC9F849
:102F700004304846FEF73CF889F8008084F3118855
:102F800085F31188754E764B73603046FEF730F846
:102F900086F8008084F311885046FEF741F94846D0
:102FA000FEF73EF93046FEF73BF9032206216D4855
:102FB000FEF7DEF8032206216B48FEF7D9F885F309
:102FC00011883B787C60012B00F0E4804FF0020810
:102FD00087F80080002484F31188644A536843F41E
:102FE00000035360202686F311886148FDF7E0FF57
:102FF00084F3118886F311885E48FDF7D9FF84F3C6
:10300000118886F311885548FDF7D2FF84F31188A3
:10301000544D594F40F2823228464FF40041FEF79A
:10302000A7F840F2823208214F48FEF7A1F80122AA
:103030004FF480615148FEF79BF801224FF4805114
:103040004E48FEF795F8284682224FF48071FEF72D
:103050008FF801224FF480714848FEF789F8012269
:103060004FF400714548FEF783F8284682224FF45A
:103070000071FEF77DF8314601224048FEF778F8EE
:10308000012240213D48FEF773F8284682224FF482
:103090008061FEF76DF882220121FEF769F8414652
:1030A0004FF48172FEF764F84FF4817210212E48BC
:1030B000FEF75EF8284603224021FEF759F8032266
:1030C0008021FEF755F831460122FEF751F8012222
:1030D00040212548FEF74CF8012280212748FEF7C1
:1030E00047F8274BFC6040224FF432713C627C630E
:1030F0002448FEF7D5FD244B244840224FF4A47108
:10310000FEF7CEFD224B344618606E8384F311889F
:1031100032210820FEF70CFE002383F31188F5E727
:10312000002343F00103DCE643F0200343F01003E7
:10313000E0E643F4007343F48073E4E643F40053A1
:1031400043F48053E8E600BFD008002000000140AF
:1031500000080020704900089049000884080020F9
:10316000B049000800000240000402400023014072
:103170006C0800209C080020400B00200008024042
:10318000C1200008D80C0020D1270008900B002097
:10319000840B0020FA6A414D517A28688B40034223
:1031A0003AD13F4E034306EBC1043E482B6013F077
:1031B000FF0F676046F8310004D03B48016B41F4D3
:1031C0000011016313F47F4F61D11368196821F076
:1031D0001F011960196811F00101FBD1147A5568BB
:1031E0003D20A0402124286019605C61917A4B0940
:1031F0009B0001F1604403F1604303F5614304F572
:10320000614401F01F01012000FA01F1602584F8FA
:103210000053C3F88011196013682349234A9A6048
:103220004B6C2348BA6A43F480734B64436803F4DD
:103230004003002143F480330124436051609160D6
:103240009460C3E618481B4A456CD6F818C045F090
:1032500001054564456A45F00105456243627023F6
:103260004FF0007082F81933C2F8800110604FF0FF
:10327000006082F81B33C2F8800146F668031060D4
:103280000D4ACCF818307261CCF81C3014E60649AF
:103290000B6B43F480030B6397E700BF380B0020F0
:1032A000B80A0020011B0008003802404C200140F1
:1032B0000023014000E100E000D8B8050000000054
:1032C000274B284A4FF080504FF44041186411605A
:1032D0001A6842F001021A601A689007FCD59968D2
:1032E0001F4A21F00301996099689960916811F073
:1032F0000C01FBD110681A4B00F0F90010609160CE
:10330000516F41F0010151675A6F9107FCD5164A80
:103310005A601A68134942F080721A604B685A0466
:10332000FCD50F4A13689B01FCD5104B10499160E6
:1033300040F203711960916841F00201A3F58063C6
:1033400091609A6802F00C02082AFAD15A6C42F491
:1033500080425A645A6E42F480425A66704700BFF7
:10336000003802400070004010600108003C02403C
:10337000001088380000000000000000000000007D
:1033800038B5202383F311880D4B9C69636A206252
:1033900004F12405AB4207D01A6862621846FEF7B2
:1033A0003FFA636AAB42F7D1637F9B0703D1D4E94D
:1033B000043213615A610F20BDE83840FEF7A0BC0B
:1033C000480900200000000000000000000000008C
:1033D0000D4908688A69036830B495680B605960C4
:1033E0000124886100210477117700E01B68996847
:1033F0008D42FBD35C681146C2E9003422605A60FA
:1034000030BCFCF745BF00BF4809002000000000A9
:10341000F0B4144F144D1548154B164907F1700CB4
:103420000026984211D904391A4651F8044F42F83F
:10343000044B9042F9D8421ED21A22F00302043201
:1034400013449D4203D943F8046B9D42FBD8674562
:1034500005D0D7E90413D7E906051037E1E7F0BC3A
:10346000704700BF704A0008A00F0020A00F002086
:10347000A00F0020244D0008000000000000000004
:10348000FEE700BF00000000000000000000000098
:10349000704700BF000000000000000000000000B6
:1034A000704700BF000000000000000000000000A6
:1034B00030B5224A21F00043934287B01BDD204AF9
:1034C000934205DD02460B46FCF7FEFE07B030BD19
:1034D00002AA00F045F800F00300012813D00228EA
:1034E00021D0B8B1DDE90423DDE9020100F058FA8A
:1034F00001F10041EAE7002300930022002300F0DD
:1035000097FF07B030BDDDE90423DDE9020100F0DB
:1035100047FADBE701230093DDE90201DDE904233B
:1035200000F086FFD2E701230093DDE90201DDE927
:10353000042300F07DFF01F10041C7E7FB21E93FD3
:10354000FFFFEF7F0000000000000000000000000F
:1035500001F036B90000000000000000000000008B
:103560002DE9F04FBE4C21F00045A5428FB040F34D
:1035700082801446BB4A95420E4626DC0029AEA343
:10358000D3E9002340F3B381FCF79EFEB64B9D4286
:1035900006460F4600F08480A9A3D3E90023FCF778
:1035A00093FE02460B46C4E9002339463046FCF739
:1035B0008BFEA3A3D3E90023FCF786FEC4E9020136
:1035C000012738460FB0BDE8F08FA84A954240F376
:1035D0008780A74A954259DC2F15A7F21647A5EB1D
:1035E000075189468046FDF7CBFAFCF7BBFF8246C0
:1035F0008B464046494652465B46CDE908ABFCF750
:1036000063FE00229B4BFDF71BF889468046FDF7C1
:10361000B7FA0546FCF7A6FF02460B464046494668
:10362000CDE90A23FCF750FE0022924BFDF708F883
:1036300000220023CDE90C01FDF770FA002800F00C
:10364000F680002D0CBF012302238B4A0192022138
:103650003A46009108A8214600F0CAFA002E074613
:10366000AFDA6268E36802F1004203F100434742C7
:103670006260E360A5E7002700240025C2E900019D
:103680003846C2E902450FB0BDE8F08F02460B464E
:10369000FCF71AFE0027C4E90201C4E9000190E723
:1036A00069A3D3E90023FCF70FFE69A3D3E9002344
:1036B00006460F46FCF708FE02460B46C4E9002307
:1036C00030463946FCF700FE61A3D3E90023FCF73E
:1036D000FBFD0127C4E9020138460FB0BDE8F08FB9
:1036E00000F05EFF5CA3D3E9002380468946FCF727
:1036F000A7FF0022614BFCF7E9FDFDF741FA074601
:10370000FCF730FF4CA3D3E9002382468B46CDE97A
:1037100004ABFCF795FF02460B4640464946FCF7D2
:10372000D3FD47A3D3E90023CDE902015046594612
:10373000FCF786FF1F2F8046894602460B46DDE9CF
:10374000020128DCFCF7C0FD4D4B7A1E834653F87E
:103750002230AB428A4622D05A465346C4E900235F
:103760005A465346DDE90201FCF7AEFD42464B46A0
:10377000FCF7AAFD002E02460B46C4E90223BFF661
:1037800020AF0AF1004301F10041C4E900B3C4E9EC
:1037900002017F4215E7FCF797FD83468A462D1507
:1037A000CAF30A53EB1A102BD6DD27A3D3E9002363
:1037B000DDE90401FCF744FF8046894602460B46DA
:1037C000DDE90201FCF780FD82468B4602460B468E
:1037D000DDE90201FCF778FD42464B46FCF774FD3B
:1037E0001BA3D3E9002380468946DDE90401FCF7E9
:1037F00027FF42464B46FCF767FD0B4602468046D4
:10380000894650465946CDE906ABFCF75DFDC1F34C
:103810000A53ED1A312D83468A4633DC02460B46A5
:10382000C4E90023DDE90623CDE9022398E7032359
:103830000BE700BFAFF3008000004054FB21F93FCD
:103840003163621A61B4D03D0000601A61B4D03DAA
:103850007370032E8A19A33B83C8C96D305FE43FA0
:10386000FB21E93F7BD90240FB21F93FFB21394194
:10387000FFFFEF7F00007041904B00080000E03F29
:10388000104B000838A3D3E90023DDE90401FCF75D
:10389000D7FE8046894602460B46DDE90601FCF765
:1038A00013FD82468B4602460B46DDE90601CDE953
:1038B00002ABFCF709FD42464B46FCF705FD2CA385
:1038C000D3E9002380468946DDE90401FCF7B8FE10
:1038D00042464B46FCF7F8FC02460B4680468946BA
:1038E00050465946FCF7F0FC83468A4634E7FCF71D
:1038F000EDFC274B9D4206460F4616D01EA3D3E98A
:103900000023FCF7E3FC02460B46C4E900233946DA
:103910003046FCF7D9FC18A3D3E90023FCF7D6FC0A
:103920004FF0FF37C4E902014BE615A3D3E90023AA
:10393000FCF7CCFC14A3D3E900230F460646FCF7A2
:10394000C5FC02460B46C4E9002339463046FCF765
:10395000BBFC0DA3D3E90023FCF7B8FC4FF0FF3705
:10396000C4E902012DE600BF0000002E8A19A33B26
:10397000C14920259A837B393163621A61B4D03DF5
:103980000000601A61B4D03D7370032E8A19A33B06
:10399000FB21F93F000000000000000000000000D3
:1039A0002DE9F04F21F00046B6F1795F85B00C4665
:1039B00092469B4605466BDAFDF7E2F8002800F0D8
:1039C000E8802A46234628462146FCF739FE74A3A0
:1039D000D3E9002380468946FCF732FE72A3D3E97F
:1039E0000023FCF773FC42464B46FCF729FE70A30C
:1039F000D3E90023FCF768FC42464B46FCF720FE67
:103A00006DA3D3E90023FCF761FC42464B46FCF76B
:103A100017FE6BA3D3E90023FCF756FC42464B4646
:103A2000FCF70EFE68A3D3E90023FCF74FFC4246E7
:103A30004B46FCF705FECDE900010022644B4046F1
:103A40004946FCF7FDFDDDE9002306460F464046EA
:103A50004946FCF7F5FD5246804689465B462846B6
:103A60002146FCF7EDFD02460B4640464946FCF771
:103A70002BFC02460B4630463946FCF725FC024635
:103A80000B4600205349FCF71FFC05B0BDE8F08F42
:103A900002460B46FCF7D4FD41A3D3E90023804640
:103AA0008946FCF7CDFD40A3D3E90023FCF70EFCCB
:103AB00042464B46FCF7C4FD3DA3D3E90023FCF787
:103AC00003FC42464B46FCF7BBFD3BA3D3E9002376
:103AD000FCF7FCFB42464B46FCF7B2FD38A3D3E9AA
:103AE0000023FCF7F1FB42464B46FCF7A9FD36A349
:103AF000D3E90023FCF7EAFB4B464246FCF7A0FD66
:103B0000354B9E42CDE9000197DD344B9E424FF08C
:103B1000000238DCA6F5001300202E4916461F4689
:103B2000FCF7D2FBCDE902010022294B4046494671
:103B3000FCF786FD32463B46FCF7C6FBDDE9002379
:103B400006460F4640464946FCF77AFD52468046F7
:103B500089465B4628462146FCF772FD02460B4625
:103B600040464946FCF7B0FB02460B463046394614
:103B7000FCF7AAFB02460B46DDE90201FCF7A4FBB9
:103B800005B0BDE8F08F164B164FCDE90223002695
:103B9000CAE71049002005B0BDE8F08FAFF3008000
:103BA000D43888BEE9FAA8BDC4B1B4BD9EEE213EAA
:103BB000AD529C804F7E923E9015CB19A001FA3EEB
:103BC0007751C1166CC1563F4C5555555555A53FBB
:103BD0000000E03F0000F03F3233D33F0000E93FF8
:103BE0000000E73F0000D23F00000000000000009E
:103BF0002DE9F04FADF5197DB64CA29D089354F810
:103C000025400594013B12F1140F06460B910393D6
:103C1000C0F2C882B049D31E81FB0301DB17C3EB9E
:103C2000A10307930133A3EB8303DB00D3180693AF
:103C3000079A039BD41A059AD7181BD40137274437
:103C400020AD4FF000084FF00009DDF88CA208E02D
:103C50005AF82400FCF786FC0134BC42E5E8020176
:103C600008D0002CF4DA013440464946BC42E5E86D
:103C70000201F6D1059B002BC0F2B583089BA6F18B
:103C80000802DB0002EB0308049220AA02EB030AFD
:103C90000193059B72AA02EBC30B0DF5E079039B20
:103CA000002BC0F29A81049C55460026002775E936
:103CB0000223F4E90201FCF7C3FC02460B4630463E
:103CC0003946FCF703FB444506460F46EFD1E9E8C9
:103CD0000267D9450AF1080AE1D10198049C0599C7
:103CE000019120448B0083460BA8A3F10802C3185E
:103CF0000A930CAB13440993019A98A901EBC203F0
:103D0000002A53E9284529DD0DF5E07A0AEBC208BF
:103D10000DF130090022714B20462946FCF790FC3A
:103D2000FCF72EFFFCF71EFC00226D4B06460F46EB
:103D3000FCF786FC02460B4620462946FCF7C4FAEF
:103D4000FCF71EFF78E9022349F8040B3946304698
:103D5000FCF7BCFAD04504460D46DBD1DDF81890DF
:103D6000204629464A4600F0ABFC00224FF07F5324
:103D700004460D46FCF764FC00F01AFC0022594B87
:103D8000FCF75EFC02460B4620462946FCF79CFAEF
:103D90000D460446FCF7F4FE8046FCF7E3FB0B46B9
:103DA000024629462046FCF78FFA4B46002B064672
:103DB0000F4640F39980019A0CA9013AC9F1180302
:103DC00051F8225045FA03F101FA03F3EB1AC9F155
:103DD00017050CA843FA05F5002D40F82230884459
:103DE00000F38C800022002330463946FCF796FE13
:103DF000002800F09C82019B059A03F1FF394A4597
:103E000010DC03F180430CAA013B0A9802EB830308
:103E1000002253F80419834242EA0102F9D1002A30
:103E200040F0E580059B0CAA013B52F82330002BA3
:103E300040F0CE80099A012352F804190133002979
:103E4000FAD001994A1CCB1802939146079B089916
:103E500002EB030A019B0B441D4620AB0AF1804A8A
:103E600003EBC505A39B0AF1FF3A03EB8A0A70AB8B
:103E700003EBC20301935AF8040FFCF773FB039B97
:103E8000A846002BE8E8020120DB083D049C002640
:103E9000002701E075E80201F4E90223FCF7D0FBFA
:103EA00002460B4630463946FCF710FA5C4506469A
:103EB0000F46EFD1019BE3E802670193029B09F1F2
:103EC000010999454546D6DD019315E700260027EF
:103ED000F0E700BFE04C0008ABAAAA2A0000703E41
:103EE000000070410000204069D1019B0CAA013BF9
:103EF00052F82350ED15002D7FF774AF019B002B76
:103F000008F1010840F311820C9C002C3AD1019B6E
:103F1000012B09D00CA9012251F8044F531C9CBB62
:103F20001A46019B9342F7D1069B002B0EDD012B15
:103F300000F01B81022B09D1019B5A1E0CAB0CA96E
:103F400053F82230C3F3150341F82230022D7FF4D9
:103F500049AF32463B4600209749FCF7B5F9064683
:103F60000F46002C3FF43EAF069A9349002000F024
:103F7000A7FB02460B4630463946FCF7A5F9064634
:103F80000F462FE7012300220CA9C4F1807441F8E9
:103F900022400199994210DD0CAA0CA852F8232066
:103FA00000EB830300EB81006FF07F4100E01A68B3
:103FB0008A1A43F8042B8342F9D10124B4E7002282
:103FC0007E4BFCF7C9FD002840F0DA80054609E782
:103FD000019B5A1C9146029238E700260027E9E827
:103FE0000267D9450AF1080A7FF459AE75E60CABB1
:103FF000069A53F82930CDF81C80183A0495069299
:1040000073B9019B03F18043023B0CA901EB8303CD
:1040100053F8041909F1FF39183A0029F8D006922B
:10402000069A6549002000F04BFBB9F1000F0446E9
:104030000D46C0F2DF814FEAC90370AA02EB030804
:10404000069309F101060CABDFF874B108F108071B
:1040500003EB86064FF0000A56F8040DFCF782FACF
:1040600022462B46FCF7ECFA5B4667E90201524612
:1040700020462946FCF7E4FA0CAB9E4204460D4666
:10408000EAD1CDF80890DDF8149048ABB9F1000FF3
:104090000393C34601934FF0000A2BDBDFF8248122
:1040A0005D4643A3D3E9002300260027002403E054
:1040B000544510DCF8E80223F5E80201FCF7C0FAE9
:1040C00002460B4630463946FCF700F90134A1455B
:1040D00006460F46ECDA019B029AE3E80267924536
:1040E0000193ABF1080B0AF1010306D0B9F1000FFF
:1040F0009A46D3DA00260027EDE7A29BDDF8089068
:10410000032B2BD8DFE813F0F100E000E0006200A1
:1041100000252C4623462A46DDE94801FCF7D4F861
:10412000049B002B40F03F8123460B9C2A46B9F1AB
:10413000000FC4E900230CDD48AD0124F5E902239A
:104140000134FCF7C3F8A145F8DA049B0BB101F187
:1041500000410B460B990246C1E90223079B03F07D
:1041600007000DF5197DBDE8F08F019B5A1E0CABC1
:104170000CA953F82230C3F3160341F82230E5E6C8
:10418000019B002B08F10108C8BF02253FF7BCAE18
:1041900032463B4600200849FCF796F802250646C1
:1041A0000F461FE600216FF0170307913EE500BFA1
:1041B00000000040FB21F93F0000F03F0000E03F1D
:1041C0000000703EA84C000848AB0393B9F1000F03
:1041D00040F32381039A4FEAC90302EB0308D8E9AD
:1041E00000AB019358E9026752465B4630463946B8
:1041F000FCF76CF804460D4602460B46304639463D
:10420000FCF762F85B465246FCF760F8C8E900012B
:1042100068E90245039B4345A246AB46E2D1B9F1AA
:10422000010F40F3FA80019B039A1344D3E900ABDA
:104230001C461D4655E9028952465B4640464946A2
:10424000FCF744F806460F4602460B4640464946F0
:10425000FCF73AF85B465246FCF738F8C5E900012E
:1042600065E902674AABAB42B246BB46E2D103996D
:10427000002308341A4601F110051846114674E966
:104280000223FCF723F8A54203460A46F5D1039919
:10429000D1E9008CD1E902E90499002940F08D8030
:1042A00018460B9B4646744667464D461146C3E981
:1042B0000401C3E90067C3E90245079B03F0070057
:1042C0000DF5197DBDE8F08F069E039F0836002589
:1042D0003E442C462846214676E90223FBF7F6FFAA
:1042E000B74205460C46F5D114E7069C039D0834F9
:1042F00000222C4413461046194674E90223FBF7AA
:10430000E5FFA54202460B46F5D1049909B103F138
:10431000004319460B9B1046C3E90001079B03F0BD
:1043200007000DF5197DBDE8F08F0024FCE5394646
:10433000069F04957A423046CDF81C8000F0C0F903
:104340000022374B04460D46FCF706FC08B300225A
:10435000344B20462946FCF773F9FCF711FC06465E
:10436000FCF700F900222E4BFCF76AF902460B46D7
:1043700020462946FBF7A8FFFCF702FC019B0CAA8C
:1043800003F10109183742F82300069742F8296023
:1043900046E620462946FCF7F3FB019B0CAA99460A
:1043A00042F823003CE60B9B04F10044B9F1000FF6
:1043B000C3E900543FF7C0AEC9E60B9C2361079BDD
:1043C000C4F800800CF1004009F1004102F1004204
:1043D000606003F00700E1606261C4F808E00DF579
:1043E000197DBDE8F08FA6F108030493089BDB005C
:1043F000019372E4A29B032B3FF6B0AE01A252F8E8
:1044000023F000BF154400081141000811410008C5
:10441000C94100080022134677E700231A4636E711
:10442000000070410000703E00000000000000002D
:104430002DE9F04F21F00046B6F1795F85B00C46CA
:1044400090469946054604DAFCF79AFB002800F0EE
:1044500085802A46234628462146FCF7F1F8064681
:104460000F4602460B4628462146FCF7E9F83EA3D4
:10447000D3E9002382468B4630463946FCF7E0F804
:104480003BA3D3E90023FBF71FFF32463B46FCF773
:10449000D7F839A3D3E90023FBF718FF32463B4690
:1044A000FCF7CEF836A3D3E90023FBF70DFF324625
:1044B0003B46FCF7C5F834A3D3E90023FBF706FF1E
:1044C0000E9BCDE900019BB30022334B4046494689
:1044D000FCF7B6F8DDE90023CDE902015046594664
:1044E000FCF7AEF802460B46DDE90201FBF7ECFEF5
:1044F00032463B46FCF7A4F842464B46FBF7E4FE47
:1045000023A3D3E9002306460F4650465946FCF73D
:1045100097F802460B4630463946FBF7D7FE02466F
:104520000B4628462146FBF7CFFE05B0BDE8F08FCD
:1045300002460B4630463946FCF782F814A3D3E90D
:104540000023FBF7C1FE52465B46FCF779F82A468A
:104550002346FBF7BBFE05B0BDE8F08F2846214699
:1045600005B0BDE8F08F00BF7CD5CF5A3AD9E53D04
:10457000EB9C2B8AE6E55A3E7DFEB157E31DC73E14
:10458000D561C119A0012A3FA6F810111111813F70
:10459000495555555555C53F0000E03F0000000006
:1045A00021F00043194670470000000000000000A1
:1045B000C1F30A522DE9F041A2F2FF36132E0B4649
:1045C0000D460446074631DC002E1FDB384A42FA0E
:1045D00006F808EA010202432DD033A3D3E90023F1
:1045E000FBF774FE00220023FCF7C0FA48B1002D4F
:1045F00004DA4FF4801343FA06F6354425EA080539
:1046000000273C4629462046BDE8F08126A3D3E991
:104610000023FBF75BFE00220023FCF7A7FA00282B
:10462000EFD0002D29DB00273D46EAE7332E06DDDB
:10463000B6F5806F1CD019462046BDE8F081A2F285
:1046400013424FF0FF3828FA02F818EA000FF2D0B0
:1046500015A3D3E90023FBF739FE00220023FCF762
:1046600085FA0028CDD0002D10DB27EA0807C8E71F
:104670000246FBF72BFE0446DEE725F000430D4A19
:104680001F43002F18BF15460027BAE7142E08D085
:104690000123C6F1340603FA06F6371928BFED18D0
:1046A000E3E70135E1E700BF9C7500883CE4377E15
:1046B000FFFF0F000000F0BF00000000000000003E
:1046C000F8B5C1F30A5304460D460E46174673BBB0
:1046D00021F000460346334328D0314B0022FBF73C
:1046E000AFFF304B9F4204460D461ADBC1F30A531D
:1046F0000E46363B3B4440F2FE72934220DC002BD8
:104700003DDC13F1350F2CDA4CF250339F4217DCAD
:1047100005F0004343F0D27141F4B731224841F033
:104720001F011BA3D3E90023FBF78AFFF8BD40F26A
:10473000FF729342DED102460B46FBF7C7FDF8BD80
:1047400005F0004343F0FC4141F45F1141F4105186
:1047500011A3D3E90023154841F03C01FBF770FF9A
:10476000F8BD26F0FF4626F4E006363346EA035548
:104770002046294600220E4BFBF762FFF8BD26F0CB
:10478000FF4626F4E00646EA035520462946F8BDD2
:1047900059F3F8C21F6EA5019C7500883CE4377E72
:1047A00000005043B03CFFFF59F3F8C29C750088ED
:1047B0000000903C0000000000000000000000002D
:1047C00070B5C1F30A56A6F2FF34132C0D4612DC65
:1047D000002C09DB1649002241FA04F425EA0403FF
:1047E00014462046194670BD002201F000431446CD
:1047F0002046194670BD332C024607DDB4F5806FA4
:104800000B4610D004462046194670BD4FF0FF33CA
:10481000A6F2134623FA06F622EA060004462B46C1
:104820002046194670BDFBF751FD04460B46D8E7FC
:10483000FFFF0F000000000000000000000000006B
:104840000028B8BF40427047000000000000000090
:10485000090C06000000000000000000000000003D
:10486000080A050000000000000000000000000031
:104870002564203A202564200D0A000025642000CC
:10488000106002400860024000000B0028600240F7
:104890000860024006010C004060024008600240CF
:1048A00010020D00586002400860024016030E001E
:1048B000706002400C60024000040F0088600240FB
:1048C0000C60024006051000A06002400C6002402F
:1048D00010061100B86002400C60024016072F005D
:1048E0001064024008640240000838002864024056
:1048F000086402400609390040640240086402402E
:10490000100A3A005864024008640240160B3B004B
:10491000706402400C640240000C3C008864024059
:104920000C640240060D4400A06402400C64024086
:10493000100E4500B86402400C640240160F460099
:104940006D61696E00168118040244080C10141879
:10495000001C1D1E00000000000000000000000000
:10496000286E756C6C29000000000000000000003B
:104970000000000040420F00C10E000800000000CF
:104980000000000000000000000000000000000027
:104990000000000040420F0000000000C10E0008AF
:1049A0000000000001000000000000000000000006
:1049B0000000000040420F0000000000C10E00088F
:1049C00000000000000000000000000000000000E7
:1049D00000000100000000000000000000000000D6
:1049E0000000004000000000000000000000000087
:1049F00000000000060000000000000000000000B1
:104A000000000100000000000000000000000000A5
:104A10000000004000000000000000000000000056
:104A2000000000000700000000000000000000007F
:104A300069646C65000000000000000000000000D8
:104A40000A00000064000000E803000010270000D6
:104A5000A086010040420F008096980000E1F50515
:104A600000CA9A3B000000000000000000000000A7
:104A7000244D0008A00F0020A00F0020A00F002050
:104A8000244D0008000000000000000000000000AD
:104A9000244D00080000000000000000000000009D
:104AA000244D00080000000000000000000000008D
:104AB000244D00080000000000000000000000007D
:104AC000244D00080000000000000000000000006D
:104AD000244D00080000000000000000000000005D
:104AE000244D00080000000000000000000000004D
:104AF000511F000861200008C11F00081122000892
:104B0000B11F000801220008411F000851200008C1
:104B1000FB21F93FFB2109407CD91240FB211940C0
:104B20007A6A1F407CD92240BBFD2540FB212940E9
:104B30003A462C407A6A2F405C4731407CD932405B
:104B40009C6B3440BBFD3540DB8F3740FB21394047
:104B50001BB43A403A463C405AD83D407A6A3F40FE
:104B60004C7E40405C4741406C1042407CD9424002
:104B70008CA243409C6B4440AC344540BBFD454057
:104B8000CBC64640DB8F4740EB584840FB214940AD
:104B900083F9A200444E6E00FC291500D15727006E
:104BA000DD34F50062DBC0003C9995004190430084
:104BB0006351FE00BBDEAB00B761C5003A6E240056
:104BC000D24D42004906E00009EA2E001C92D100B5
:104BD000EB1DFE0029B11C00E83EA700F535820060
:104BE00044BB2E009CE98400B4267000417E5F0027
:104BF000D6913900538339009CF439008B5F8400CF
:104C000028F9BD00F81F3B00DEFF97000F98050054
:104C1000112FEF000A5A8B006D1F6D00CF7E3600FA
:104C200009CB2700464FB7009E663F002DEA5F0084
:104C3000BA277500E5EBC7003D7BF100F7390700A7
:104C400092528A00FB6BEA001FB15F00085D8D0085
:104C5000300356007BFC4600F0AB6B0020BCCF005D
:104C600036F49A00E3A91D005E619100081BE6007E
:104C700085996500A0145F008D40680080D8FF0012
:104C800027734D0006063100CA561500C9A87300E7
:104C90007BE260006B8CC0000000000000000000A0
:104CA00000000040FB21F93F000000002D44743E4D
:104CB000000000809846F83C0000006051CC783B32
:104CC00000000080831BF0390000004020257A3866
:104CD000000000802282E336000000001DF36935E9
:104CE00002000000030000000400000006000000B5
:104CF000006CDC0200080000000000000100000061
:104D000000000000010000000000000001000000A1
:104D10000000000000000000000000000000000093
:044D2000000000008F
:04000005080001C12D
:00000001FF
