:020000040800F2
:1000000000040020C1010008A1180008A118000880
:10001000A1180008A1180008A1180008A1180008DC
:10002000A1180008A1180008A1180008210E000856
:10003000A1180008A1180008A1180008A1180008BC
:10004000A1180008A1180008A1180008A1180008AC
:10005000A1180008A1180008A1180008A11800089C
:10006000A1180008A1180008A1180008A11800088C
:10007000A1180008A1180008A1180008A11800087C
:10008000A1180008A1180008A1180008A11800086C
:10009000A1180008A1180008A1180008A11800085C
:1000A000A118000821030008A11800089103000806
:1000B0009112000871120008B1120008A11800087E
:1000C000A1180008A1180008A1180008A11800082C
:1000D000A11800088105000861050008A1180008A2
:1000E000A1180008A1180008A1180008A11800080C
:1000F000A1180008A1180008A1180008A1180008FC
:10010000A1180008A118000851120008A118000841
:10011000A1180008A1180008A1180008A1180008DB
:10012000A1180008A1180008A1180008A1180008CB
:10013000A1180008A1180008A1180008A1180008BB
:10014000A1180008A1180008A1180008A1180008AB
:10015000A1180008A1180008A1180008A11800089B
:10016000A1180008A1180008A1180008A11800088B
:10017000A1180008A1180008A1180008A11800087B
:10018000A1180008A1180008A1180008A11800086B
:10019000A1180008A1180008A1180008A11800085B
:1001A000A1180008A1180008A1180008A11800084B
:1001B000A1180008A1180008A1180008A11800083B
:1001C00072B6234880F30988022080F31488BFF3B5
:1001D0006F8F01F0B5FB00F083FD4FF055301D49E6
:1001E0001D4A91423CBF41F8040BFAE71B49184AEB
:1001F00091423CBF41F8040BFAE71949194A1A4BDE
:100200009A423EBF51F8040B42F8040BF8E7002075
:100210001649174A91423CBF41F8040BFAE701F036
:1002200047FB01F085FB134C134DAC4203DA54F845
:10023000041B8847F9E700F0B3F9104C104DAC42AD
:1002400003DA54F8041B8847F9E701F069BB0000A2
:10025000000800200000002000040020000400200E
:100260004020000800080020340800203808002042
:100270002C0B0020C0010008C0010008C0010008CC
:10028000C0010008000000000000000000000000A5
:100290002DE9F04FC1F80CD0C3689D46BDE8F08F42
:1002A000002383F311882846A047002001F0D0FAEC
:1002B00001F07EF800DFFEE7000000000000000013
:1002C000024AD36843F08003D360704700100140B6
:1002D000024AD36843F08003D36070470044004073
:1002E00038B5074D074C0849284601F0B9FB074BC4
:1002F00007496B67204601F0B3FB064B636738BDC7
:100300008C0A002038080020C102000800100140BB
:10031000D10200080044004000000000000000007E
:1003200038B5174DAB691C69DA681440E2B2D243A4
:100330001A61A30704D56B681B690BB1284698475F
:10034000600704D56B689B690BB10D48984721077E
:1003500004D56B681B6A0BB109489847E20604D5BF
:100360006B689B6A0BB106489847E30704D56B6836
:100370009B680BB102489847BDE8384000F038BF91
:10038000700A0020000000000000000000000000D3
:10039000FFF7C6BF000000000000000000000000E2
:1003A0002DE9F047466FD6F80CA03368DA0582B025
:1003B00005469CB200F18280202383F3118814F05B
:1003C0002F0F4AD005F1040805F10C074FF0000982
:1003D00007E0A00673681DD43468A4B214F02F0F90
:1003E0003BD02307F5D014F0080F0CBF002180216B
:1003F000E00748BF41F02001A20748BF41F040019B
:10040000630748BF41F48071404601F0F1F9A0064E
:100410007368E1D56A69002A3ED02A6A696A8A420D
:1004200044D06969501C01312862696113702A6ADD
:10043000EB699A4201D3AB692B62EB689F42CBD048
:100440001A68EA6018465760C3F8209001F0B8F9BE
:100450003468A4B214F02F0FC3D1002383F31188A2
:100460001AF0800F01D0220637D4630611D520235D
:1004700083F311886A6CAB6C9A4254D04FF6BF7309
:100480000AEA03036FF04002F3600023326083F353
:10049000118802B0BDE8F08704214046019301F0C5
:1004A000A7F92A6A696A019B8A42BAD16969002957
:1004B000B7D08021404601F09BF98DE7202383F3DC
:1004C00011884FF40071043001F092F96FF48073D9
:1004D0003360002383F311886EE7202383F31188B0
:1004E000AB6C6A6C9A4205F1300724D0AA6B296C78
:1004F000581C0132AA63A864884293F8008001D393
:10050000EB6BAB642B6B9F4207D01A682A63002108
:1005100057601846196201F053F9C6F804800023A9
:1005200083F31188A1E7AB6B002BA7D0281D102106
:1005300001F05EF9A2E7AA6B002AD7D00821281D96
:1005400001F056F94FF63F730AEA030343F0400304
:10055000F360E4E70000000000000000000000007D
:1005600008B50348FFF71CFFBDE8084000F040BE97
:10057000380800200000000000000000000000001B
:1005800008B50348FFF70CFFBDE8084000F030BE97
:100590008C0A0020000000000000000000000000A5
:1005A000B84AB94BB94C04212DE9804811834FF06A
:1005B000FF310022186919611A61586959615A613D
:1005C000186A60F0805018621A62586A59625A625A
:1005D000196C41F080511964216841F480712160E7
:1005E000196F01F44071B1F5007F89B003D04FF469
:1005F000803119671A67A54EDFF88C927368A14D98
:10060000DFF8E0C2A24CDFF8E0E2A248A249A34A28
:1006100023F400737360D9F8303043F09F03C9F8B6
:100620003030D9F850709E4B47F09F070026C9F82C
:1006300050706FF48A676E60AF604FF6DF77C5F871
:100640000CC06F614FF4EE4C4FF42A27C5F820C060
:100650004FF0FF386F624FF0800AC5F800E04FF0AE
:1006600055374FF6FF756660C4F80880E76065612E
:1006700026626662C4F800A08A4C4660C0F8088012
:10068000C460456106624662066087484E60874CDA
:10069000C1F80880CF604D610E624E620E605660F8
:1006A000C2F80880D76055611662566216605E60B7
:1006B000C3F80880D8605D611E625E621E6000F053
:1006C000F7FC012704227A4B2274A3616660E6607E
:1006D0002770FFF705FED9F84020DFF810E2754BD0
:1006E000754942F00402C9F84020DEF80800734A58
:1006F00040F00400CEF8080042F27F5098624FF0BC
:100700008040DD629E615E63DE605E605F611F60EF
:1007100081F81EA3C1F8800108609660D168684B1B
:1007200068484FF6FF052940AEF54C3EAEF5047E15
:100730000B43D360DEF80C30634D43F08073CEF88A
:100740000C3003686D603B430360102105F11C030E
:100750004FF02009D17702A882F822900022EB61A5
:100760002B620023AE602D602D616D61A5F82480A1
:10077000EE84CDE90623CDF808802E670396049613
:10078000059601F065F902A800F0EAFD4F4BD5F897
:1007900014E00499296703F1100C05F12C01C3F84A
:1007A00010C0C3F814C04FF0400CC5F840E09E6183
:1007B000C5F834C0C5F868C085F849606E662E6615
:1007C00085F84A706E64ED634148CEF81010414AD6
:1007D0006961A96105F15001DFF814C1DFF814E186
:1007E00029653D499E6020F0070022F00702DE6087
:1007F000196005F1540385F848706B65AB65CCF85A
:100800000000CEF8002086F3118862B6AB69334A47
:100810009A6189F311886B693148DFF8DCE0C5F82B
:100820008070022105F1780205F5967CC5F8B47058
:1008300085F8967085F89560C5F8AC60C5F84C01F0
:1008400085F89410C5F88C30C5F83061C5F8B060F3
:10085000C5F89060C5F88850C5F884C0C5F82CE18B
:100860001A61AB69C5F8986099686A6105F1A000E2
:1008700005F19C07C5F89C70C5F8A000C5F8A40058
:100880003CE000BF00000240003802400070004021
:100890000004024000080240000C02400010024028
:1008A000001C02405555555150555555700A0020B1
:1008B000000001400008004000E100E000ED00E021
:1008C0000003FA05001000E0B0080020000A002034
:1008D000370B002000000220410E0008F01E000827
:1008E000A102000805511564A004802A002004E03C
:1008F000240A0020200A0020F10E0008002900F040
:10090000908185F894602B461B6899680029FBD17B
:10091000AB675868E86702605A6081F31188C24B80
:10092000C5F89030FFF7DCFC202282F31188BF4924
:100930000B7A012B0BD1BE4DBE4B686CC02640F02C
:100940001000686483F82563C3F884215A604A6FF5
:10095000B94B9A4200F0B68103F580639A4200F0E9
:10096000B1814FF4D07393604025012042F22C16E0
:100970000023156150610225D66013601668526825
:100980000D7283F311880421AC4AA2612070636068
:10099000E3602174202282F31188A94922784F68EC
:1009A00061608242A76000F06981A269606913609A
:1009B00053639363D36313645362CB680D68B0FBD6
:1009C000F5F003F00F03CD6A013F0138012B90626F
:1009D000D762556003D0022B0CBF03230023486964
:1009E00000F00F00012803D0022803D143F02003B8
:1009F00043F01003C86900F00F00012803D002285B
:100A000003D143F4007343F48073486A00F00F008D
:100A1000012803D0022803D143F4005343F4805348
:100A2000096B1362002521F0FF0301274FF40040FA
:100A300085214FF0020957611561D3605064116040
:100A4000E56084F8009085F3118800F031FB2026E2
:100A500086F31188DFF810B27A4BCBF80430584691
:100A600000F086FA8BF8009085F3118886F31188E0
:100A7000DFF8F8A1744BCAF80430504600F078FA59
:100A80008AF8009085F3118886F31188DFF8E081F9
:100A90006E4BC8F80430404600F06AFA88F80090BF
:100AA00085F31188584600F08BFB504600F088FB18
:100AB000404600F085FB86F31188584600F038FA6E
:100AC00085F3118886F31188504600F031FA85F3DA
:100AD000118886F31188404600F02AFA85F31188C0
:100AE00040F282324FF400715948DFF888B1594D15
:100AF000DFF8848100F0FCFA40F282324FF480612A
:100B0000534800F0F5FA3A464FF48061524800F03D
:100B1000EFFA3A464FF480514F4800F0E9FA82224A
:100B20004FF480714A4800F0E3FA3A464FF480717E
:100B3000494800F0DDFA3A464FF40071464800F0AB
:100B4000D7FA39468222454800F0D2FA3A46314671
:100B5000414800F0CDFA3A4640213F4800F0C8FA3B
:100B6000494682223D4800F0C3FA3946822238487D
:100B70003B4F00F0BDFA49464FF481723448DFF82C
:100B8000D89000F0B5FA4FF481721021334800F08C
:100B9000AFFA4FF4805A13E086F31188322108200F
:100BA00000F026FC002383F31188B8F90410B8F98B
:100BB0000230B8F900201D4800912A4900F080FF5A
:100BC0004FF48063A9F818A0A9F81A30B5F90020ED
:100BD0004FF47A73CBF80030002ADDD186F3118808
:100BE000E168A06941F00101E160436382F311888B
:100BF00038782B8020B1CFE7B5F90030002BCBD06F
:100C000001331BB22B8086F31188E268A16942F0A0
:100C10000102E2604B6380F311883B78002BEBD03C
:100C2000BAE71977FEE700BF701F00088C0A0020A2
:100C30000038024000E100E00010014000000140E7
:100C400000080020101F0008301F0008501F000877
:100C500000000240080B002000080240000402408F
:100C6000040B0020781F0008280A0020580A0020E2
:100C7000400A0020100B00201C0B0020134EA2691C
:100C8000706C134D40F001007064D6F824E01148F8
:100C900060614EF0010EC6F824E0736270234FF0DD
:100CA000007685F81933C5F880612E6085F81B330E
:100CB0004FF0006646F66803C5F880612E609361C8
:100CC000D3617AE640F2413393604DE6003802404A
:100CD00000E100E000D8B8050000000000000000BE
:100CE000264A274B4FF080504FF440411064196062
:100CF000136843F00103136013689807FCD59368E9
:100D00001E4923F003039360936893608B6813F08C
:100D10000C03FBD10868194A00F0F90008608B60E9
:100D20004B6F43F001034B67536F9907FCD5154B8D
:100D300053601368124943F0807313604B685A0480
:100D4000FCD50E490B689B01FCD50F4B0F4A8A60FE
:100D500040F203721A608B68084A43F002038B600A
:100D6000936803F00C03082BFAD1536C43F48043CF
:100D70005364536E43F48043536670470038024017
:100D80000070004010600108003C024000108838EC
:100D900038B5C36841681C69DA681440E2B2D243CE
:100DA0001A610B7D05464BB963072BD50378042BDD
:100DB00025D0A10709D4E4070BD438BDA20712D56A
:100DC0000378042B0CD06307F5D50423E4072B70BC
:100DD000F3D56B6828461B69984703232B7038BDF1
:100DE0008B68C3B198476307E5D52B78042BECD10A
:100DF0006968CB68002BE8D028469847E5E78B6800
:100E000033B19847A107D6D52B78042BDDD1EFE776
:100E1000A007EED4CFE76207EBD4CCE700000000D8
:100E200080B400AFEFF30983203383F309880023F4
:100E300083F31188BD4680BC704700BF00000000EE
:100E400010B4202383F31188094C0A4B22681968D7
:100E5000C31D23F00703891A8B429DBF9B18236093
:100E600010460020002383F3118810BC704700BF98
:100E7000240A0020200A00200000000000000000DA
:100E8000202383F31188037F072B0ED8DFE803F0BC
:100E9000270D0D2308040D08026A9368013393603F
:100EA00090E80C001A600268536010B400224FF002
:100EB000FF3481680C4B046202771B689A688A428F
:100EC000FBD25A684260036000211060586081F3D1
:100ED000118810BC7047036A00221A60E5E70023FE
:100EE00083F31188704700BFB008002000000000A5
:100EF000FEE700BF0000000000000000000000004E
:100F0000074B99691A6810B40877106818600124B3
:100F100043601477104610BC9A61FFF7B9B900BF5F
:100F2000B0080020000000000000000000000000E9
:100F3000C268D36810B413F0FF040CD14168146187
:100F4000087D50B1886870B143F00603096909B1A2
:100F500043F00103D36010BC704788680028F3D1C8
:100F600043F00203F2E743F00403EFE70000000060
:100F70000378012BF0B43CD0C36800221A605A6396
:100F80009A635A62416882688C694D68B2FBF5F2D7
:100F900024F0FF04013A00264FF6FF751E61DC6065
:100FA0009A62DD620A7D72B9542240F201249C618A
:100FB0009A600A78D2B113221A6203F138023433EC
:100FC000026143610DE064224FF481749C619A6078
:100FD0000A7842B131221A6203F1340238330261D5
:100FE0004361F0BC704713221A62F5E731221A629E
:100FF000E3E7284B984207D0274B98421BD0274B5A
:1010000098422FD0C368BDE7254B264A196C264D60
:1010100041F001011964196A4FF08054002741F032
:101020000101702619621F6282F81C63C2F88041B8
:1010300014608560E0E71A4B1A4A196C1A4D41F0AA
:1010400002011964196A4FF00054002741F00201AF
:10105000702619621F6282F81D63C2F88041146015
:101060008560CCE70E4B0F4A196C0F4C41F008011C
:101070001964196A002641F00801702519621E6280
:101080004FF4802182F83253C368C2F88411516052
:10109000846077E7280A0020400A0020580A0020D0
:1010A0000038024000E100E000D8B8050000000070
:1010B00070B40A480A4B0B4C0B4A0C4DC26001211C
:1010C00000224FF0804601701970E6602170626066
:1010D000DD6042605A6070BC704700BF400A00206B
:1010E000580A0020280A002000040040000C00409C
:1010F0002DE9F04F02F0030AC2F38008C2F3C10CDD
:10110000C2F3411ED146C2F3C31200274FF00F0BAA
:101110000FE0036A23EA040425430562490839D035
:101120004FEA48084FEA8C0C4FEA8E0E4FEA8909C5
:101130000137CB07F2D543680124BC4023EA0403FE
:1011400043EA0803436003257B00846805FA03F340
:10115000DB431C4044EA0C048460C56807F00704C4
:101160001D4045EA0E05A400BAF1020FC56002FA5F
:1011700004F50BFA04F40FD00668334043EA090380
:10118000072F0360C5D9436A23EA040425434908AD
:101190004562C5D1BDE8F08F072F0AD8066A26EA56
:1011A0000404254305620468234043EA09030360FD
:1011B000B4E7466A26EA040425434562F3E700BF24
:1011C00030B4202383F31188C3685A69002142F0A8
:1011D0000102052503245A6119611D60047081F321
:1011E000118830BC704700BF000000000000000004
:1011F000202383F31188114B5B6813F4006302D141
:1012000083F31188704780B400AFEFF309834FF088
:10121000807243F8042CA3F1200282F30988084A63
:10122000116892698968926891428CBF054A064AA2
:1012300043F8082CBD4680BC704700BF00ED00E0BD
:10124000B0080020B1020008B4020008000000004D
:1012500008B50348FFF79CFDBDE80840FFF7C8BF8D
:10126000580A0020000000000000000000000000FC
:1012700008B50348FFF78CFDBDE80840FFF7B8BF8D
:10128000400A0020000000000000000000000000F4
:1012900008B50348FFF77CFDBDE80840FFF7A8BF8D
:1012A000280A0020000000000000000000000000EC
:1012B0002DE9F843254C23699B0703D4BDE8F84387
:1012C000FFF796BF00272761202585F31188204E60
:1012D000606AB6F826E0F36980B2A0EB0E011A89C5
:1012E00089B2914206F11C081CD31968D3F80C90FE
:1012F00072444145F284C1F80480F161DF6008BFA7
:10130000E76087F311881869C84785F31188606A18
:10131000B6F826E0F36980B2A0EB0E011A8989B213
:101320008A42E2D9434509D07244121A92B2022A83
:101330002CBF8218821C054B92B25A63002383F3A0
:101340001188BDE8F843FFF753BF00BF0008004015
:10135000B0080020000000000000000000000000B5
:101360000E4B0F4A5B68C168F0B48768166F42681D
:10137000D0E90445DB1B9B1BE41845F100059342B3
:10138000026888BF436001319342C0E90445C160EF
:10139000836038BF0360F0BC704700BF001000E0FE
:1013A000B008002000000000000000000000000065
:1013B0000D4A106870B40368946913600126002513
:1013C000A1685A6006779061257700E01B689A68EB
:1013D0009142FBD35A6862602360214614605C60CE
:1013E00070BCFEF755BF00BFB00800200000000031
:1013F0002DE9F0414FF6FF73994286B059D04F4C1A
:10140000DFF840E14E4BDEF82420049325460746E2
:10141000A069059055F81C0F022938BF0221A84287
:1014200096B272D0B4F826C0A6EB0C0692B28B1915
:10143000A2EB0C029BB29342028935DB934240D36C
:10144000934205D900689B1A02899BB29A42F9D34C
:10145000426802920DF104080190C2F80080C0F8C1
:101460000480ADF80C300289D31A4FF6FF72038165
:10147000A2843846FFF744FD049B83B1E3694345EA
:1014800025D0029A019B1360019B0021AB425A6058
:10149000049104D01A89BDF80C100A441A81A3697A
:1014A000186A06B0BDE8F08100689B1A9BB20289F9
:1014B000C6E7224CFFF724FDA369186A06B0BDE811
:1014C000F0810CEB030189B2CEF83410B8E7019E2D
:1014D000E6610023AE42756004932CD01948E18C7C
:1014E000426A3389BDF80C5092B2511A2B449BB218
:1014F00089B28B423381D2D95B1A9BB2022B2CBFAB
:10150000D318931C9BB24363C9E78B190DF10408F0
:101510009BB200200222E68401950295ADF80C10E2
:10152000C4F81C80C4F82080CEF83430CEF8100007
:10153000CEF80C209DE7034AD360B0E7B008002046
:10154000810E0008000800400000000000000000BC
:1015500061B1084B9B6910B4186044685C60024636
:1015600023600420536010BCFFF742BF4FF0FF30F0
:10157000704700BFB008002000000000000000001D
:101580002DE9F04F83B004460D4616460193D0F87E
:101590001C804FF0200989F311880027BA46A36800
:1015A00005F1010B204603B36169A3684A1C013BA6
:1015B0006261A3602B780B7023696169994224BF33
:1015C000E3686361B8F1000F00D0C0478AF3118867
:1015D000013E07F1010712D089F31188A3685D4627
:1015E00005F1010B2046002BDED101990093204626
:1015F000FFF7AEFF009B0028D1D083F31188384657
:1016000003B0BDE8F08F00BF000000000000000044
:101610003030FFF7B5BF00BF000000000000000041
:1016200030304FF6FF73FFF7ABBF00BF0000000084
:10163000F8B504460F461646202383F3118803E0CD
:10164000FFF786FF002819DBA56831462046002DEC
:10165000F6D06269A368511C013B6161A3601770F9
:10166000236962699A4224BFE3686361E3690BB14D
:1016700020469847002080F31188F8BD85F3118833
:10168000F8BD00BF000000000000000000000000E6
:101690003030FFF7CDBF00BF0000000000000000A9
:1016A00030304FF6FF72FFF7C3BF00BF00000000ED
:1016B0002DE9F04F044683B0894693461D46D0F885
:1016C0001C80202787F3118800260197B246B8F1C5
:1016D000000F05D02046C04702E0FFF739FFE0B910
:1016E000A76829462046002FF7D0A269A368511C9D
:1016F000013BA161A360137809F8013B2369A2694A
:101700009A4224BFE368A3618AF311880136B34586
:1017100005D0019B83F31188D9E787F31188304600
:1017200003B0BDE8F08F00BF000000000000000023
:101730000C30FFF7BDBF00BF00000000000000003C
:101740000C304FF6FF73FFF7B3BF00BF000000007F
:1017500070B520230E46044683F31188C3692BB16C
:10176000984703E0FFF7F4FE002815DBA568314633
:101770002046002DF6D0A169A36825694A1C013BCB
:10178000AA42A360A26128BFE368087828BFA361CA
:10179000002383F3118870BD85F3118870BD00BFED
:1017A0000C30FFF7D5BF00BF0000000000000000B4
:1017B0000C304FF6FF71FFF7CBBF00BF00000000F9
:1017C00000228168074B10B4044602771B689A68B0
:1017D0008A42FBD25A6862602360204614605C60D3
:1017E00010BC7047B008002000000000000000009E
:1017F000F8B50468A04221D00D460746002602E055
:101800002468A7421AD0E3682B43E36015B122692C
:101810001342F5D06068A368416B027F0B430A2A2C
:1018200043630CD00B2AEBD1026A32EA0303E7D1FF
:101830000662FFF7C5FF2468A742E4D1F8BD026A3B
:101840001342DDD00662FFF7BBFFF4E700000000A3
:1018500038B52022034682F311880E4A9469606AE3
:10186000236204F12405854206D003686362FFF712
:10187000A7FF606AA842F8D1637F9B0704D1636920
:1018800022691A61226953610F20BDE83840FFF7D1
:1018900037BB00BFB00800200000000000000000BF
:1018A000FEE700BF00000000000000000000000094
:1018B000F0B5134F134D144C144B154907F1700E2E
:1018C00000269C4211D904391A4651F8040F42F8F7
:1018D000040B9442F9D8DA43144424F0030404348A
:1018E00023449D4203D943F8046B9D42FBD87745BE
:1018F00004D007F110013AC91037E2E7F0BD00BF8C
:10190000901F00082C0B00202C0B00202C0B00201B
:10191000742000080000000000000000000000002B
:10192000FEE700BF00000000000000000000000013
:10193000704700BF00000000000000000000000031
:10194000704700BF00000000000000000000000021
:10195000426933491268334B884202F10102B3FBFA
:10196000F2F31BB210D0304A90423DD02F4A904241
:1019700000D070472E4903EB4303DB004FF47A722B
:1019800092FBF3F38B8070472A4A2B492B48F0B423
:101990002B4E15682B4C2C4F25804FF4E76213FB20
:1019A000026281FB02611144D217C2EBA12212B282
:1019B0001F4EB0F90010A180628095424FF00104E3
:1019C0003C7033801ADD214409B20180202383F367
:1019D00011881E4BDA68986922434163DA6000235C
:1019E00083F31188F0BC7047114903EB4303DA001D
:1019F0004FF47A7393FBF2F34B807047013909B2CD
:101A00000180202383F31188104BDA68986942F033
:101A100001024163DA60002383F31188E2E700BF2B
:101A2000280A002040420F00580A0020400A0020E7
:101A3000240B0020100B00205744419D080B002070
:101A400080B2FBFF1C0B0020040B0020700A00205A
:101A5000014B5B6883607047001000E000000000ED
:101A6000F0B50346134A43F8042B002500F1540255
:101A700000F10C044FF0010E102700F174064360D2
:101A8000C16400F1640300F130014561C06200658A
:101A900080F808E0856287630664C460046182613F
:101AA00042620262C361C36383644364016341634E
:101AB000F0BD00BF20200008000000000000000072
:101AC0000EB42DE9F04F86B010AB704F02939A46DA
:101AD0006F4D00237E1E009373782D2B04BFB71C1F
:101AE0004FF0010C3A7818BF4FF0000C302A03BFBA
:101AF0007A7801374FF030084FF02008791C002425
:101B000007E09AF800300AF1040A11F8012B03EB00
:101B10004004A2F13003DBB2092B0E4604EB840033
:101B2000F3D92A2AEDD02E2A4FF0000145D002F039
:101B3000DF034C2B50D0A2F14400342800F2538133
:101B4000DFE810F021015101510151015101210142
:101B500051015101510151015101910151015101B5
:101B60005101510151016201510151019401510191
:101B700051015101510151015101510151015101D5
:101B800051010A012101510151015101510121016C
:101B90005101510151015101510191015101510175
:101BA00051018F00510162015101510194019AF8D4
:101BB00000300AF1040A03EB400116F8012BA2F1F0
:101BC0003003DBB2092B01EB8100F4D92A2AEED0D5
:101BD00002F0DF034C2BAED196F80090B9F1000F64
:101BE00003D04A46013696F80090A2F14403342B04
:101BF00000F2FB80DFE813F0C900F900F900F900FA
:101C0000F900C900F900F900F900F900F9003D01F7
:101C1000F900F900F900F900F9004301F900F900B1
:101C20004001F900F900F900F900F900F900F900A4
:101C3000F900F900F900B200C900F900F900F90053
:101C4000F900C900F900F900F900F900F9003D01B7
:101C5000F900F900F9003700F9004301F900F90033
:101C6000400196F80090DAF800700AF1040A002F9B
:101C700000F02C813B78002940F00481002B00F01B
:101C8000068147F6FE733A4606E000BF791F00085A
:101C90008C0A0020013B03D412F8011F0029F9D15E
:101CA000D21B531EA41A01934FF0200864D4BCF138
:101CB000000F40F0A480C4F1000B002C00F09E80C7
:101CC00039782D2900F0E9802B6841469B68284629
:101CD00098471BF1010BF7D1009B23440093019B14
:101CE000002BA8BF5C464CDBDDF804B02B6817F86E
:101CF000011B9B680BF1FF3B28469847BBF1FF3F58
:101D0000F4D1009B019A01331A440092002C38D080
:101D100027462B6841469B6828469847013FF8D1E3
:101D2000009B1C44A41B4B4619466B483219771C78
:101D300063B1252B60D02B689B6898473B78664839
:101D40003E4619463219771C002BF2D1104606B0D8
:101D5000BDE8F04F03B0704796F80090DAF8003015
:101D600006AF0AF1040A07F80C3D00230193012293
:101D70004FF02008A41A9AD5019B002BA8BF00247D
:101D8000B2DA009CCEE796F80090DAF8001000294D
:101D90000AF1040AC0F291800DF10C0B5A4602F1CF
:101DA0000B03019318464D4BA3FB0173DB0803EBB8
:101DB000830E1F46A1EB4E033033DBB200F8013D2A
:101DC0003946002FEFD10199091A114401E010F8AA
:101DD000013F02F8013B8A42F9D1A2EB0B02531EEC
:101DE0005F460193C6E796F8009006AF002307F818
:101DF0000C2D01930122BDE700926DE65C46019B2C
:101E0000002BBFF671AF81E74FF00A0E96F80090F5
:101E1000DAF800200DF117010AF1040A00E001468A
:101E2000B2FBFEF70EFB172202F13003392BC8BFBD
:101E300002F13703DBB201F8013C481E3A46002F9D
:101E4000EDD10DF117020DF10C0B121A5F46104483
:101E500001E011F8013B07F8013B8842F9D1531E1C
:101E60005F46019386E74FF0080ECFE74FF0100E64
:101E7000CCE74FF0080ECBE74FF0100EC8E74FF05D
:101E80000A0EC5E71BB14B1E00297FF4FCAE4FF0D4
:101E9000FF3301934FF0200809E7B8F1300F7FF4CA
:101EA00013AF2A680C4892689047009B0133009357
:101EB000019B013B0137019306E72D2349428DF831
:101EC0000C300DF10D020DF10C0B68E7044F0029E9
:101ED0003FF4D7AED7E700BF8C0A0020CDCCCCCCE6
:101EE00010200008000000000000000000000000BA
:101EF0006D61696E00168118040244080C101418F4
:101F0000001C1D1E0000000000000000000000007A
:101F10000000000040420F005119000800000000BE
:101F200000000000000000000000000000000000B1
:101F30000000000040420F0000000000511900089E
:101F40000000000001000000000000000000000090
:101F50000000000040420F0000000000511900087E
:101F60000000000000000000000000000000000071
:101F700069646C65000000002564202564202564E8
:101F8000200D0A000000000000000000000000001A
:101F9000742000082C0B00202C0B00202C0B0020A0
:101FA0007420000800000000000000000000000095
:101FB0007420000800000000000000000000000085
:101FC0007420000800000000000000000000000075
:101FD0007420000800000000000000000000000065
:101FE0007420000800000000000000000000000055
:101FF0007420000800000000000000000000000045
:102000007420000800000000000000000000000034
:10201000286E756C6C2900000000000000000000B4
:102020002116000841170008A1160008B117000882
:1020300091160008A11700081116000831170008B2
:10204000006CDC020008000000000000010000003D
:10205000000000000100000000000000010000007E
:102060000000000000000000000000000000000070
:04207000000000006C
:04000005080001C12D
:00000001FF
