:020000040800F2
:1000000000040020C1010008411000084110000850
:10001000411000084110000841100008411000087C
:100020004110000841100008411000087103000849
:10003000411000084110000841100008411000085C
:10004000411000084110000841100008411000084C
:10005000411000084110000841100008411000083C
:10006000411000084110000841100008411000082C
:10007000411000084110000841100008411000081C
:10008000411000084110000841100008411000080C
:1000900041100008411000084110000841100008FC
:1000A00041100008010A000841100008710A000808
:1000B000C10A0008A10A0008E10A0008411000086E
:1000C00041100008411000084110000841100008CC
:1000D00041100008511100083111000841100008BA
:1000E00041100008411000084110000841100008AC
:1000F000411000084110000841100008411000089C
:100100004110000841100008810A00084110000851
:10011000411000084110000841100008411000087B
:10012000411000084110000841100008411000086B
:10013000411000084110000841100008411000085B
:10014000411000084110000841100008411000084B
:10015000411000084110000841100008411000083B
:10016000411000084110000841100008411000082B
:10017000411000084110000841100008411000081B
:10018000411000084110000841100008411000080B
:1001900041100008411000084110000841100008FB
:1001A00041100008411000084110000841100008EB
:1001B00041100008411000084110000841100008DB
:1001C00072B6234880F30988022080F31488BFF3B5
:1001D0006F8F00F085FF01F06BFB4FF055301D492C
:1001E0001D4A91423CBF41F8040BFAE71B49184AEB
:1001F00091423CBF41F8040BFAE71949194A1A4BDE
:100200009A423EBF51F8040B42F8040BF8E7002075
:100210001649174A91423CBF41F8040BFAE700F037
:1002200017FF00F055FF134C134DAC4203DA54F89E
:10023000041B8847F9E700F09BFF104C104DAC42BF
:1002400003DA54F8041B8847F9E700F039BF0000CF
:10025000000800200000002000040020000400200E
:10026000A01F0008000800203408002038080020E3
:10027000100B0020C0010008C0010008C0010008E8
:10028000C0010008000000000000000000000000A5
:100290002DE9F04FC1F80CD0C3689D46BDE8F08F42
:1002A000002383F311882846A047002000F098FC23
:1002B00000F0BEFC00DFFEE70000000000000000D0
:1002C000024AD36843F08003D36070470044004083
:1002D000024AD36843F08003D360704700100140A6
:1002E00038B5C36841681C69DA681440E2B2D24389
:1002F0001A610B7D05464BB963072BD50378042B98
:1003000025D0A10709D4E4070BD438BDA20712D524
:100310000378042B0CD06307F5D50423E4072B7076
:10032000F3D56B6828461B69984703232B7038BDAB
:100330008B68C3B198476307E5D52B78042BECD1C4
:100340006968CB68002BE8D028469847E5E78B68BA
:1003500033B19847A107D6D52B78042BDDD1EFE731
:10036000A007EED4CFE76207EBD4CCE70000000093
:1003700080B400AFEFF30983203383F309880023AF
:1003800083F31188BD4680BC704700BF00000000A9
:1003900010B4202383F31188094C0A4B2268196892
:1003A000C31D23F00703891A8B429DBF9B1823604E
:1003B00010460020002383F3118810BC704700BF53
:1003C000440A0020400A0020000000000000000055
:1003D000202383F31188037F072B0ED8DFE803F077
:1003E000270D0D2308040D08026A936801339360FA
:1003F00090E80C001A600268536010B400224FF0BD
:10040000FF3481680C4B046202771B689A688A4249
:10041000FBD25A684260036000211060586081F38B
:10042000118810BC7047036A00221A60E5E70023B8
:1004300083F31188704700BFD0080020000000003F
:1004400000228168074B10B4044602771B689A6843
:100450008A42FBD25A6862602360204614605C6066
:1004600010BC7047D0080020000000000000000011
:10047000F8B50468A04221D00D460746002602E0E8
:100480002468A7421AD0E3682B43E36015B12269C0
:100490001342F5D06068A368416B027F0B430A2AC0
:1004A00043630CD00B2AEBD1026A32EA0303E7D193
:1004B0000662FFF7C5FF2468A742E4D1F8BD026ACF
:1004C0001342DDD00662FFF7BBFFF4E70000000037
:1004D000FEE700BF00000000000000000000000078
:1004E000074B99691A6810B40877106818600124DE
:1004F00043601477104610BC9A61FFF7C9BE00BF75
:10050000D0080020000000000000000000000000F3
:100510002DE9F047466FD6F80CA03368DA0582B0B3
:1005200005469CB200F18280202383F3118814F0E9
:100530002F0F4AD005F1040805F10C074FF0000910
:1005400007E0A00673681DD43468A4B214F02F0F1E
:100550003BD02307F5D014F0080F0CBF00218021F9
:10056000E00748BF41F02001A20748BF41F0400129
:10057000630748BF41F480714046FFF779FFA0064A
:100580007368E1D56A69002A3ED02A6A696A8A429C
:1005900044D06969501C01312862696113702A6A6C
:1005A000EB699A4201D3AB692B62EB689F42CBD0D7
:1005B0001A68EA6018465760C3F82090FFF740FFBA
:1005C0003468A4B214F02F0FC3D1002383F3118831
:1005D0001AF0800F01D0220637D4630611D52023EC
:1005E00083F311886A6CAB6C9A4254D04FF6BF7398
:1005F0000AEA03036FF04002F3600023326083F3E2
:10060000118802B0BDE8F087042140460193FFF74E
:100610002FFF2A6A696A019B8A42BAD16969002957
:10062000B7D080214046FFF723FF8DE7202383F3D7
:1006300011884FF400710430FFF71AFF6FF48073D4
:100640003360002383F311886EE7202383F311883E
:10065000AB6C6A6C9A4205F1300724D0AA6B296C06
:10066000581C0132AA63A864884293F8008001D321
:10067000EB6BAB642B6B9F4207D01A682A63002197
:10068000576018461962FFF7DBFEC6F804800023A6
:1006900083F31188A1E7AB6B002BA7D0281D102195
:1006A000FFF7E6FEA2E7AA6B002AD7D00821281D93
:1006B000FFF7DEFE4FF63F730AEA030343F0400301
:1006C000F360E4E70000000000000000000000000C
:1006D0000378012BF0B43CD0C36800221A605A633F
:1006E0009A635A62416882688C694D68B2FBF5F280
:1006F00024F0FF04013A00264FF6FF751E61DC600E
:100700009A62DD620A7D72B9542240F201249C6132
:100710009A600A78D2B113221A6203F13802343394
:10072000026143610DE064224FF481749C619A6020
:100730000A7842B131221A6203F13402383302617D
:100740004361F0BC704713221A62F5E731221A6246
:10075000E3E7284B984207D0274B98421BD0274B02
:1007600098422FD0C368BDE7254B264A196C264D09
:1007700041F001011964196A4FF08054002741F0DB
:100780000101702619621F6282F81C63C2F8804161
:1007900014608560E0E71A4B1A4A196C1A4D41F053
:1007A00002011964196A4FF00054002741F0020158
:1007B000702619621F6282F81D63C2F880411460BE
:1007C0008560CCE70E4B0F4A196C0F4C41F00801C5
:1007D0001964196A002641F00801702519621E6229
:1007E0004FF4802182F83253C368C2F884115160FB
:1007F000846077E7480A0020600A0020780A002019
:100800000038024000E100E000D8B8050000000018
:1008100070B40A480A4B0B4C0B4A0C4DC2600121C4
:1008200000224FF0804601701970E660217062600E
:10083000DD6042605A6070BC704700BF600A0020F3
:10084000780A0020480A002000040040000C004004
:100850002DE9F04F02F0030AC2F38008C2F3C10C85
:10086000C2F3411ED146C2F3C31200274FF00F0B53
:100870000FE0036A23EA040425430562490839D0DE
:100880004FEA48084FEA8C0C4FEA8E0E4FEA89096E
:100890000137CB07F2D543680124BC4023EA0403A7
:1008A00043EA0803436003257B00846805FA03F3E9
:1008B000DB431C4044EA0C048460C56807F007046D
:1008C0001D4045EA0E05A400BAF1020FC56002FA08
:1008D00004F50BFA04F40FD00668334043EA090329
:1008E000072F0360C5D9436A23EA04042543490856
:1008F0004562C5D1BDE8F08F072F0AD8066A26EAFF
:100900000404254305620468234043EA09030360A5
:10091000B4E7466A26EA040425434562F3E700BFCC
:1009200010B4202383F31188C268D36813F0FF0446
:100930000CD141681461087D68B1886888B143F0C2
:100940000603096909B143F00103D360002383F36F
:10095000118810BC704788680028F0D143F002036A
:10096000EFE743F00403ECE70000000000000000A4
:1009700030B4202383F31188C3685A69002142F000
:100980000102052503245A6119611D60047081F379
:10099000118830BC704700BF00000000000000005C
:1009A000202383F31188114B5B6813F4006302D199
:1009B00083F31188704780B400AFEFF309834FF0E1
:1009C000807243F8042CA3F1200282F30988084ABC
:1009D000116892698968926891428CBF054A064AFB
:1009E00043F8082CBD4680BC704700BF00ED00E016
:1009F000D0080020B1020008B40200080000000086
:100A000038B5174DAB691C69DA681440E2B2D243BD
:100A10001A61A30704D56B681B690BB12846984778
:100A2000600704D56B689B690BB10D489847210797
:100A300004D56B681B6A0BB109489847E20604D5D8
:100A40006B689B6A0BB106489847E30704D56B684F
:100A50009B680BB102489847BDE83840FFF7A0BF3C
:100A60003808002000000000000000000000000026
:100A7000FFF7C6BF000000000000000000000000FB
:100A800008B50348FFF72CFCBDE80840FFF788BF16
:100A9000780A0020000000000000000000000000B4
:100AA00008B50348FFF71CFCBDE80840FFF778BF16
:100AB000600A0020000000000000000000000000AC
:100AC00008B50348FFF70CFCBDE80840FFF768BF16
:100AD000480A0020000000000000000000000000A4
:100AE0002DE9F843254C23699B0703D4BDE8F8435F
:100AF000FFF756BF00272761202585F31188204E78
:100B0000606AB6F826E0F36980B2A0EB0E011A899C
:100B100089B2914206F11C081CD31968D3F80C90D5
:100B200072444145F284C1F80480F161DF6008BF7E
:100B3000E76087F311881869C84785F31188606AF0
:100B4000B6F826E0F36980B2A0EB0E011A8989B2EB
:100B50008A42E2D9434509D07244121A92B2022A5B
:100B60002CBF8218821C054B92B25A63002383F378
:100B70001188BDE8F843FFF713BF00BF000800402D
:100B8000D00800200000000000000000000000006D
:100B90000E4B0F4A5B68C168F0B48768166F4268F5
:100BA000D0E90445DB1B9B1BE41845F1000593428B
:100BB000026888BF436001319342C0E90445C160C7
:100BC000836038BF0360F0BC704700BF001000E0D6
:100BD000D00800200000000000000000000000001D
:100BE00038B52022034682F311880E4A9469606A60
:100BF000236204F12405854206D003686362FFF78F
:100C00001FFC606AA842F8D1637F9B0704D1636927
:100C100022691A61226953610F20BDE83840FFF74D
:100C20005FBC00BFD00800200000000000000000F2
:100C30000D4A106870B4036894691360012600259A
:100C4000A1685A6006779061257700E01B689A6872
:100C50009142FBD35A6862602360214614605C6055
:100C600070BCFFF715BB00BFD008002000000000DB
:100C70002DE9F0414FF6FF73994286B059D04F4CA1
:100C8000DFF840E14E4BDEF824200493254607466A
:100C9000A069059055F81C0F022938BF0221A8420F
:100CA00096B272D0B4F826C0A6EB0C0692B28B199D
:100CB000A2EB0C029BB29342028935DB934240D3F4
:100CC000934205D900689B1A02899BB29A42F9D3D4
:100CD000426802920DF104080190C2F80080C0F849
:100CE0000480ADF80C300289D31A4FF6FF720381ED
:100CF000A2843846FFF7F4FB049B83B1E3694345C4
:100D000025D0029A019B1360019B0021AB425A60DF
:100D1000049104D01A89BDF80C100A441A81A36901
:100D2000186A06B0BDE8F08100689B1A9BB2028980
:100D3000C6E7224CFFF7D4FBA369186A06B0BDE8EA
:100D4000F0810CEB030189B2CEF83410B8E7019EB4
:100D5000E6610023AE42756004932CD01948E18C03
:100D6000426A3389BDF80C5092B2511A2B449BB29F
:100D700089B28B423381D2D95B1A9BB2022B2CBF32
:100D8000D318931C9BB24363C9E78B190DF1040878
:100D90009BB200200222E68401950295ADF80C106A
:100DA000C4F81C80C4F82080CEF83430CEF810008F
:100DB000CEF80C209DE7034AD360B0E7D0080020AE
:100DC000D1030008000800400000000000000000FF
:100DD00061B1084B9B6910B4186044685C600246BE
:100DE00023600420536010BCFFF742BF4FF0FF3078
:100DF000704700BFD0080020000000000000000085
:100E00002DE9F04F83B004460D4616460193D0F805
:100E10001C804FF0200989F311880027BA46A36887
:100E200005F1010B204603B36169A3684A1C013B2D
:100E30006261A3602B780B7023696169994224BFBA
:100E4000E3686361B8F1000F00D0C0478AF31188EE
:100E5000013E07F1010712D089F31188A3685D46AE
:100E600005F1010B2046002BDED1019900932046AD
:100E7000FFF7AEFF009B0028D1D083F311883846DE
:100E800003B0BDE8F08F00BF0000000000000000CC
:100E90003030FFF7B5BF00BF0000000000000000C9
:100EA00030304FF6FF73FFF7ABBF00BF000000000C
:100EB000F8B504460F461646202383F3118803E055
:100EC000FFF786FF002819DBA56831462046002D74
:100ED000F6D06269A368511C013B6161A360177081
:100EE000236962699A4224BFE3686361E3690BB1D5
:100EF00020469847002080F31188F8BD85F31188BB
:100F0000F8BD00BF0000000000000000000000006D
:100F10003030FFF7CDBF00BF000000000000000030
:100F200030304FF6FF72FFF7C3BF00BF0000000074
:100F30002DE9F04F044683B0894693461D46D0F80C
:100F40001C80202787F3118800260197B246B8F14C
:100F5000000F05D02046C04702E0FFF739FFE0B997
:100F6000A76829462046002FF7D0A269A368511C24
:100F7000013BA161A360137809F8013B2369A269D1
:100F80009A4224BFE368A3618AF311880136B3450E
:100F900005D0019B83F31188D9E787F31188304688
:100FA00003B0BDE8F08F00BF0000000000000000AB
:100FB0000C30FFF7BDBF00BF0000000000000000C4
:100FC0000C304FF6FF73FFF7B3BF00BF0000000007
:100FD00070B520230E46044683F31188C3692BB1F4
:100FE000984703E0FFF7F4FE002815DBA5683146BB
:100FF0002046002DF6D0A169A36825694A1C013B53
:10100000AA42A360A26128BFE368087828BFA36151
:10101000002383F3118870BD85F3118870BD00BF74
:101020000C30FFF7D5BF00BF00000000000000003B
:101030000C304FF6FF71FFF7CBBF00BF0000000080
:10104000FEE700BF000000000000000000000000FC
:10105000F0B5134F134D144C144B154907F1700E96
:1010600000269C4211D904391A4651F8040F42F85F
:10107000040B9442F9D8DA43144424F003040434F2
:1010800023449D4203D943F8046B9D42FBD8774526
:1010900004D007F110013AC91037E2E7F0BD00BFF4
:1010A000501E0008100B0020100B0020100B002019
:1010B000D41F000800000000000000000000000035
:1010C000FEE700BF0000000000000000000000007C
:1010D000704700BF0000000000000000000000009A
:1010E000704700BF0000000000000000000000008A
:1010F00038B5074D074C0849284600F069FC074BF6
:1011000007496B67204600F063FC064B636738BDF8
:10111000900A002054080020D1020008001001406D
:10112000C102000800440040000000000000000070
:1011300008B50348FFF7ECF9BDE80840FFF730BCFD
:101140005408002000000000000000000000000023
:1011500008B50348FFF7DCF9BDE80840FFF720BCFD
:10116000900A0020000000000000000000000000C5
:10117000B84AB94BB94C04212DE9804811834FF08E
:10118000FF310022186919611A61586959615A6161
:10119000186A60F0805018621A62586A59625A627E
:1011A000196C41F080511964216841F4807121600B
:1011B000196F01F44071B1F5007F8BB003D04FF48B
:1011C000803119671A67A54EDFF88C927368A14CBD
:1011D000DFF8E0C2A24DDFF8E0E2A248A249A34A4C
:1011E00023F400737360D9F8303043F09F03C9F8DB
:1011F0003030D9F850709E4B47F09F070026C9F851
:1012000050706FF48A676660A7604FF6DF77C4F8A6
:101210000CC067614FF4EE4C4FF42A27C4F820C08D
:101220004FF0FF3867624FF0800AC4F800E04FF0DB
:1012300055374FF6FF746E60C5F80880EF606C613B
:101240002E626E62C5F800A08A4D4660C0F8088024
:10125000C560446106624662066087484E60874DFD
:10126000C1F80880CF604C610E624E620E6056601D
:10127000C2F80880D76054611662566216605E60DC
:10128000C3F80880D8605C611E625E621E60FFF772
:10129000BFFA012704227A4B2A74AB616E60EE60BC
:1012A0002F70FFF725FFD9F84020DFF810E2754BCB
:1012B000754942F00402C9F84020DEF80800734A7C
:1012C00040F00400CEF8080042F27F5098624FF0E0
:1012D0008040DC629E615E63DE605E605F611F6015
:1012E00081F81EA3C1F8800108609660D168684B40
:1012F00068484FF6FF042140AEF54C3EAEF5047E43
:101300000B43D360DEF80C30634C43F08073CEF8AF
:101310000C30036864603B430360102104F11C033C
:101320004FF02009D1770DEB010082F822900022C6
:10133000E36123620023A660246024616461A4F851
:101340002480E684CDE90823CDF810802667059631
:101350000696079600F034FB04A8FFF719FC4F4BE4
:10136000D4F814E00699216703F1100C04F12C0164
:10137000C3F810C0C3F814C04FF0400CC4F840E0EC
:101380009E61C4F834C0C4F868C084F849606666D9
:10139000266684F84A706664E4634148CEF810100B
:1013A000404A6161A16104F15001DFF814C1DFF826
:1013B00014E121653C499E6020F0070022F00702FD
:1013C000DE60196004F1540384F848706365A36516
:1013D000CCF80000CEF8002086F3118862B6A3692D
:1013E000324A9A6189F3118863693148DFF8D8E09D
:1013F000C4F88070022104F1780204F5967CC4F8E8
:10140000B47084F8967084F89560C4F8AC60C4F841
:101410004C0184F89410C4F88C30C4F83061C4F8DE
:10142000B060C4F89060C4F88840C4F884C0C4F8C0
:101430002CE11A61A369C4F898609968626104F1AB
:10144000A00004F19C07C4F89C70C4F8A000C4F884
:10145000A4003BE000000240003802400070004061
:101460000004024000080240000C0240001002404C
:10147000001C02405555555150555555380800200F
:10148000000001400008004000E100E000ED00E045
:101490000003FA05001000E0D0080020200A002018
:1014A000170B00200000022091030008D01E000846
:1014B000A102000805511564A004802A002004E060
:1014C000440A0020400A0020D1040008002900F04E
:1014D000808184F8946023461B6899680029FBD1B9
:1014E000A3675868E06702605A6081F31188C44BB3
:1014F000C4F89030FFF7FCFD202282F31188C14927
:101500000B7A012B00F067814A6FBF4B9A4200F0C3
:10151000738103F580639A4200F06E814FF4D073BB
:1015200093604024012042F22C1600231461506184
:101530000224D6601360166852680C7283F3118817
:101540000421B24AAA6128706B60EB6029742022E2
:1015500082F31188AE492A784F6869608242AF6091
:1015600000F07681AA696869136053639363D3635B
:1015700013645362CB680C68B0FBF4F003F00F0304
:10158000CC6A013F0138012B9062D762546003D0CE
:10159000022B0CBF03230023486900F00F00012831
:1015A00003D0022803D143F0200343F01003C8699D
:1015B00000F00F00012803D0022803D143F4007388
:1015C00043F48073486A00F00F00012803D002281A
:1015D00003D143F4005343F48053096B13624FF07B
:1015E000000B21F0FF0301264FF400408521022467
:1015F0005661C2F810B0D36050641160C5F80CB0E9
:101600002C708BF31188FFF703F94FF0200A8AF34F
:101610001188804F804B7B603846FFF759F83C704B
:101620008BF311888AF31188DFF80C927B4BC9F891
:1016300004304846FFF74CF889F800408BF31188D6
:101640008AF31188DFF8F881754BC8F804304046FA
:10165000FFF73EF888F800408BF311883846FFF713
:1016600087F94846FFF784F94046FFF781F9384685
:10167000FFF756F94846FFF753F94046FFF750F990
:1016800040F282324FF400716648FFF7E1F840F211
:1016900082324FF480616348FFF7DAF832464FF444
:1016A00080616148FFF7D4F832464FF480515E48BC
:1016B000FFF7CEF882224FF480715A48FFF7C8F83E
:1016C00032464FF480715848FFF7C2F832464FF463
:1016D00000715548FFF7BCF8314682225348FFF7A6
:1016E000B7F8324651465048FFF7B2F8324640212B
:1016F0004D48FFF7ADF8214682224C48FFF7A8F885
:10170000314682224748484EFFF7A2F821464FF45F
:1017100081724448FFF79CF84FF4817210214348CE
:10172000FFF796F84FF480634FF4805232834FF006
:10173000200A73838AF31188EB68AA6943F00103D6
:101740004FF40061EB605163002484F311888AF345
:10175000118832210820FFF78BFA84F311888AF36D
:101760001188FA68D36823F0FF03D36084F31188EB
:101770002F4B2848B3F800B0FFF7D2F80FFA8BFBD5
:101780008AF31188D9F80C20D36823F0FF03D360C3
:1017900084F31188274B28481B881BB20393FFF75B
:1017A000BFF88AF31188D8F80C10CA6822F0FF023B
:1017B000CA6084F31188214B21481C8824B2FFF7AA
:1017C000AFF80094039B1F490E485A4600F030F9C9
:1017D000A8E71977FEE71C4C1C4B606CC02640F054
:1017E0001000606483F82563C3F884215A604A6F4F
:1017F000054B9A427FF48DAE40F24133936090E600
:10180000501F0008900A0020001001400000014015
:1018100000080020480A0020F01E0008101F0008E1
:10182000301F00080000024000080240000402408F
:10183000080B00200A0B0020780A00200C0B002067
:10184000600A0020581F00080038024000E100E054
:10185000114EAA69706C114C40F001007064D6F80A
:1018600024E00F4868614EF0010EC6F824E0736270
:1018700070234FF0007684F81933C4F88061266035
:1018800084F81B334FF0006646F66803C4F88061A5
:1018900026609361D3616DE60038024000E100E00C
:1018A00000D8B805000000000000000000000000A3
:1018B000264A274B4FF080504FF440411064196086
:1018C000136843F00103136013689807FCD593680D
:1018D0001E4923F003039360936893608B6813F0B1
:1018E0000C03FBD10868194A00F0F90008608B600E
:1018F0004B6F43F001034B67536F9907FCD5154BB2
:1019000053601368124943F0807313604B685A04A4
:10191000FCD50E490B689B01FCD50F4B0F4A8A6022
:1019200040F203721A608B68084A43F002038B602E
:10193000936803F00C03082BFAD1536C43F48043F3
:101940005364536E43F4804353667047003802403B
:101950000070004010600108003C02400010883810
:1019600043690E4A1B68904203F101031BB210D079
:101970000B4A90420FD00B4A904200D070470A4960
:1019800003EB4303DB004FF47A7292FBF3F30B801B
:1019900070470649F4E70649F2E700BF480A00200D
:1019A000780A0020600A00200C0B0020080B0020A1
:1019B0000A0B0020000000000000000000000000F2
:1019C000014B5B6883607047001000E0000000007E
:1019D000F0B50346134A43F8042B002500F15402E6
:1019E00000F10C044FF0010E102700F17406436063
:1019F000C16400F1640300F130014561C06200651B
:101A000080F808E0856287630664C46004618261CF
:101A100042620262C361C3638364436401634163DE
:101A2000F0BD00BF801F00080000000000000000A3
:101A30000EB42DE9F04F86B010AE0023774D784CF0
:101A4000029600934FF0730A009A2B6873489B68C4
:101A5000514601320092984794F800A027467C1C1A
:101A6000BAF1000F00F03181BAF1250FECD17A788C
:101A70002D2A03BFBA78BC1C4FF0010C4FF0000CAC
:101A8000302A04BF6278013404F101010CBF4FF029
:101A900030094FF02009002405E03378043611F8AE
:101AA000012B03EB4004A2F13003DBB2092B0F46FC
:101AB00004EB8400F3D92A2AEFD02E2A4FF000013C
:101AC00043D002F0DF034C2B4ED0A2F14400342867
:101AD00000F24481DFE810F01401420142014201AA
:101AE00042011401420142014201420142017D01D1
:101AF00042014201420142014201510142014201BF
:101B0000800142014201420142014201420142017F
:101B1000420142014201FF0014014201420142011F
:101B200042011401420142014201420142017D0190
:101B30004201420142018D00420151014201420134
:101B400080013378043603EB400117F8012BA2F132
:101B50003003DBB2092B01EB8100F4D92A2AF0D043
:101B600002F0DF034C2BB0D197F800A0BAF1000FC0
:101B700003D05246013797F800A0A2F14403342B5A
:101B800000F2EE80DFE813F0BE00EC00EC00EC00A9
:101B9000EC00BE00EC00EC00EC00EC00EC002B01D3
:101BA000EC00EC00EC00EC00EC003101EC00EC008F
:101BB0002E01EC00EC00EC00EC00EC00EC00EC0082
:101BC000EC00EC00EC00A900BE00EC00EC00EC0026
:101BD000EC00BE00EC00EC00EC00EC00EC002B0193
:101BE000EC00EC00EC003700EC003101EC00EC0004
:101BF0002E0197F800A0D6F800800436B8F1000F47
:101C000000F01C8198F80030002940F0F180002B92
:101C100000F0F38047F6FE73424605E0900A00208C
:101C2000591F0008013B03D412F8011F0029F9D104
:101C3000A2EB0802531EA41A01934FF0200959D4B5
:101C4000BCF1000F40F09580C4F1000B002C00F0B7
:101C50008F8098F800102D2900F0D5802B68494618
:101C60009B68284698471BF1010BF7D1009B234442
:101C70000093019B002BA8BF5C46FFF6F0AEDDF899
:101C800004B02B6818F8011B9B680BF1FF3B28463A
:101C90009847BBF1FF3FF4D1009B019A01331A44EE
:101CA0000092002C3FF4DBAEA0462B6849469B68AF
:101CB00028469847B8F10108F7D1009B23440093C8
:101CC0007C1CBAF1000F7FF4CFAE009806B0BDE8DF
:101CD000F04F03B0704797F800A033680DF1180873
:101CE000043608F80C3D0023019301224FF020092F
:101CF000A41AA5D5019B002BA8BF0024BFDAAEE62D
:101D000097F800A03168002906F10406C0F28C8023
:101D10000DF10C08424602F10B03019318464A4BA1
:101D2000A3FB01E3DB0803EB830B9E46A1EB4B0314
:101D30003033DBB2714600F8013D0029EFD1019943
:101D4000091A114401E010F8013F02F8013B8A42F0
:101D5000F9D1A2EB0802531E0193C9E797F800A03E
:101D60000DF11808002308F80C2D01930122BFE79C
:101D70005C46019B002B82DA93E74FF00A0897F844
:101D800000A032680DF11701043600E00146B2FBF5
:101D9000F8FE08FB1E2202F13003392BC8BF02F106
:101DA0003703DBB2724601F8013C481E002AEDD130
:101DB0000DF117020DF10C08121AC646104401E08D
:101DC00011F8013B0EF8013B8842F9D1531E0193F3
:101DD0008EE74FF00808D2E74FF01008CFE74FF03A
:101DE0000808CEE74FF01008CBE74FF00A08C8E725
:101DF0001BB14B1E00297FF40FAF4FF0FF3301934F
:101E00004FF020091CE7B9F1300F7FF427AF2A68A3
:101E1000284692689047009B01330093019B013B49
:101E200008F10108019319E74FF02D038DF80C30EC
:101E300049420DF10D020DF10C086CE7DFF80C8042
:101E400000293FF4E7AED4E7CDCCCCCC701F00081E
:101E5000D41F0008100B0020100B0020100B0020D6
:101E6000D41F000800000000000000000000000077
:101E7000D41F000800000000000000000000000067
:101E8000D41F000800000000000000000000000057
:101E9000D41F000800000000000000000000000047
:101EA000D41F000800000000000000000000000037
:101EB000D41F000800000000000000000000000027
:101EC000D41F000800000000000000000000000017
:101ED0006D61696E00168118040244080C10141814
:101EE000001C1D1E0000000000000000000000009B
:101EF00000000000E8030000000000006119000875
:101F000000000000000000000000000000000000D1
:101F100000000000E8030000000000006119000854
:101F200000000000010000000000000000000000B0
:101F300000000000E8030000000000006119000834
:101F40000000000000000000000000000000000091
:101F500069646C650000000073706565643A202553
:101F600064202564202564200D0A00000000000084
:101F7000286E756C6C290000000000000000000055
:101F8000A10E0008C10F0008210F00083110000841
:101F9000110F000821100008910E0008B10F000871
:101FA000006CDC02000800000000000001000000DE
:101FB000000000000100000000000000010000001F
:101FC0000000000000000000000000000000000011
:041FD000000000000D
:04000005080001C12D
:00000001FF
