:020000040800F2
:1000000000040020C10100088118000881180008C0
:10001000811800088118000881180008811800085C
:10002000811800088118000881180008E10D0008F7
:10003000811800088118000881180008811800083C
:10004000811800088118000881180008811800082C
:10005000811800088118000881180008811800081C
:10006000811800088118000881180008811800080C
:1000700081180008811800088118000881180008FC
:1000800081180008811800088118000881180008EC
:1000900081180008811800088118000881180008DC
:1000A0008118000821030008811800089103000846
:1000B00071120008511200089112000881180008FE
:1000C00081180008811800088118000881180008AC
:1000D00081180008810500086105000881180008E2
:1000E000811800088118000881180008811800088C
:1000F000811800088118000881180008811800087C
:1001000081180008811800083112000881180008C1
:10011000811800088118000881180008811800085B
:10012000811800088118000881180008811800084B
:10013000811800088118000881180008811800083B
:10014000811800088118000881180008811800082B
:10015000811800088118000881180008811800081B
:10016000811800088118000881180008811800080B
:1001700081180008811800088118000881180008FB
:1001800081180008811800088118000881180008EB
:1001900081180008811800088118000881180008DB
:1001A00081180008811800088118000881180008CB
:1001B00081180008811800088118000881180008BB
:1001C00072B6234880F30988022080F31488BFF3B5
:1001D0006F8F01F0A5FB00F063FD4FF055301D4916
:1001E0001D4A91423CBF41F8040BFAE71B49184AEB
:1001F00091423CBF41F8040BFAE71949194A1A4BDE
:100200009A423EBF51F8040B42F8040BF8E7002075
:100210001649174A91423CBF41F8040BFAE701F036
:1002200037FB01F075FB134C134DAC4203DA54F865
:10023000041B8847F9E700F0B3F9104C104DAC42AD
:1002400003DA54F8041B8847F9E701F059BB0000B2
:10025000000800200000002000040020000400200E
:100260004020000800080020340800203808002042
:10027000200B0020C0010008C0010008C0010008D8
:10028000C0010008000000000000000000000000A5
:100290002DE9F04FC1F80CD0C3689D46BDE8F08F42
:1002A000002383F311882846A047002001F0C0FAFC
:1002B00001F06EF800DFFEE7000000000000000023
:1002C000024AD36843F08003D360704700100140B6
:1002D000024AD36843F08003D36070470044004073
:1002E00038B5074D074C0849284601F0B9FD074BC2
:1002F00007496B67204601F0B3FD064B636738BDC5
:10030000380800208C0A0020C102000800100140BB
:10031000D10200080044004000000000000000007E
:1003200038B5174DAB691C69DA681440E2B2D243A4
:100330001A61A30704D56B681B690BB1284698475F
:10034000600704D56B689B690BB10D48984721077E
:1003500004D56B681B6A0BB109489847E20604D5BF
:100360006B689B6A0BB106489847E30704D56B6836
:100370009B680BB102489847BDE8384000F028BFA1
:10038000700A0020000000000000000000000000D3
:10039000FFF7C6BF000000000000000000000000E2
:1003A0002DE9F047466FD6F80CA03368DA0582B025
:1003B00005469CB200F18280202383F3118814F05B
:1003C0002F0F4AD005F1040805F10C074FF0000982
:1003D00007E0A00673681DD43468A4B214F02F0F90
:1003E0003BD02307F5D014F0080F0CBF002180216B
:1003F000E00748BF41F02001A20748BF41F040019B
:10040000630748BF41F48071404601F0E1F9A0065E
:100410007368E1D56A69002A3ED02A6A696A8A420D
:1004200044D06969501C01312862696113702A6ADD
:10043000EB699A4201D3AB692B62EB689F42CBD048
:100440001A68EA6018465760C3F8209001F0A8F9CE
:100450003468A4B214F02F0FC3D1002383F31188A2
:100460001AF0800F01D0220637D4630611D520235D
:1004700083F311886A6CAB6C9A4254D04FF6BF7309
:100480000AEA03036FF04002F3600023326083F353
:10049000118802B0BDE8F08704214046019301F0C5
:1004A00097F92A6A696A019B8A42BAD16969002967
:1004B000B7D08021404601F08BF98DE7202383F3EC
:1004C00011884FF40071043001F082F96FF48073E9
:1004D0003360002383F311886EE7202383F31188B0
:1004E000AB6C6A6C9A4205F1300724D0AA6B296C78
:1004F000581C0132AA63A864884293F8008001D393
:10050000EB6BAB642B6B9F4207D01A682A63002108
:1005100057601846196201F043F9C6F804800023B9
:1005200083F31188A1E7AB6B002BA7D0281D102106
:1005300001F04EF9A2E7AA6B002AD7D00821281DA6
:1005400001F046F94FF63F730AEA030343F0400314
:10055000F360E4E70000000000000000000000007D
:1005600008B50348FFF71CFFBDE8084000F030BEA7
:100570008C0A0020000000000000000000000000C5
:1005800008B50348FFF70CFFBDE8084000F020BEA7
:1005900038080020000000000000000000000000FB
:1005A000B64AB74BB74C04212DE9804811834FF070
:1005B000FF310022186919611A61586959615A613D
:1005C000186A60F0805018621A62586A59625A625A
:1005D000196C41F080511964216841F480712160E7
:1005E000196F01F44071B1F5007F87B003D04FF46B
:1005F000803119671A67A34DDFF884826B689F4CBE
:10060000DFF8DCE2A04EDFF8DCC2A048A049A14A36
:1006100023F400736B60D8F8303043F09F03C8F8C0
:100620003030D8F850709C4B47F09F070025C8F831
:1006300050706FF48A6765604FF6DF79A760C4F881
:100640000CE04FF4EE474FF42A2EC4F814904FF00C
:10065000800A2762C4F824E04FF0FF37C4F800C0D6
:100660004FF0553E4FF6FF747560B760C6F80CE06A
:10067000746135627562C6F800A0884E4560876077
:10068000C660446105624562056085484D60DFF8DB
:1006900058928F60C1F80CE04C610D624D620D60A4
:1006A00055609760C2F80CE05461156255621560A0
:1006B0005D609F60D8605C611D625D621D6000F0DE
:1006C000D7FC01260422774B89F81020C9F818308E
:1006D000C9F80450C9F80C5089F80060FFF700FE13
:1006E000D8F84020DFF804E26F4B704942F0040272
:1006F000C8F84020DEF808006D4A40F00400CEF84B
:10070000080042F27F5098624FF08040DC629D61A9
:100710005D63DD605D605E611E6081F81EA3C1F8EF
:10072000800108609560D168624B63484FF6FF0412
:100730002140AEF54C3EAEF5047E0B43D360DEF8AF
:100740000C305E4C43F08073CEF80C30036864606C
:1007500033430360102104F11C034FF02008D177CC
:10076000684682F822800022E36123620023A78486
:10077000A560246024616461E584CDE904230097C9
:10078000256701950295039501F062FB684600F02C
:10079000D7FD4B4B67690299216703F1100E04F1F5
:1007A0002C01C3F810E0C3F814E04FF0400E2764AA
:1007B0009D61C4F834E0C4F868E084F84950656687
:1007C000256684F84A606564E4633E4839613E4AC0
:1007D0006161A16104F15001DFF814E13B4F216533
:1007E0003B499D6020F0070022F00702DD601960A0
:1007F00004F1540384F848606365A365CEF80000F3
:100800003A6085F3118862B6A369324A9A6188F327
:10081000118863693048314FC4F88060022104F1C7
:10082000780204F5967EC4F8B46084F8966084F883
:100830009550C4F8AC50C4F84C0184F89410C4F836
:100840008C30C4F83051C4F8B050C4F89050C4F89B
:100850008840C4F884E0C4F82C711A61A369C4F814
:1008600098509968626104F1A00004F19C06C4F8F4
:100870009C60C4F8A000C4F8A4003BE00000024063
:1008800000380240007000400004024000080240AE
:10089000000C024000100240001C0240555555510A
:1008A00050555555000001400008004000E100E0AF
:1008B00000ED00E00003FA05001000E0B0080020A1
:1008C000000A0020270B002000000220200A002040
:1008D000010E0008001F0008A1020008B10E000868
:1008E00005511564A004802A700A0020002004E04D
:1008F000240A0020002900F07B8184F894502346CC
:100900001B6899680029FBD1A3675868E0670260FB
:100910005A6081F31188CB4BC4F89030FFF7E0FCAC
:10092000202282F31188C8490B7A012B0BD1C74CC6
:10093000C74B606CC02540F01000606483F82553FD
:10094000C3F884215A604A6FC24B9A4200F0768104
:1009500003F580639A4200F071814FF4D073936085
:100960004024012042F22C1500231461506102241E
:10097000D5601360156852680C7283F311880421E6
:10098000B54AC9F8182089F80000C9F80430C9F838
:100990000C3089F81010202282F31188AF4999F8A1
:1009A00000204E68C9F804108242C9F8086000F0BF
:1009B0002181D9F81820D9F8140013605363936388
:1009C000D36313645362CB680C68B0FBF4F003F09C
:1009D0000F03CC6A013E0138012B9062D66254604D
:1009E00003D0022B0CBF03230023486900F00F0043
:1009F000012803D0022803D143F0200343F0100361
:100A0000C86900F00F00012803D0022803D143F485
:100A1000007343F48073486A00F00F00012803D08C
:100A2000022803D143F4005343F48053096B13624B
:100A30004FF0000821F0FF034FF0010B4FF400408E
:100A400085210224C2F814B0C2F81080D36050642B
:100A50001160C9F80C8089F8004088F3118800F013
:100A600007FB4FF0200A8AF311887D4F7D4B7B6096
:100A7000384600F05DFA3C7088F311888AF31188DB
:100A8000794E7A4B7360304600F052FA347088F336
:100A900011888AF31188764D764B6B60284600F0FA
:100AA00047FA2C7088F31188384600F079FB3046FD
:100AB00000F076FB284600F073FB01F001FA40F2EB
:100AC00082324FF400716C48DFF8C48100F0F0FA14
:100AD00040F282324FF48061674800F0E9FA5A46EA
:100AE0004FF48061654800F0E3FA5A464FF48051B4
:100AF000624800F0DDFA82224FF480715E4800F017
:100B0000D7FA5A464FF480715C4800F0D1FA5A4641
:100B10004FF40071594800F0CBFA594682225848E8
:100B200000F0C6FA5A465146544800F0C1FA5A46F7
:100B30004021524800F0BCFA21468222504800F081
:100B4000B7FA594682224C48DFF830B100F0B0FACB
:100B500021464FF4817248484A4C00F0A9FA4FF4FC
:100B600081721021464800F0A3FA384600F008FBD5
:100B7000304600F005FB284600F002FBD8F80030B4
:100B80004FF48062B3B94FF48051ABF81810ABF852
:100B90001A208AF31188D9F80C20D9F8181042F0DD
:100BA00001024FF40060C9F80C20486383F31188F8
:100BB000354B18804FF47A73C8F8003001F080F993
:100BC0008AF311883221082000F002FC002383F30D
:100BD0001188384600F0D4FA304600F0D1FA2846A1
:100BE00000F0CEFA23886388A38801F069F9BCE796
:100BF0001977FEE7154DD9F81820686C144C40F0B1
:100C0000010068646F6A2148C9F8140047F00107C1
:100C10006F626B6270234FF0007584F81933C4F86B
:100C20008051256084F81B334FF0006546F6680359
:100C3000C4F8805125609361D361C4E640F241332A
:100C400093608DE6801F00083808002000380240BD
:100C500000E100E000100140000001400008002019
:100C6000280A0020201F0008580A0020401F000802
:100C7000400A0020601F00080000024000080240F7
:100C800000040240180B0020040B002000D8B80517
:100C90000C0B00200000000000000000000000001D
:100CA000264A274B4FF080504FF4404110641960A2
:100CB000136843F00103136013689807FCD5936829
:100CC0001E4923F003039360936893608B6813F0CD
:100CD0000C03FBD10868194A00F0F90008608B602A
:100CE0004B6F43F001034B67536F9907FCD5154BCE
:100CF00053601368124943F0807313604B685A04C1
:100D0000FCD50E490B689B01FCD50F4B0F4A8A603E
:100D100040F203721A608B68084A43F002038B604A
:100D2000936803F00C03082BFAD1536C43F480430F
:100D30005364536E43F48043536670470038024057
:100D40000070004010600108003C0240001088382C
:100D500038B5C36841681C69DA681440E2B2D2430E
:100D60001A610B7D05464BB963072BD50378042B1D
:100D700025D0A10709D4E4070BD438BDA20712D5AA
:100D80000378042B0CD06307F5D50423E4072B70FC
:100D9000F3D56B6828461B69984703232B7038BD31
:100DA0008B68C3B198476307E5D52B78042BECD14A
:100DB0006968CB68002BE8D028469847E5E78B6840
:100DC00033B19847A107D6D52B78042BDDD1EFE7B7
:100DD000A007EED4CFE76207EBD4CCE70000000019
:100DE00080B400AFEFF30983203383F30988002335
:100DF00083F31188BD4680BC704700BF000000002F
:100E000010B4202383F31188094C0A4B2268196817
:100E1000C31D23F00703891A8B429DBF9B182360D3
:100E200010460020002383F3118810BC704700BFD8
:100E3000240A0020200A002000000000000000001A
:100E4000202383F31188037F072B0ED8DFE803F0FC
:100E5000270D0D2308040D08026A9368013393607F
:100E600090E80C001A600268536010B400224FF042
:100E7000FF3481680C4B046202771B689A688A42CF
:100E8000FBD25A684260036000211060586081F311
:100E9000118810BC7047036A00221A60E5E700233E
:100EA00083F31188704700BFB008002000000000E5
:100EB000FEE700BF0000000000000000000000008E
:100EC000074B99691A6810B40877106818600124F4
:100ED00043601477104610BC9A61FFF7D9B900BF80
:100EE000B00800200000000000000000000000002A
:100EF000C268D36810B413F0FF040CD141681461C8
:100F0000087D50B1886870B143F00603096909B1E2
:100F100043F00103D36010BC704788680028F3D108
:100F200043F00203F2E743F00403EFE700000000A0
:100F30000378012BF0B43CD0C36800221A605A63D6
:100F40009A635A62416882688C694D68B2FBF5F217
:100F500024F0FF04013A00264FF6FF751E61DC60A5
:100F60009A62DD620A7D72B9542240F201249C61CA
:100F70009A600A78D2B113221A6203F1380234332C
:100F8000026143610DE064224FF481749C619A60B8
:100F90000A7842B131221A6203F134023833026115
:100FA0004361F0BC704713221A62F5E731221A62DE
:100FB000E3E7284B984207D0274B98421BD0274B9A
:100FC00098422FD0C368BDE7254B264A196C264DA1
:100FD00041F001011964196A4FF08054002741F073
:100FE0000101702619621F6282F81C63C2F88041F9
:100FF00014608560E0E71A4B1A4A196C1A4D41F0EB
:1010000002011964196A4FF00054002741F00201EF
:10101000702619621F6282F81D63C2F88041146055
:101020008560CCE70E4B0F4A196C0F4C41F008015C
:101030001964196A002641F00801702519621E62C0
:101040004FF4802182F83253C368C2F88411516092
:10105000846077E7280A0020400A0020580A002010
:101060000038024000E100E000D8B80500000000B0
:1010700070B40A480A4B0B4C0B4A0C4DC26001215C
:1010800000224FF0804601701970E66021706260A6
:10109000DD6042605A6070BC704700BF400A0020AB
:1010A000580A0020280A002000040040000C0040DC
:1010B0002DE9F04F02F0030AC2F38008C2F3C10C1D
:1010C000C2F3411ED146C2F3C31200274FF00F0BEB
:1010D0000FE0036A23EA040425430562490839D076
:1010E0004FEA48084FEA8C0C4FEA8E0E4FEA890906
:1010F0000137CB07F2D543680124BC4023EA04033F
:1011000043EA0803436003257B00846805FA03F380
:10111000DB431C4044EA0C048460C56807F0070404
:101120001D4045EA0E05A400BAF1020FC56002FA9F
:1011300004F50BFA04F40FD00668334043EA0903C0
:10114000072F0360C5D9436A23EA040425434908ED
:101150004562C5D1BDE8F08F072F0AD8066A26EA96
:101160000404254305620468234043EA090303603D
:10117000B4E7466A26EA040425434562F3E700BF64
:10118000202383F31188C268D36823F0FF03D36060
:10119000002383F311887047000000000000000066
:1011A00030B4202383F31188C3685A69002142F0C8
:1011B0000102052503245A6119611D60047081F341
:1011C000118830BC704700BF000000000000000024
:1011D000202383F31188114B5B6813F4006302D161
:1011E00083F31188704780B400AFEFF309834FF0A9
:1011F000807243F8042CA3F1200282F30988084A84
:10120000116892698968926891428CBF054A064AC2
:1012100043F8082CBD4680BC704700BF00ED00E0DD
:10122000B0080020B1020008B4020008000000006D
:1012300008B50348FFF78CFDBDE80840FFF7C8BFBD
:10124000580A00200000000000000000000000001C
:1012500008B50348FFF77CFDBDE80840FFF7B8BFBD
:10126000400A002000000000000000000000000014
:1012700008B50348FFF76CFDBDE80840FFF7A8BFBD
:10128000280A00200000000000000000000000000C
:101290002DE9F843254C23699B0703D4BDE8F843A7
:1012A000FFF796BF00272761202585F31188204E80
:1012B000606AB6F826E0F36980B2A0EB0E011A89E5
:1012C00089B2914206F11C081CD31968D3F80C901E
:1012D00072444145F284C1F80480F161DF6008BFC7
:1012E000E76087F311881869C84785F31188606A39
:1012F000B6F826E0F36980B2A0EB0E011A8989B234
:101300008A42E2D9434509D07244121A92B2022AA3
:101310002CBF8218821C054B92B25A63002383F3C0
:101320001188BDE8F843FFF753BF00BF0008004035
:10133000B0080020000000000000000000000000D5
:101340000E4B0F4A5B68C168F0B48768166F42683D
:10135000D0E90445DB1B9B1BE41845F100059342D3
:10136000026888BF436001319342C0E90445C1600F
:10137000836038BF0360F0BC704700BF001000E01E
:10138000B008002000000000000000000000000085
:101390000D4A106870B40368946913600126002533
:1013A000A1685A6006779061257700E01B689A680B
:1013B0009142FBD35A6862602360214614605C60EE
:1013C00070BCFEF765BF00BFB00800200000000041
:1013D0002DE9F0414FF6FF73994286B059D04F4C3A
:1013E000DFF840E14E4BDEF8242004932546074603
:1013F000A069059055F81C0F022938BF0221A842A8
:1014000096B272D0B4F826C0A6EB0C0692B28B1935
:10141000A2EB0C029BB29342028935DB934240D38C
:10142000934205D900689B1A02899BB29A42F9D36C
:10143000426802920DF104080190C2F80080C0F8E1
:101440000480ADF80C300289D31A4FF6FF72038185
:10145000A2843846FFF734FD049B83B1E36943451A
:1014600025D0029A019B1360019B0021AB425A6078
:10147000049104D01A89BDF80C100A441A81A3699A
:10148000186A06B0BDE8F08100689B1A9BB2028919
:10149000C6E7224CFFF714FDA369186A06B0BDE841
:1014A000F0810CEB030189B2CEF83410B8E7019E4D
:1014B000E6610023AE42756004932CD01948E18C9C
:1014C000426A3389BDF80C5092B2511A2B449BB238
:1014D00089B28B423381D2D95B1A9BB2022B2CBFCB
:1014E000D318931C9BB24363C9E78B190DF1040811
:1014F0009BB200200222E68401950295ADF80C1003
:10150000C4F81C80C4F82080CEF83430CEF8100027
:10151000CEF80C209DE7034AD360B0E7B008002066
:10152000410E00080008004000000000000000001C
:1015300061B1084B9B6910B4186044685C60024656
:1015400023600420536010BCFFF742BF4FF0FF3010
:10155000704700BFB008002000000000000000003D
:101560002DE9F04F83B004460D4616460193D0F89E
:101570001C804FF0200989F311880027BA46A36820
:1015800005F1010B204603B36169A3684A1C013BC6
:101590006261A3602B780B7023696169994224BF53
:1015A000E3686361B8F1000F00D0C0478AF3118887
:1015B000013E07F1010712D089F31188A3685D4647
:1015C00005F1010B2046002BDED101990093204646
:1015D000FFF7AEFF009B0028D1D083F31188384677
:1015E00003B0BDE8F08F00BF000000000000000065
:1015F0003030FFF7B5BF00BF000000000000000062
:1016000030304FF6FF73FFF7ABBF00BF00000000A4
:10161000F8B504460F461646202383F3118803E0ED
:10162000FFF786FF002819DBA56831462046002D0C
:10163000F6D06269A368511C013B6161A360177019
:10164000236962699A4224BFE3686361E3690BB16D
:1016500020469847002080F31188F8BD85F3118853
:10166000F8BD00BF00000000000000000000000006
:101670003030FFF7CDBF00BF0000000000000000C9
:1016800030304FF6FF72FFF7C3BF00BF000000000D
:101690002DE9F04F044683B0894693461D46D0F8A5
:1016A0001C80202787F3118800260197B246B8F1E5
:1016B000000F05D02046C04702E0FFF739FFE0B930
:1016C000A76829462046002FF7D0A269A368511CBD
:1016D000013BA161A360137809F8013B2369A2696A
:1016E0009A4224BFE368A3618AF311880136B345A7
:1016F00005D0019B83F31188D9E787F31188304621
:1017000003B0BDE8F08F00BF000000000000000043
:101710000C30FFF7BDBF00BF00000000000000005C
:101720000C304FF6FF73FFF7B3BF00BF000000009F
:1017300070B520230E46044683F31188C3692BB18C
:10174000984703E0FFF7F4FE002815DBA568314653
:101750002046002DF6D0A169A36825694A1C013BEB
:10176000AA42A360A26128BFE368087828BFA361EA
:10177000002383F3118870BD85F3118870BD00BF0D
:101780000C30FFF7D5BF00BF0000000000000000D4
:101790000C304FF6FF71FFF7CBBF00BF0000000019
:1017A00000228168074B10B4044602771B689A68D0
:1017B0008A42FBD25A6862602360204614605C60F3
:1017C00010BC7047B00800200000000000000000BE
:1017D000F8B50468A04221D00D460746002602E075
:1017E0002468A7421AD0E3682B43E36015B122694D
:1017F0001342F5D06068A368416B027F0B430A2A4D
:1018000043630CD00B2AEBD1026A32EA0303E7D11F
:101810000662FFF7C5FF2468A742E4D1F8BD026A5B
:101820001342DDD00662FFF7BBFFF4E700000000C3
:1018300038B52022034682F311880E4A9469606A03
:10184000236204F12405854206D003686362FFF732
:10185000A7FF606AA842F8D1637F9B0704D1636940
:1018600022691A61226953610F20BDE83840FFF7F1
:1018700027BB00BFB00800200000000000000000EF
:10188000FEE700BF000000000000000000000000B4
:10189000F0B5134F134D144C144B154907F1700E4E
:1018A00000269C4211D904391A4651F8040F42F817
:1018B000040B9442F9D8DA43144424F003040434AA
:1018C00023449D4203D943F8046B9D42FBD87745DE
:1018D00004D007F110013AC91037E2E7F0BD00BFAC
:1018E000901F0008200B0020200B0020200B002060
:1018F000742000080000000000000000000000004C
:10190000FEE700BF00000000000000000000000033
:10191000704700BF00000000000000000000000051
:10192000704700BF00000000000000000000000041
:101930000EB42DE9F04F86B010AB704F02939A466B
:101940006F4D00237E1E009373782D2B04BFB71CB0
:101950004FF0010C3A7818BF4FF0000C302A03BF4B
:101960007A7801374FF030084FF02008791C0024B6
:1019700007E09AF800300AF1040A11F8012B03EB92
:101980004004A2F13003DBB2092B0E4604EB8400C5
:10199000F3D92A2AEDD02E2A4FF0000145D002F0CB
:1019A000DF034C2B50D0A2F14400342800F25381C5
:1019B000DFE810F0210151015101510151012101D4
:1019C0005101510151015101510191015101510147
:1019D0005101510151016201510151019401510123
:1019E0005101510151015101510151015101510167
:1019F00051010A01210151015101510151012101FE
:101A00005101510151015101510191015101510106
:101A100051018F00510162015101510194019AF865
:101A200000300AF1040A03EB400116F8012BA2F181
:101A30003003DBB2092B01EB8100F4D92A2AEED066
:101A400002F0DF034C2BAED196F80090B9F1000FF5
:101A500003D04A46013696F80090A2F14403342B95
:101A600000F2FB80DFE813F0C900F900F900F9008B
:101A7000F900C900F900F900F900F900F9003D0189
:101A8000F900F900F900F900F9004301F900F90043
:101A90004001F900F900F900F900F900F900F90036
:101AA000F900F900F900B200C900F900F900F900E5
:101AB000F900C900F900F900F900F900F9003D0149
:101AC000F900F900F9003700F9004301F900F900C5
:101AD000400196F80090DAF800700AF1040A002F2D
:101AE00000F02C813B78002940F00481002B00F0AD
:101AF000068147F6FE733A4606E000BF1120000853
:101B00008C0A0020013B03D412F8011F0029F9D1EF
:101B1000D21B531EA41A01934FF0200864D4BCF1C9
:101B2000000F40F0A480C4F1000B002C00F09E8058
:101B300039782D2900F0E9802B6841469B682846BA
:101B400098471BF1010BF7D1009B23440093019BA5
:101B5000002BA8BF5C464CDBDDF804B02B6817F8FF
:101B6000011B9B680BF1FF3B28469847BBF1FF3FE9
:101B7000F4D1009B019A01331A440092002C38D012
:101B800027462B6841469B6828469847013FF8D175
:101B9000009B1C44A41B4B4619466B483219771C0A
:101BA00063B1252B60D02B689B6898473B786648CB
:101BB0003E4619463219771C002BF2D1104606B06A
:101BC000BDE8F04F03B0704796F80090DAF80030A7
:101BD00006AF0AF1040A07F80C3D00230193012225
:101BE0004FF02008A41A9AD5019B002BA8BF00240F
:101BF000B2DA009CCEE796F80090DAF800100029DF
:101C00000AF1040AC0F291800DF10C0B5A4602F160
:101C10000B03019318464D4BA3FB0173DB0803EB49
:101C2000830E1F46A1EB4E033033DBB200F8013DBB
:101C30003946002FEFD10199091A114401E010F83B
:101C4000013F02F8013B8A42F9D1A2EB0B02531E7D
:101C50005F460193C6E796F8009006AF002307F8A9
:101C60000C2D01930122BDE700926DE65C46019BBD
:101C7000002BBFF671AF81E74FF00A0E96F8009087
:101C8000DAF800200DF117010AF1040A00E001461C
:101C9000B2FBFEF70EFB172202F13003392BC8BF4F
:101CA00002F13703DBB201F8013C481E3A46002F2F
:101CB000EDD10DF117020DF10C0B121A5F46104415
:101CC00001E011F8013B07F8013B8842F9D1531EAE
:101CD0005F46019386E74FF0080ECFE74FF0100EF6
:101CE000CCE74FF0080ECBE74FF0100EC8E74FF0EF
:101CF0000A0EC5E71BB14B1E00297FF4FCAE4FF066
:101D0000FF3301934FF0200809E7B8F1300F7FF45B
:101D100013AF2A680C4892689047009B01330093E8
:101D2000019B013B0137019306E72D2349428DF8C2
:101D30000C300DF10D020DF10C0B68E7044F00297A
:101D40003FF4D7AED7E700BF8C0A0020CDCCCCCC77
:101D50001820000800000000000000000000000043
:101D600043692E4A1B68904203F101032DE9F041BB
:101D70001CB21DD02A4B98420FD02A4B984201D05A
:101D8000BDE8F081284A04EB4403DB004FF47A7489
:101D900094FBF3F39380BDE8F081234A04EB440302
:101DA000DC004FF47A7393FBF4F35380BDE8F081C9
:101DB000DFF894801D4FD8F800001D4E1A4B1D4DC2
:101DC0001C8007FB006085FB0032C017C0EBA2122D
:101DD00019491A48FFF7ACFDD8F8003007FB036338
:101DE00085FB0325164ADB17C3EBA5139C4213881A
:101DF000B4BF013303F1FF331BB21380202282F3FF
:101E00001188104AD168906941F001014363D160A3
:101E1000002383F31188BDE8F08100BF280A002069
:101E2000580A0020400A0020180B0020B8FAFFFFD3
:101E300070E53100D34D6210102000088C0A00209C
:101E4000040B0020700A00200C0B00200000000092
:101E5000014B5B6883607047001000E000000000E9
:101E6000F0B50346134A43F8042B002500F1540251
:101E700000F10C044FF0010E102700F174064360CE
:101E8000C16400F1640300F130014561C062006586
:101E900080F808E0856287630664C460046182613B
:101EA00042620262C361C36383644364016341634A
:101EB000F0BD00BF2020000800000000000000006E
:101EC00038B5202585F311880A48FFF711F800245A
:101ED00084F3118885F311880748FFF709F884F324
:101EE000118885F311880548FFF702F884F31188FB
:101EF00038BD00BF280A0020580A0020400A0020F0
:101F00006D61696E00168118040244080C101418E3
:101F1000001C1D1E0000000000000000000000006A
:101F20000000000040420F00611D0008000000009A
:101F300000000000000000000000000000000000A1
:101F40000000000040420F0000000000611D00087A
:101F50000000000001000000000000000000000080
:101F60000000000040420F0000000000611D00085A
:101F70000000000000000000000000000000000061
:101F800069646C65000000000000000000000000B3
:101F900074200008200B0020200B0020200B0020C4
:101FA0007420000800000000000000000000000095
:101FB0007420000800000000000000000000000085
:101FC0007420000800000000000000000000000075
:101FD0007420000800000000000000000000000065
:101FE0007420000800000000000000000000000055
:101FF0007420000800000000000000000000000045
:102000007420000800000000000000000000000034
:102010002564200D0A000000286E756C6C290000F4
:102020000116000821170008811600089117000802
:102030007116000881170008F11500081117000833
:10204000006CDC020008000000000000010000003D
:10205000000000000100000000000000010000007E
:102060000000000000000000000000000000000070
:04207000000000006C
:04000005080001C12D
:00000001FF
