:020000040800F2
:1000000000040020C101000831090008310900087E
:1000100031090008310900083109000831090008D8
:1000200031090008310900083109000851080008A9
:1000300031090008310900083109000831090008B8
:1000400031090008310900083109000831090008A8
:100050003109000831090008310900083109000898
:100060003109000831090008310900082108000899
:10007000F1070008C10700089107000861070008A0
:100080003107000801070008510F00083109000876
:100090003109000831090008310900083109000858
:1000A00031090008C10300083109000831040008C3
:1000B0008104000861040008A10400083109000857
:1000C0003109000831090008310900083109000828
:1000D00031090008A10D00083109000831090008A4
:1000E0003109000831090008310900083109000808
:1000F000310900083109000831090008D10600085B
:1001000031090008310900084104000831090008DC
:1001100031090008310900083109000831090008D7
:10012000A106000871060008410600081106000833
:10013000E10500083109000831090008310900080B
:1001400031090008310900083109000831090008A7
:10015000B1050008810500085105000831090008B3
:100160003109000831090008310900083109000887
:100170003109000831090008310900083109000877
:100180003109000831090008310900083109000867
:100190003109000831090008310900083109000857
:1001A0003109000831090008310900083109000847
:1001B0003109000831090008310900083109000837
:1001C00072B6234880F30988022080F31488BFF3B5
:1001D0006F8F01F005FA00F0CBFB4FF055301D4951
:1001E0001D4A91423CBF41F8040BFAE71B49184AEB
:1001F00091423CBF41F8040BFAE71949194A1A4BDE
:100200009A423EBF51F8040B42F8040BF8E7002075
:100210001649174A91423CBF41F8040BFAE701F036
:1002200097F901F0D5F9134C134DAC4203DA54F8A9
:10023000041B8847F9E701F0DBF9104C104DAC4284
:1002400003DA54F8041B8847F9E701F0B9B9000054
:10025000000800200000002000040020000400200E
:10026000E027000800080020380800203808002097
:10027000A00B0020C0010008C0010008C001000858
:10028000C0010008000000000000000000000000A5
:100290002DE9F04FC1F80CD0C3689D46BDE8F08F42
:1002A000002383F311882846A047002000F038FF80
:1002B00000F03EFD00DFFEE700000000000000004F
:1002C000024AD36843F08003D360704700100140B6
:1002D00038B5C36841681C69DA681440E2B2D24399
:1002E0001A610B7D05464BB963072BD50378042BA8
:1002F00025D0A10709D4E4070BD438BDA20712D535
:100300000378042B0CD06307F5D50423E4072B7086
:10031000F3D56B6828461B69984703232B7038BDBB
:100320008B68C3B198476307E5D52B78042BECD1D4
:100330006968CB68002BE8D028469847E5E78B68CA
:1003400033B19847A107D6D52B78042BDDD1EFE741
:10035000A007EED4CFE76207EBD4CCE700000000A3
:10036000202383F31188114B5B6813F4006302D1DF
:1003700083F31188704780B400AFEFF309834FF027
:10038000807243F8042CA3F1200282F30988084A02
:10039000116892698968926891428CBF054A064A41
:1003A00043F8082CBD4680BC704700BF00ED00E05C
:1003B00070080020B1020008B4020008000000002C
:1003C00038B5174DAB691C69DA681440E2B2D24304
:1003D0001A61A30704D56B681B690BB128469847BF
:1003E000600704D56B689B690BB10D4898472107DE
:1003F00004D56B681B6A0BB109489847E20604D51F
:100400006B689B6A0BB106489847E30704D56B6895
:100410009B680BB102489847BDE83840FFF7A0BF82
:10042000B40A0020000000000000000000000000EE
:10043000FFF7C6BF00000000000000000000000041
:1004400008B50348FFF744FFBDE80840FFF788BF41
:100450009C0A0020000000000000000000000000D6
:1004600008B50348FFF734FFBDE80840FFF778BF41
:10047000840A0020000000000000000000000000CE
:1004800008B50348FFF724FFBDE80840FFF768BF41
:100490006C0A0020000000000000000000000000C6
:1004A0002DE9F843254C23699B0703D4BDE8F843A5
:1004B000FFF756BF00272761202585F31188204EBE
:1004C000606AB6F826E0F36980B2A0EB0E011A89E3
:1004D00089B2914206F11C081CD31968D3F80C901C
:1004E00072444145F284C1F80480F161DF6008BFC5
:1004F000E76087F311881869C84785F31188606A37
:10050000B6F826E0F36980B2A0EB0E011A8989B231
:100510008A42E2D9434509D07244121A92B2022AA1
:100520002CBF8218821C054B92B25A63002383F3BE
:100530001188BDE8F843FFF713BF00BF0008004073
:100540007008002000000000000000000000000013
:10055000084B09485968826F890D01F03D0110B5BB
:100560008C05DC600AB1C06F9047BDE81040FFF712
:10057000F7BE00BF00640240E00900200000000058
:10058000084B09485968026F090C01F03D0110B58C
:100590000C04DC600AB1406F9047BDE81040FFF7E3
:1005A000DFBE00BF00640240E00900200000000040
:1005B000084B09485968826E890901F03D0110B560
:1005C0008C01DC600AB1C06E9047BDE81040FFF7B7
:1005D000C7BE00BF00640240E00900200000000028
:1005E00008B5074B07485968026E01F03D01D96014
:1005F0000AB1406E9047BDE80840FFF7B1BE00BFAA
:1006000000640240E009002000000000000000003B
:10061000084B09481968826D890D01F03D0110B53C
:100620008C059C600AB1C06D9047BDE81040FFF793
:1006300097BE00BF00640240E009002000000000F7
:10064000084B09481968026D090C01F03D0110B50D
:100650000C049C600AB1406D9047BDE81040FFF764
:100660007FBE00BF00640240E009002000000000DF
:10067000084B09481968826C890901F03D0110B5E1
:100680008C019C600AB1C06C9047BDE81040FFF738
:1006900067BE00BF00640240E009002000000000C7
:1006A00008B5074B07481968026C01F03D019960D5
:1006B0000AB1406C9047BDE80840FFF751BE00BF4B
:1006C00000640240E009002000000000000000007B
:1006D000084B09485968826B890D01F03D0110B53E
:1006E0008C05DC600AB1C06B9047BDE81040FFF795
:1006F00037BE00BF00600240E0090020000000009B
:10070000084B09485968026B090C01F03D0110B50E
:100710000C04DC600AB1406B9047BDE81040FFF765
:100720001FBE00BF00600240E00900200000000082
:10073000084B09485968826A890901F03D0110B5E2
:100740008C01DC600AB1C06A9047BDE81040FFF739
:1007500007BE00BF00600240E0090020000000006A
:1007600008B5074B07485968026A01F03D01D96096
:100770000AB1406A9047BDE80840FFF7F1BD00BFED
:1007800000600240E00900200000000000000000BE
:10079000084B094819688269890D01F03D0110B5BF
:1007A0008C059C600AB1C0699047BDE81040FFF716
:1007B000D7BD00BF00600240E0090020000000003B
:1007C000084B094819680269090C01F03D0110B590
:1007D0000C049C600AB140699047BDE81040FFF7E7
:1007E000BFBD00BF00600240E00900200000000023
:1007F000084B094819688268890901F03D0110B564
:100800008C019C600AB1C0689047BDE81040FFF7BA
:10081000A7BD00BF00600240E0090020000000000A
:1008200008B5074B074A196801F03D019960136844
:100830000BB150689847BDE80840FFF791BD00BF75
:1008400000600240E00900200000000000000000FD
:1008500080B400AFEFF30983203383F309880023CA
:1008600083F31188BD4680BC704700BF00000000C4
:1008700010B4202383F31188094C0A4B22681968AD
:10088000C31D23F00703891A8B429DBF9B18236069
:1008900010460020002383F3118810BC704700BF6E
:1008A000680A0020640A0020000000000000000028
:1008B000202383F31188037F072B0ED8DFE803F092
:1008C000270D0D2308040D08026A93680133936015
:1008D00090E80C001A600268536010B400224FF0D8
:1008E000FF3481680C4B046202771B689A688A4265
:1008F000FBD25A684260036000211060586081F3A7
:10090000118810BC7047036A00221A60E5E70023D3
:1009100083F31188704700BF7008002000000000BA
:10092000FEE700BF00000000000000000000000023
:10093000FEE700BF00000000000000000000000013
:10094000074B99691A6810B4087710681860012479
:1009500043601477104610BC9A61FFF799BC00BF42
:1009600070080020000000000000000000000000EF
:10097000264A274B4FF080504FF4404110641960D5
:10098000136843F00103136013689807FCD593685C
:100990001E4923F003039360936893608B6813F000
:1009A0000C03FBD10868194A00F0F90008608B605D
:1009B0004B6F43F001034B67536F9907FCD5154B01
:1009C00053601368124943F0807313604B685A04F4
:1009D000FCD50E490B689B01FCD50F4B0F4A8A6072
:1009E00040F203721A608B68084A43F002038B607E
:1009F000936803F00C03082BFAD1536C43F4804343
:100A00005364536E43F4804353667047003802408A
:100A10000070004010600108003C0240001088385F
:100A2000C268D36810B413F0FF040CD1416814619C
:100A3000087D50B1886870B143F00603096909B1B7
:100A400043F00103D36010BC704788680028F3D1DD
:100A500043F00203F2E743F00403EFE70000000075
:100A60000378012BF0B43CD0C36800221A605A63AB
:100A70009A635A62416882688C694D68B2FBF5F2EC
:100A800024F0FF04013A00264FF6FF751E61DC607A
:100A90009A62DD620A7D72B9542240F201249C619F
:100AA0009A600A78D2B113221A6203F13802343301
:100AB000026143610DE064224FF481749C619A608D
:100AC0000A7842B131221A6203F1340238330261EA
:100AD0004361F0BC704713221A62F5E731221A62B3
:100AE000E3E7284B984207D0274B98421BD0274B6F
:100AF00098422FD0C368BDE7254B264A196C264D76
:100B000041F001011964196A4FF08054002741F047
:100B10000101702619621F6282F81C63C2F88041CD
:100B200014608560E0E71A4B1A4A196C1A4D41F0BF
:100B300002011964196A4FF00054002741F00201C4
:100B4000702619621F6282F81D63C2F8804114602A
:100B50008560CCE70E4B0F4A196C0F4C41F0080131
:100B60001964196A002641F00801702519621E6295
:100B70004FF4802182F83253C368C2F88411516067
:100B8000846077E76C0A0020840A00209C0A002019
:100B90000038024000E100E000D8B8050000000085
:100BA00070B40A480A4B0B4C0B4A0C4DC260012131
:100BB00000224FF0804601701970E660217062607B
:100BC000DD6042605A6070BC704700BF840A00203C
:100BD0009C0A00206C0A002000040040000C004029
:100BE0002DE9F04F02F0030AC2F38008C2F3C10CF2
:100BF000C2F3411ED146C2F3C31200274FF00F0BC0
:100C00000FE0036A23EA040425430562490839D04A
:100C10004FEA48084FEA8C0C4FEA8E0E4FEA8909DA
:100C20000137CB07F2D543680124BC4023EA040313
:100C300043EA0803436003257B00846805FA03F355
:100C4000DB431C4044EA0C048460C56807F00704D9
:100C50001D4045EA0E05A400BAF1020FC56002FA74
:100C600004F50BFA04F40FD00668334043EA090395
:100C7000072F0360C5D9436A23EA040425434908C2
:100C80004562C5D1BDE8F08F072F0AD8066A26EA6B
:100C90000404254305620468234043EA0903036012
:100CA000B4E7466A26EA040425434562F3E700BF39
:100CB00030B4202383F31188C3685A69002142F0BD
:100CC0000102052503245A6119611D60047081F336
:100CD000118830BC704700BF000000000000000019
:100CE0000E4B0F4A5B68C168F0B48768166F4268A4
:100CF000D0E90445DB1B9B1BE41845F1000593423A
:100D0000026888BF436001319342C0E90445C16075
:100D1000836038BF0360F0BC704700BF001000E084
:100D2000700800200000000000000000000000002B
:100D30000D4A106870B40368946913600126002599
:100D4000A1685A6006779061257700E01B689A6871
:100D50009142FBD35A6862602360214614605C6054
:100D600070BCFFF795BA00BF7008002000000000BB
:100D700000228168074B10B4044602771B689A680A
:100D80008A42FBD25A6862602360204614605C602D
:100D900010BC704770080020000000000000000038
:100DA0002DE9F043674D6E6FD6F80C903368DA0585
:100DB00083B09CB27DD4202383F3118814F02F0FCD
:100DC00046D0614F4FF0000807E0A10673681CD4BD
:100DD0003468A4B214F02F0F3AD02307F5D014F0E2
:100DE000080F0CBF00208020E10748BF40F0200022
:100DF000A20748BF40F04000630748BF40F480703E
:100E000001F0C6F8A1067368E2D56A69002A40D0ED
:100E10002A6A696A8A4245D06969501C0131286290
:100E2000696113702A6AEB699A4201D3AB692B623C
:100E3000EB68BB42CCD01A68EA6018465760C3F82A
:100E40002080FFF795FF3468A4B214F02F0FC4D1AF
:100E5000002383F3118819F0800F01D0220636D4C5
:100E6000630611D5202383F311886A6CAB6C9A4218
:100E700052D04FF6BF7309EA03036FF04002F360EC
:100E80000023326083F3118803B0BDE8F043FFF71D
:100E900067BA0420019301F07BF82A6A696A019B12
:100EA0008A42B9D169690029B6D0802001F070F872
:100EB0008EE7202383F311884FF4007001F068F867
:100EC0006FF480733360002383F3118873E720236A
:100ED00083F31188AB6C6A6C9A4224D0AA6B296C9C
:100EE000581C0132AA63A86488421F7801D3EB6BB7
:100EF000AB642B6B154A934209D0196829634FF0F4
:100F0000000E4A601846C3F820E0FFF731FF776013
:100F1000002383F31188A3E7AB6B002BA9D010202B
:100F200001F036F8A5E7AA6B002AD7D0082001F017
:100F30002FF84FF63F7309EA030343F04003F360D1
:100F4000E6E700BFD00A0020DC0A0020000B0020EA
:100F5000F8B5224B1A6800211960930636D5204C4B
:100F6000E16A0A685368002B30D02569002D2DD026
:100F7000136823F01F031360136813F00103FBD100
:100F80000F7A4E68AD68A26A3D20B84001213060FA
:100F9000536093609160EDB1052323701048A8471A
:100FA0002378052B04BF0223237000232361202311
:100FB00083F31188606930B14FF0FF33036200237F
:100FC0006361FFF7D5FE002383F31188BDE8F84085
:100FD000FFF7C6B9022325612370E8E7002001402E
:100FE00038080020000000000000000000000000A1
:100FF00011F00C0F2DE9F041044634D0C06A0368AB
:101000001A6822F01F021A60196811F00101FBD161
:101010002269077A46689568A36A3D22BA40012092
:101020003260596099609860002D34D00523237098
:101030002046A8472378052B04BF022323700023F2
:101040002361202383F3118863693BB100214FF0B2
:10105000FF32616118461A62FFF78AFE002383F3AC
:101060001188BDE8F08105699DB18A060FD52B78FE
:10107000F3B16B686BB1C268012A4AD96D88846884
:101080005208510005FB0141BDE8F0411847CB066D
:1010900005D4BDE8F081022325612370D1E76B6898
:1010A000002BF6D0C26881685208BDE8F0411847AD
:1010B000C06A0268136823F01F031360136813F0FB
:1010C0000103FBD1077A46686D68A26A3D21B940E9
:1010D00001203160536093609060ADB104232370B0
:1010E000E268A1682046A8472378042B0CD020236F
:1010F00083F311886369002BB0D000226261184627
:101100001A62FFF735FEA9E702220023227023614D
:10111000EDE78168BDE8F041184700BF000000001E
:1011200038B52022034682F311880E4A9469606A1A
:10113000236204F12405854206D003686362FFF749
:1011400017FE606AA842F8D1637F9B0704D16369E8
:1011500022691A61226953610F20BDE83840FFF708
:10116000EFBB00BF7008002000000000000000007E
:101170001B4BDA69824230B40FD0416802680A60C2
:1011800002681C3300249A425160C46003D0018974
:1011900013890B44138130BC70471946146841F819
:1011A0001C4F00208C426160D06015D00D4815891D
:1011B000426AD98C238992B22B44511A9BB289B2CC
:1011C0008B422381E7D95B1A9BB2022B2CBFD31829
:1011D000931C9BB24363DEE7024BD860DBE700BFA2
:1011E000700800200008004000000000000000001F
:1011F000F0B5254EDFF894E03746DEF8245057F876
:101200001C4F0361022938BF0221BC42C260ABB24D
:1012100028D0F28C9B1A1944ADB289B2AD1AA942FA
:10122000238915DB994204D217E02468C91A23895F
:1012300089B28B42F9D363684360046018606060D0
:10124000018123894FF6FF72591A2181B284F0BDC2
:101250002468C91A89B22389EBE70A4492B2CEF80E
:101260003420E6E75A18F38492B200250223F06195
:101270003062046044600181CEF83420CEF8105012
:10128000CEF80C30F0BD00BF700800200008004010
:1012900030B54FF6FF73994287B012D00C4C0D4A0F
:1012A000A369054601A8FFF7A3FF2846FFF748FBFF
:1012B000049B13B101A8FFF75BFFA369186A07B08D
:1012C00030BD034CFFF73CFBA369186A07B030BD83
:1012D00070080020B10800080000000000000000B5
:1012E00061B1084B9B6910B4186044685C600246A9
:1012F00023600420536010BCFFF7CABF4FF0FF30DB
:10130000704700BF700800200000000000000000CF
:101310002DE9F04F83B004460D4616460193D0F8F0
:101320001C804FF0200989F311880027BA46A36872
:1013300005F1010B204603B36169A3684A1C013B18
:101340006261A3602B780B7023696169994224BFA5
:10135000E3686361B8F1000F00D0C0478AF31188D9
:10136000013E07F1010712D089F31188A3685D4699
:1013700005F1010B2046002BDED101990093204698
:10138000FFF7AEFF009B0028D1D083F311883846C9
:1013900003B0BDE8F08F00BF0000000000000000B7
:1013A0003030FFF7B5BF00BF0000000000000000B4
:1013B00030304FF6FF73FFF7ABBF00BF00000000F7
:1013C000F8B504460F461646202383F3118803E040
:1013D000FFF786FF002819DBA56831462046002D5F
:1013E000F6D06269A368511C013B6161A36017706C
:1013F000236962699A4224BFE3686361E3690BB1C0
:1014000020469847002080F31188F8BD85F31188A5
:10141000F8BD00BF00000000000000000000000058
:101420003030FFF7CDBF00BF00000000000000001B
:1014300030304FF6FF72FFF7C3BF00BF000000005F
:101440002DE9F04F044683B0894693461D46D0F8F7
:101450001C80202787F3118800260197B246B8F137
:10146000000F05D02046C04702E0FFF739FFE0B982
:10147000A76829462046002FF7D0A269A368511C0F
:10148000013BA161A360137809F8013B2369A269BC
:101490009A4224BFE368A3618AF311880136B345F9
:1014A00005D0019B83F31188D9E787F31188304673
:1014B00003B0BDE8F08F00BF000000000000000096
:1014C0000C30FFF7BDBF00BF0000000000000000AF
:1014D0000C304FF6FF73FFF7B3BF00BF00000000F2
:1014E00070B520230E46044683F31188C3692BB1DF
:1014F000984703E0FFF7F4FE002815DBA5683146A6
:101500002046002DF6D0A169A36825694A1C013B3D
:10151000AA42A360A26128BFE368087828BFA3613C
:10152000002383F3118870BD85F3118870BD00BF5F
:101530000C30FFF7D5BF00BF000000000000000026
:101540000C304FF6FF71FFF7CBBF00BF000000006B
:10155000F0B5134F134D144C144B154907F1700E91
:1015600000269C4211D904391A4651F8040F42F85A
:10157000040B9442F9D8DA43144424F003040434ED
:1015800023449D4203D943F8046B9D42FBD8774521
:1015900004D007F110013AC91037E2E7F0BD00BFEF
:1015A000D0250008A00B0020A00B0020A00B0020DD
:1015B00018280008000000000000000000000000E3
:1015C000FEE700BF00000000000000000000000077
:1015D000704700BF00000000000000000000000095
:1015E000704700BF00000000000000000000000085
:1015F0001A4B1B4C1A694FF0FF3100222DE980482D
:1016000019611A61586959615A61186A60F080500D
:1016100018621A62586A59625A62196C41F0805114
:101620001964216841F480712160196F01F44071DF
:10163000B1F5007F89B003D04FF4803119671A6784
:101640000748084A4368084D23F400734360074B7A
:10165000002189460C4619600CE000BF00380240AA
:10166000007000405C26000810600240600A002004
:1016700052F80C5CC84B2C6043F8394009F1010961
:10168000B9F1100F02F10C02F2D1DFF87C83C34DE7
:10169000C348DFF878C3DFF878B3DFF878E3C14EEA
:1016A000C149C24AC24BDFF870A34FF0FF37C8F8F8
:1016B0000870C8F80C70AF60EF60056B45F09F05CF
:1016C0000563D0F85080BB4D48F09F08C0F85080AB
:1016D0006FF48A680190CCF80440CCF80880CCF80C
:1016E0000CB04FF6DF784FF4EE4BCCF81480CCF80A
:1016F00020B04FF42A28DFF824B3CCF824808020CF
:10170000CCF800B04FF055384FF6FF7BCEF80440D0
:10171000CEF80870CEF80C80CEF814B0CEF8204089
:10172000CEF82440CEF80000DFF8F4E27460B76031
:10173000C6F80CE0C6F814B03462746234604C60D1
:101740008F60C1F80C80C1F814B00C624C620C6060
:101750009949546060269760C2F80C80C2F814B0B2
:101760004FF001081462546214605C604FF48022F0
:101770009F60D960C3F814B01C625C621C60A3F562
:101780007C4385F800808D498AF81263CAF880216D
:101790008B4ECAF800208B4AAB6205F11803E96250
:1017A0002A63AB616C60AC60EC602C616C612C6294
:1017B000EB61FFF7F5F90422834B3274B36186F8CD
:1017C00000807460F46000F01BFC01987F49036C9A
:1017D0007F4A43F00403036488687E4B40F00400B2
:1017E000886042F27F519962C3F82CB04FF080417B
:1017F0009C615C63DC605C60C3F81480C3F80080AB
:101800006FF07F038AF81E33CAF88011CAF80010FF
:101810009460D2F80CE0704B7049DFF808A2704871
:10182000DFF804B24FF6FF0C0EEA0C0E4EEA03038B
:10183000D360CB68CAF804A043F08073CB60016822
:10184000684BCAF8084041EA080101600AF11C0E21
:10185000202182F81F9002A882F822100191CAF874
:101860001CE00022CAF800A0CAF810A0CAF814A010
:10187000CAF820E0CBF874300023CDE90623AAF89B
:1018800024700297AAF82640CAF870400394049482
:10189000059400F075FB02A8FFF722FA524B53485B
:1018A000DAF814E00499CAF840E003F110071F6168
:1018B0005F6120F0070C40270AF12C009C61CAF8F8
:1018C0003470CAF868708AF84940CAF86440CAF8A7
:1018D00060408AF84A80CAF84440CAF83CA0CAF876
:1018E0007010434ACEF81000CAF81400CAF8180065
:1018F0000AF15000DFF834E13E4FCAF850003E488C
:101900009C6022F00702DC6018600AF154038AF838
:101910004880CAF85430CAF85830CEF80020C7F8CA
:1019200000C084F3118862B6DAF81830334A9A613D
:10193000019981F31188DAF81430314F3148CAF82F
:10194000808002210AF178020AF5967E8AF8954095
:10195000CAF8B480CAF8AC408AF89680CAF82C71EC
:10196000CAF84C018AF89410CAF88C30CAF8304191
:10197000CAF8B040CAF89040CAF888A0CAF884E013
:101980001A61DAF81830CAF898409968CAF8142031
:101990000AF1A0004CE000BFE00900200064024012
:1019A0000038024000080240000C024000100240D3
:1019B000001C02403808002050555555E02600080C
:1019C000B40A0020162C020000000140002004E0B0
:1019D00000ED00E0000800400003FA05F0ED00E033
:1019E000001000E000100140C009002000000220AB
:1019F000A70B0020640A00207108000810270008C7
:101A000021090008A1020008006002400000024015
:101A1000055115640004024000E100E0A004802AA2
:101A20005555555170080020D00A0020680A002042
:101A30000AF19C07CAF89C70CAF8A000CAF8A40072
:101A4000002900F0E3818AF8944053461B689968A6
:101A50000029FBD1CAF878305868CAF87C000260C7
:101A60005A6081F31188CF4BCAF8903000F0C8FA61
:101A7000CD4BCBF87430202282F311889BF80830CC
:101A8000012B00F0C581DBF87420C74B9A4200F0AF
:101A9000D18103F580639A4200F0CC814FF4D0737A
:101AA000936040231361012142F22C100023516105
:101AB000D06013600220146852688BF8080083F32A
:101AC00011880420B94AB26131707360F3603074D8
:101AD000202282F31188B6493278D1F804E071608F
:101AE000012AC6F808E000F00F82B2697469136039
:101AF00053639363D36313645362CB68CF6A0868FC
:101B0000B4FBF0F003F00F030EF1FF340138012BAA
:101B10009062D462576003D0022B0CBF03230023D2
:101B2000486900F00F00012803D0022803D143F0D8
:101B3000200343F01003C86900F00F00012803D010
:101B4000022803D143F4007343F48073486A00F021
:101B50000F00012803D0022803D143F4005343F4BB
:101B60008053096B1362002421F0FF034FF0010E34
:101B70004FF4004085210227C2F814E01461D360BD
:101B800050641160F460377084F31188FFF708F82F
:101B9000202686F31188DFF834A2864BCAF8043079
:101BA0005046FEF75DFF8AF8007084F3118886F3D3
:101BB0001188DFF81C92804BC9F804304846FEF7C4
:101BC0004FFF89F8007084F3118886F31188DFF8DD
:101BD00004827A4BC8F804304046FEF741FF88F88B
:101BE000007084F311885046FFF762F84846FFF70B
:101BF0005FF84046FFF75CF8032206217048FEF7C5
:101C0000EFFF032206216F48FEF7EAFF86F31188F3
:101C10002B786C60012B00F017814FF0020885F8DB
:101C20000080002787F31188674A536843F4000354
:101C30005360202686F311886448FEF7F1FE87F38F
:101C4000118886F311886248FEF7EAFE87F311884F
:101C500086F311885F48FEF7E3FE87F31188584C3E
:101C60005D4DDFF89091204640F282324FF4004102
:101C7000FEF7B6FF40F2823208215248FEF7B0FF6D
:101C8000284601224FF48061FEF7AAFF2846012270
:101C90004FF48051FEF7A4FF204682224FF480715A
:101CA000FEF79EFF284601224FF48071FEF798FF51
:101CB000284601224FF40071FEF792FF204682224F
:101CC0004FF40071FEF78CFF314628460122FEF7E3
:101CD00087FF284601224021FEF782FF204682220C
:101CE0004FF48061FEF77CFF204682220121FEF73F
:101CF00077FF414620464FF48172FEF771FF4FF4A3
:101D0000817210212F48DFF8E480FEF769FF20463A
:101D100003224021FEF764FF204603228021FEF7C4
:101D20005FFF204631460122FEF75AFF0122402183
:101D30002448FEF755FF012228468021FEF750FF78
:101D40002649274800F054FA4FF480634FF480523C
:101D500066832A836B83B9F90000224BC8F80C70A4
:101D60004FF49674C8F82070C8F834701C600028CE
:101D700064D01D4B00221A70202383F31188D8F8F9
:101D80000C3013B11948FFF7F3F90023184A17482C
:101D900044F62061FFF72CFA002383F311882024F6
:101DA0002AE000BF90270008001001400000014019
:101DB000000800203027000850270008702700087E
:101DC0000000024000040240002301406C0A002091
:101DD0009C0A0020840A002000080240982700087E
:101DE000D00A00208C0B002034080020480B002073
:101DF00091200008840B002084F3118864210820BE
:101E0000FFF746FA002383F31188F5E71977FEE719
:101E10005048514B416C41F010014164C02183F89E
:101E20002513C3F884215A60DBF874204B4B9A4287
:101E30007FF42FAE40F24133936032E6214600F04A
:101E40000FF9A9F8004094E7454AE96A10684A7A10
:101E50009340034242D1434C414E04EBC20403433E
:101E60006560404C4048336013F0FF0F44F8320087
:101E700004D03848026B42F40012026313F47F4F1F
:101E800004D0344A136B43F4800313630A68136865
:101E900023F01F031360136813F00103FBD10C7AC6
:101EA0004E683D20A0402124306013605461897A3F
:101EB0004B099B0001F1604403F1604303F561436A
:101EC00004F5614401F01F01012000FA01F16026D0
:101ED00084F80063C3F88011196000E00A681D49A6
:101EE000224B93604B6C2248AA6A43F480734B6484
:101EF000436803F44003002143F48033012443602A
:101F000051609160946088E6124F13487A6CDFF854
:101F100064C042F001027A647C6AB269C6F814C0F7
:101F200044F001047C627B6270234FF0007780F8FC
:101F30001933C0F88071076080F81B334FF00063DD
:101F4000C0F88031036046F6680393616446D3614C
:101F5000D3E500BF0038024000E100E0001001407E
:101F6000600A0020E0090020F10F00084C20014029
:101F70000023014000D8B805000000000000000068
:101F8000014B5B6883607047001000E000000000B8
:101F9000F8B5174F57F8044FBC4220D0054600262D
:101FA00002E02468BC421AD0E3682B43E36015B119
:101FB00022691342F5D06068A368416B027F0B432E
:101FC0000A2A43630CD00B2AEBD1026A32EA0303DC
:101FD000E7D10662FEF7CCFE2468BC42E4D1F8BD2E
:101FE000026A1342DDD00662FEF7C2FEF4E700BFCC
:101FF000D00A0020000000000000000000000000E7
:10200000144B154AF0B41846012140F8042B102453
:10201000002203F10C05114E197203F1740703F14C
:1020200054015A619A629C6303F1640203F1300423
:102030001F64DE64DD601D611C635C63DB621B6525
:102040005860996159621962DA61DA639A645A6474
:10205000F0BC7047D00A0020C0270008C102000869
:1020600070B4202383F31188084B9C69DA6800F16F
:102070000C06012504EB860405FA00F00243DA6041
:102080006160002383F3118870BC7047B40A00209C
:1020900038B5164B164993F90040164DFF20202203
:1020A00018700A8335F91410B1F5006F13DB12486C
:1020B00004EB840300EB830082F31188C3680BB147
:1020C000FFF756F8002383F311880C4B53F82430A4
:1020D00025F8143038BD01310BB21946E0B225F8AD
:1020E0001430BDE83840FFF7BBBF00BF3408002004
:1020F00000000240840B0020480B00208C0B0020C5
:10210000F8B52C4B42699842176806D02A4B984282
:1021100046D02A4B984248D0F8BD0026284C354678
:102120003146284B284A19702023538383F31188A2
:10213000E36813B12046FFF71BF820460023234A2B
:10214000234C44F62061FFF753F801370023B4FB1A
:10215000F7F424B283F311881E481F4B20F8154072
:102160001E4A1F494FF4E76014FB003382FB030251
:102170001A44DB1751F82510C3EBA223194A1BB2EE
:102180008B4232F81530B4BF013303F1FF331BB279
:102190003046194622F81530BDE8F840FFF760BF19
:1021A000012635463146104CBBE702260F4C35461A
:1021B0003146B6E76C0A00209C0A0020840A002001
:1021C000480B002034080020000002409120000845
:1021D00040420F00980B002080B2FBFF5744419D06
:1021E0008C0B0020840B00205C0B0020700B002067
:1021F0000EB42DE9F04FDFF8F4817B4B86B010ADC3
:102200000022C246029500924C21009CD8F8002082
:1022100001349268009450461C4690472178631C14
:10222000002900F038812529EFD161782D2903BFDD
:10223000A178A31C4FF0010E4FF0000E302904BF0F
:102240005978013303F101000CBF4FF030094FF012
:102250002009002305E02A78043510F8011B02EB61
:102260004603A1F13002D2B2092A044603EB8306E9
:10227000F3D92A29EFD02E294FF0000043D001F0E6
:10228000DF024C2A4ED0A1F14406342E00F25F81C9
:10229000DFE816F009015D015D015D015D010901E5
:1022A0005D015D015D015D015D0107015D015D0194
:1022B0005D015D015D0188005D015D013B015D0126
:1022C0005D015D015D015D015D015D015D015D011E
:1022D0005D01530109015D015D015D015D010901C0
:1022E0005D015D015D015D015D0107015D015D0154
:1022F0005D013D015D0188005D015D013B012A78C2
:10230000043502EB460014F8011BA1F13002D2B2F1
:10231000092A00EB8006F4D92A29F0D001F0DF0267
:102320004C2AB0D122780AB101341146A1F14402FD
:10233000342A00F20C81DFE812F0B6000A010A012B
:102340000A010A01B6000A010A010A010A010A018A
:10235000B4000A010A010A010A010A0135000A0152
:102360000A01E8000A010A010A010A010A010A0138
:102370000A010A010A010A010001B6000A010A0164
:102380000A010A01B6000A010A010A010A010A014A
:10239000B4000A010A010A01EA000A0135000A0133
:1023A0000A01E8000A2729680DF11700043500E04A
:1023B0006046B1FBF7F607FB161101F13002392A2E
:1023C000C8BF01F13702D2B200F8012C00F1FF3C86
:1023D0003146002EECD10DF11701A1EB0C0703AE35
:1023E0003146BC4406E000BF99270008D00A00200F
:1023F00010F8012B01F8012B8445F9D13744BF1B9C
:10240000DB1B019378D4BEF1000F40F0A880019A45
:10241000C2F1000B002A00F0A08031782D2900F0D5
:10242000AE80D8F8003049469B68504698471BF16B
:10243000010BF6D19DE80C00013F1344009358BFF7
:10244000CDF804B03FF5EAAEBB46D8F8003016F838
:10245000011B9B680BF1FF3B50469847BBF1FF3FC8
:10246000F3D1009B0133FB180093019B002B3FF439
:10247000D5AE1E46D8F8003049469B68504698476E
:10248000013EF7D19DE80C00217813440093631CB2
:1024900000297FF4C8AE009806B0BDE8F04F03B045
:1024A000704708277FE72968002905F1040575DBD7
:1024B00003AE374607F10B0201921046414AA2FBD8
:1024C00001C2D20802EB820B9446A1EB4B023032E0
:1024D000D2B2614600F8012D0029EFD10199091A05
:1024E000394401E010F8012F07F8012B8F42F9D190
:1024F000BF1BDB1B019386D5BEF1000F33D1013F1B
:1025000058BFCDF804E09FD588E610274BE72F6829
:102510000435002F4AD03A7858BB002A4DD03E46A9
:1025200047F6FE72374601E0013A03D417F8011F5F
:102530000029F9D14FF0200961E706AE2A6806F8B4
:102540000C2D04354FF020090DF10D0757E706AEAD
:102550000DF10D0706F80C1D51E7CDF804B0013F51
:102560007FF572AF81E7013F3FF558AE002301933D
:102570006AE712B3421E3E460028D3D1DAE7B9F12A
:10258000300F7FF44EAFD8F8002050469268904745
:10259000009B013301360093013F42E72D2249425F
:1025A0008DF80C200DF10D0703AE83E708B1064F3F
:1025B000E0E7054E47F6FE72B4E73E464FF02009CD
:1025C0001DE700BFCDCCCCCCB02700080000000038
:1025D00018280008A00B0020A00B0020A00B002052
:1025E00018280008000000000000000000000000A3
:1025F0001828000800000000000000000000000093
:102600001828000800000000000000000000000082
:102610001828000800000000000000000000000072
:102620001828000800000000000000000000000062
:102630001828000800000000000000000000000052
:102640001828000800000000000000000000000042
:10265000106002400860024000000B002860024049
:102660000860024006010C00406002400860024021
:1026700010020D00586002400860024016030E0070
:10268000706002400C60024000040F00886002404D
:102690000C60024006051000A06002400C60024081
:1026A00010061100B86002400C60024016072F00AF
:1026B00010640240086402400008380028640240A8
:1026C0000864024006093900406402400864024080
:1026D000100A3A005864024008640240160B3B009E
:1026E000706402400C640240000C3C0088640240AC
:1026F0000C640240060D4400A06402400C640240D9
:10270000100E4500B86402400C640240160F4600EB
:102710006D61696E00168118040244080C101418CB
:10272000001C1D1E00000000000000000000000052
:102730000000000040420F000121000800000000DE
:102740000000000000000000000000000000000089
:102750000000000040420F000000000001210008BE
:102760000000000001000000000000000000000068
:102770000000000040420F0000000000012100089E
:102780000000000000000000000000000000000049
:1027900069646C65000000004C6F61646564212011
:1027A0000D0A000000000000000000000000000012
:1027B000286E756C6C29000000000000000000000D
:1027C000B1130008D11400083114000841150008A5
:1027D0002114000831150008A1130008C1140008D5
:1027E000006CDC0200080000000000000100000096
:1027F00000000000010000000000000001000000D7
:1028000000000000000000000000000000000000C8
:0828100000000000FF000000C1
:04000005080001C12D
:00000001FF
