:020000040800F2
:1000000000040020C10100088118000881180008C0
:10001000811800088118000881180008811800085C
:10002000811800088118000881180008010E0008D6
:10003000811800088118000881180008811800083C
:10004000811800088118000881180008811800082C
:10005000811800088118000881180008811800081C
:10006000811800088118000881180008811800080C
:1000700081180008811800088118000881180008FC
:1000800081180008811800088118000881180008EC
:1000900081180008811800088118000881180008DC
:1000A0008118000821030008811800089103000846
:1000B00071120008511200089112000881180008FE
:1000C00081180008811800088118000881180008AC
:1000D00081180008810500086105000881180008E2
:1000E000811800088118000881180008811800088C
:1000F000811800088118000881180008811800087C
:1001000081180008811800083112000881180008C1
:10011000811800088118000881180008811800085B
:10012000811800088118000881180008811800084B
:10013000811800088118000881180008811800083B
:10014000811800088118000881180008811800082B
:10015000811800088118000881180008811800081B
:10016000811800088118000881180008811800080B
:1001700081180008811800088118000881180008FB
:1001800081180008811800088118000881180008EB
:1001900081180008811800088118000881180008DB
:1001A00081180008811800088118000881180008CB
:1001B00081180008811800088118000881180008BB
:1001C00072B6234880F30988022080F31488BFF3B5
:1001D0006F8F01F0A5FB00F073FD4FF055301D4906
:1001E0001D4A91423CBF41F8040BFAE71B49184AEB
:1001F00091423CBF41F8040BFAE71949194A1A4BDE
:100200009A423EBF51F8040B42F8040BF8E7002075
:100210001649174A91423CBF41F8040BFAE701F036
:1002200037FB01F075FB134C134DAC4203DA54F865
:10023000041B8847F9E700F0B3F9104C104DAC42AD
:1002400003DA54F8041B8847F9E701F059BB0000B2
:10025000000800200000002000040020000400200E
:10026000601B000800080020380800203808002023
:10027000200B0020C0010008C0010008C0010008D8
:10028000C0010008000000000000000000000000A5
:100290002DE9F04FC1F80CD0C3689D46BDE8F08F42
:1002A000002383F311882846A047002001F0C0FAFC
:1002B00001F06EF800DFFEE7000000000000000023
:1002C000024AD36843F08003D360704700100140B6
:1002D000024AD36843F08003D36070470044004073
:1002E00038B5074D074C0849284601F071FB074B0C
:1002F00007496B67204601F06BFB064B636738BD0F
:1003000080080020F8080020C10200080010014009
:10031000D10200080044004000000000000000007E
:1003200038B5174DAB691C69DA681440E2B2D243A4
:100330001A61A30704D56B681B690BB1284698475F
:10034000600704D56B689B690BB10D48984721077E
:1003500004D56B681B6A0BB109489847E20604D5BF
:100360006B689B6A0BB106489847E30704D56B6836
:100370009B680BB102489847BDE8384000F028BFA1
:10038000E80A00200000000000000000000000005B
:10039000FFF7C6BF000000000000000000000000E2
:1003A0002DE9F047466FD6F80CA03368DA0582B025
:1003B00005469CB200F18280202383F3118814F05B
:1003C0002F0F4AD005F1040805F10C074FF0000982
:1003D00007E0A00673681DD43468A4B214F02F0F90
:1003E0003BD02307F5D014F0080F0CBF002180216B
:1003F000E00748BF41F02001A20748BF41F040019B
:10040000630748BF41F48071404601F0E1F9A0065E
:100410007368E1D56A69002A3ED02A6A696A8A420D
:1004200044D06969501C01312862696113702A6ADD
:10043000EB699A4201D3AB692B62EB689F42CBD048
:100440001A68EA6018465760C3F8209001F0A8F9CE
:100450003468A4B214F02F0FC3D1002383F31188A2
:100460001AF0800F01D0220637D4630611D520235D
:1004700083F311886A6CAB6C9A4254D04FF6BF7309
:100480000AEA03036FF04002F3600023326083F353
:10049000118802B0BDE8F08704214046019301F0C5
:1004A00097F92A6A696A019B8A42BAD16969002967
:1004B000B7D08021404601F08BF98DE7202383F3EC
:1004C00011884FF40071043001F082F96FF48073E9
:1004D0003360002383F311886EE7202383F31188B0
:1004E000AB6C6A6C9A4205F1300724D0AA6B296C78
:1004F000581C0132AA63A864884293F8008001D393
:10050000EB6BAB642B6B9F4207D01A682A63002108
:1005100057601846196201F043F9C6F804800023B9
:1005200083F31188A1E7AB6B002BA7D0281D102106
:1005300001F04EF9A2E7AA6B002AD7D00821281DA6
:1005400001F046F94FF63F730AEA030343F0400314
:10055000F360E4E70000000000000000000000007D
:1005600008B50348FFF71CFFBDE8084000F030BEA7
:10057000F80800200000000000000000000000005B
:1005800008B50348FFF70CFFBDE8084000F020BEA7
:1005900080080020000000000000000000000000B3
:1005A000B84AB94BB94C04212DE9804811834FF06A
:1005B000FF310022186919611A61586959615A613D
:1005C000186A60F0805018621A62586A59625A625A
:1005D000196C41F080511964216841F480712160E7
:1005E000196F01F44071B1F5007F87B003D04FF46B
:1005F000803119671A67A54DDFF88C926B68A14CA2
:10060000DFF8E0C2A24EDFF8E0E2A248A249A34A26
:1006100023F400736B60D9F8303043F09F03C9F8BE
:100620003030D9F850709E4B47F09F070025C9F82D
:1006300050706FF48A676560A7604FF6DF77C4F883
:100640000CC067614FF4EE4C4FF42A27C4F820C069
:100650004FF0FF3867624FF0800AC4F800E04FF0B7
:1006600055374FF6FF747560C6F80880F7607461FF
:1006700035627562C6F800A08A4E4560C0F80880F1
:10068000C660446105624562056087484D60874EDB
:10069000C1F80880CF604C610D624D620D605560FD
:1006A000C2F80880D76054611562556215605D60BC
:1006B000C3F80880D8605C611D625D621D6000F057
:1006C000E7FC012704227A4B3274B3617560F56050
:1006D0003770FFF705FED9F84020DFF810E2754BC0
:1006E000754942F00402C9F84020DEF80800734A58
:1006F00040F00400CEF8080042F27F5098624FF0BC
:100700008040DC629D615D63DD605D605F611F60F4
:1007100081F81EA3C1F8800108609560D168684B1C
:1007200068484FF6FF042140AEF54C3EAEF5047E1E
:100730000B43D360DEF80C30634C43F08073CEF88B
:100740000C30036864603B430360102104F11C0318
:100750004FF02009D177684682F822900022E361A9
:1007600023620023A560246024616461A4F82480CE
:10077000E584CDE90423CDF8008025670195029535
:10078000039501F01DF9684600F0DAFD4F4BD4F8EF
:1007900014E00299216703F1100C04F12C01C3F855
:1007A00010C0C3F814C04FF0400CC4F840E09D6185
:1007B000C4F834C0C4F868C084F84950656625663A
:1007C00084F84A706564E4634148CEF81010414AE9
:1007D0006161A16104F15001DFF814C1DFF814E197
:1007E00021653D499D6020F0070022F00702DD6091
:1007F000196004F1540384F848706365A365CCF86C
:100800000000CEF8002085F3118862B6A369334A50
:100810009A6189F3118863693148DFF8DCE0C4F834
:100820008070022104F1780204F5967CC4F8B4705B
:1008300084F8967084F89550C4F8AC50C4F84C0114
:1008400084F89410C4F88C30C4F83051C4F8B05017
:10085000C4F89050C4F88840C4F884C0C4F82CE1AF
:100860001A61A369C4F898509968626104F1A00004
:1008700004F19C07C4F89C70C4F8A000C4F8A4005C
:100880003CE000BF00000240003802400070004021
:100890000004024000080240000C02400010024028
:1008A000001C02405555555150555555E80A002039
:1008B000000001400008004000E100E000ED00E021
:1008C0000003FA05001000E070090020C00A0020B3
:1008D000270B002000000220210E0008301A00081B
:1008E000A102000805511564A004802A002004E03C
:1008F000E40A0020E00A0020D10E0008002900F0E0
:10090000688184F8945023461B6899680029FBD1BC
:10091000A3675868E06702605A6081F31188BC4B96
:10092000C4F89030FFF7DCFC202282F31188B9492B
:100930000B7A012B0BD1B84CB84B606CC02540F042
:100940001000606483F82553C3F884215A604A6F0D
:10095000B34B9A4200F0A68103F580639A4200F0FF
:10096000A1814FF4D07393604024012042F22C15F2
:100970000023146150610224D56013601568526829
:100980000C7283F311880421A64AB261307073603F
:10099000F3603174202282F31188A34932784F68C2
:1009A00071608242B76000F05981B269706913606A
:1009B00053639363D36313645362CB680C68B0FBD7
:1009C000F4F003F00F03CC6A013F0138012B906271
:1009D000D762546003D0022B0CBF03230023486965
:1009E00000F00F00012803D0022803D143F02003B8
:1009F00043F01003C86900F00F00012803D002285B
:100A000003D143F4007343F48073486A00F00F008D
:100A1000012803D0022803D143F4005343F4805348
:100A2000096B1362002721F0FF0301254FF40040FA
:100A300085214FF0020855611761D3605064116041
:100A4000F76086F8008087F3118800F021FB2024EE
:100A500084F31188DFF8F8B1744BCBF804305846B2
:100A600000F076FA8BF8008087F3118884F3118800
:100A7000DFF8E0A16E4BCAF80430504600F068FA87
:100A80008AF8008087F3118884F31188DFF8C89111
:100A9000684BC9F80430484600F05AFA89F80080DB
:100AA00087F31188584600F07BFB504600F078FB36
:100AB000484600F075FB84F31188584600F028FA88
:100AC00087F3118884F31188504600F021FA87F3E8
:100AD000118884F31188484600F01AFA87F31188C8
:100AE00040F282324FF40071534807F1804707F516
:100AF000023700F0EDFA40F282324FF480614E4846
:100B000000F0E6FA2A4638464FF4806100F0E0FA39
:100B10002A4638464FF4805100F0DAFA82224FF428
:100B20008071454800F0D4FA2A4638464FF4807167
:100B300000F0CEFA2A4638464FF4007100F0C8FAA9
:100B4000294682223D4800F0C3FA2A46214638460B
:100B500000F0BEFA2A463846402100F0B9FA414674
:100B60008222364800F0B4FA29468222324800F048
:100B7000AFFA41464FF481722F4800F0A9FA4FF4C2
:100B8000817210212D4800F0A3FA4FF480524FF4E7
:100B900080632B483A837B832A49B0F900204FF4C5
:100BA000C8730B60BAB1284C2025284B93F900205C
:100BB000511C1CBF01321A7001339C42F6D185F3DF
:100BC00011882821082000F003FC002383F31188FA
:100BD000EBE71977FEE784F31188F168B56941F016
:100BE0000101F1606B6382F3118801331BB2038052
:100BF00084F31188F168B56941F00101F1606B631C
:100C000082F31188B0F90030002BEED1CBE700BFA2
:100C1000B01A0008800800200038024000E100E01F
:100C2000001001400000014004080020501A000894
:100C3000701A0008901A00080000024000040240E8
:100C4000040B00200C0B00200308002000080020EB
:100C5000380800206808002050080020134DB269B1
:100C6000686C134C40F001006864D5F824E011482A
:100C700070614EF0010EC5F824E06B6270234FF0F6
:100C8000007584F81933C4F88051256084F81B334B
:100C90004FF0006546F66803C4F880512560936103
:100CA000D3618AE640F2413393605DE6003802404A
:100CB00000E100E000D8B8050000000000000000DE
:100CC000264A274B4FF080504FF440411064196082
:100CD000136843F00103136013689807FCD5936809
:100CE0001E4923F003039360936893608B6813F0AD
:100CF0000C03FBD10868194A00F0F90008608B600A
:100D00004B6F43F001034B67536F9907FCD5154BAD
:100D100053601368124943F0807313604B685A04A0
:100D2000FCD50E490B689B01FCD50F4B0F4A8A601E
:100D300040F203721A608B68084A43F002038B602A
:100D4000936803F00C03082BFAD1536C43F48043EF
:100D50005364536E43F48043536670470038024037
:100D60000070004010600108003C0240001088380C
:100D700038B5C36841681C69DA681440E2B2D243EE
:100D80001A610B7D05464BB963072BD50378042BFD
:100D900025D0A10709D4E4070BD438BDA20712D58A
:100DA0000378042B0CD06307F5D50423E4072B70DC
:100DB000F3D56B6828461B69984703232B7038BD11
:100DC0008B68C3B198476307E5D52B78042BECD12A
:100DD0006968CB68002BE8D028469847E5E78B6820
:100DE00033B19847A107D6D52B78042BDDD1EFE797
:100DF000A007EED4CFE76207EBD4CCE700000000F9
:100E000080B400AFEFF30983203383F30988002314
:100E100083F31188BD4680BC704700BF000000000E
:100E200010B4202383F31188094C0A4B22681968F7
:100E3000C31D23F00703891A8B429DBF9B182360B3
:100E400010460020002383F3118810BC704700BFB8
:100E5000E40A0020E00A002000000000000000007A
:100E6000202383F31188037F072B0ED8DFE803F0DC
:100E7000270D0D2308040D08026A9368013393605F
:100E800090E80C001A600268536010B400224FF022
:100E9000FF3481680C4B046202771B689A688A42AF
:100EA000FBD25A684260036000211060586081F3F1
:100EB000118810BC7047036A00221A60E5E700231E
:100EC00083F31188704700BF700900200000000004
:100ED000FEE700BF0000000000000000000000006E
:100EE000074B99691A6810B40877106818600124D4
:100EF00043601477104610BC9A61FFF7C9B900BF70
:100F00007009002000000000000000000000000048
:100F1000C268D36810B413F0FF040CD141681461A7
:100F2000087D50B1886870B143F00603096909B1C2
:100F300043F00103D36010BC704788680028F3D1E8
:100F400043F00203F2E743F00403EFE70000000080
:100F50000378012BF0B43CD0C36800221A605A63B6
:100F60009A635A62416882688C694D68B2FBF5F2F7
:100F700024F0FF04013A00264FF6FF751E61DC6085
:100F80009A62DD620A7D72B9542240F201249C61AA
:100F90009A600A78D2B113221A6203F1380234330C
:100FA000026143610DE064224FF481749C619A6098
:100FB0000A7842B131221A6203F1340238330261F5
:100FC0004361F0BC704713221A62F5E731221A62BE
:100FD000E3E7284B984207D0274B98421BD0274B7A
:100FE00098422FD0C368BDE7254B264A196C264D81
:100FF00041F001011964196A4FF08054002741F053
:101000000101702619621F6282F81C63C2F88041D8
:1010100014608560E0E71A4B1A4A196C1A4D41F0CA
:1010200002011964196A4FF00054002741F00201CF
:10103000702619621F6282F81D63C2F88041146035
:101040008560CCE70E4B0F4A196C0F4C41F008013C
:101050001964196A002641F00801702519621E62A0
:101060004FF4802182F83253C368C2F88411516072
:10107000846077E7380800205008002068080020C6
:101080000038024000E100E000D8B8050000000090
:1010900070B40A480A4B0B4C0B4A0C4DC26001213C
:1010A00000224FF0804601701970E6602170626086
:1010B000DD6042605A6070BC704700BF500800207D
:1010C000680800203808002000040040000C0040A0
:1010D0002DE9F04F02F0030AC2F38008C2F3C10CFD
:1010E000C2F3411ED146C2F3C31200274FF00F0BCB
:1010F0000FE0036A23EA040425430562490839D056
:101100004FEA48084FEA8C0C4FEA8E0E4FEA8909E5
:101110000137CB07F2D543680124BC4023EA04031E
:1011200043EA0803436003257B00846805FA03F360
:10113000DB431C4044EA0C048460C56807F00704E4
:101140001D4045EA0E05A400BAF1020FC56002FA7F
:1011500004F50BFA04F40FD00668334043EA0903A0
:10116000072F0360C5D9436A23EA040425434908CD
:101170004562C5D1BDE8F08F072F0AD8066A26EA76
:101180000404254305620468234043EA090303601D
:10119000B4E7466A26EA040425434562F3E700BF44
:1011A00030B4202383F31188C3685A69002142F0C8
:1011B0000102052503245A6119611D60047081F341
:1011C000118830BC704700BF000000000000000024
:1011D000202383F31188114B5B6813F4006302D161
:1011E00083F31188704780B400AFEFF309834FF0A9
:1011F000807243F8042CA3F1200282F30988084A84
:10120000116892698968926891428CBF054A064AC2
:1012100043F8082CBD4680BC704700BF00ED00E0DD
:1012200070090020B1020008B402000800000000AC
:1012300008B50348FFF79CFDBDE80840FFF7C8BFAD
:10124000680800200000000000000000000000000E
:1012500008B50348FFF78CFDBDE80840FFF7B8BFAD
:101260005008002000000000000000000000000006
:1012700008B50348FFF77CFDBDE80840FFF7A8BFAD
:1012800038080020000000000000000000000000FE
:101290002DE9F843254C23699B0703D4BDE8F843A7
:1012A000FFF796BF00272761202585F31188204E80
:1012B000606AB6F826E0F36980B2A0EB0E011A89E5
:1012C00089B2914206F11C081CD31968D3F80C901E
:1012D00072444145F284C1F80480F161DF6008BFC7
:1012E000E76087F311881869C84785F31188606A39
:1012F000B6F826E0F36980B2A0EB0E011A8989B234
:101300008A42E2D9434509D07244121A92B2022AA3
:101310002CBF8218821C054B92B25A63002383F3C0
:101320001188BDE8F843FFF753BF00BF0008004035
:101330007009002000000000000000000000000014
:101340000E4B0F4A5B68C168F0B48768166F42683D
:10135000D0E90445DB1B9B1BE41845F100059342D3
:10136000026888BF436001319342C0E90445C1600F
:10137000836038BF0360F0BC704700BF001000E01E
:1013800070090020000000000000000000000000C4
:101390000D4A106870B40368946913600126002533
:1013A000A1685A6006779061257700E01B689A680B
:1013B0009142FBD35A6862602360214614605C60EE
:1013C00070BCFEF765BF00BF700900200000000080
:1013D0002DE9F0414FF6FF73994286B059D04F4C3A
:1013E000DFF840E14E4BDEF8242004932546074603
:1013F000A069059055F81C0F022938BF0221A842A8
:1014000096B272D0B4F826C0A6EB0C0692B28B1935
:10141000A2EB0C029BB29342028935DB934240D38C
:10142000934205D900689B1A02899BB29A42F9D36C
:10143000426802920DF104080190C2F80080C0F8E1
:101440000480ADF80C300289D31A4FF6FF72038185
:10145000A2843846FFF744FD049B83B1E36943450A
:1014600025D0029A019B1360019B0021AB425A6078
:10147000049104D01A89BDF80C100A441A81A3699A
:10148000186A06B0BDE8F08100689B1A9BB2028919
:10149000C6E7224CFFF724FDA369186A06B0BDE831
:1014A000F0810CEB030189B2CEF83410B8E7019E4D
:1014B000E6610023AE42756004932CD01948E18C9C
:1014C000426A3389BDF80C5092B2511A2B449BB238
:1014D00089B28B423381D2D95B1A9BB2022B2CBFCB
:1014E000D318931C9BB24363C9E78B190DF1040811
:1014F0009BB200200222E68401950295ADF80C1003
:10150000C4F81C80C4F82080CEF83430CEF8100027
:10151000CEF80C209DE7034AD360B0E770090020A5
:10152000610E0008000800400000000000000000FC
:1015300061B1084B9B6910B4186044685C60024656
:1015400023600420536010BCFFF742BF4FF0FF3010
:10155000704700BF7009002000000000000000007C
:101560002DE9F04F83B004460D4616460193D0F89E
:101570001C804FF0200989F311880027BA46A36820
:1015800005F1010B204603B36169A3684A1C013BC6
:101590006261A3602B780B7023696169994224BF53
:1015A000E3686361B8F1000F00D0C0478AF3118887
:1015B000013E07F1010712D089F31188A3685D4647
:1015C00005F1010B2046002BDED101990093204646
:1015D000FFF7AEFF009B0028D1D083F31188384677
:1015E00003B0BDE8F08F00BF000000000000000065
:1015F0003030FFF7B5BF00BF000000000000000062
:1016000030304FF6FF73FFF7ABBF00BF00000000A4
:10161000F8B504460F461646202383F3118803E0ED
:10162000FFF786FF002819DBA56831462046002D0C
:10163000F6D06269A368511C013B6161A360177019
:10164000236962699A4224BFE3686361E3690BB16D
:1016500020469847002080F31188F8BD85F3118853
:10166000F8BD00BF00000000000000000000000006
:101670003030FFF7CDBF00BF0000000000000000C9
:1016800030304FF6FF72FFF7C3BF00BF000000000D
:101690002DE9F04F044683B0894693461D46D0F8A5
:1016A0001C80202787F3118800260197B246B8F1E5
:1016B000000F05D02046C04702E0FFF739FFE0B930
:1016C000A76829462046002FF7D0A269A368511CBD
:1016D000013BA161A360137809F8013B2369A2696A
:1016E0009A4224BFE368A3618AF311880136B345A7
:1016F00005D0019B83F31188D9E787F31188304621
:1017000003B0BDE8F08F00BF000000000000000043
:101710000C30FFF7BDBF00BF00000000000000005C
:101720000C304FF6FF73FFF7B3BF00BF000000009F
:1017300070B520230E46044683F31188C3692BB18C
:10174000984703E0FFF7F4FE002815DBA568314653
:101750002046002DF6D0A169A36825694A1C013BEB
:10176000AA42A360A26128BFE368087828BFA361EA
:10177000002383F3118870BD85F3118870BD00BF0D
:101780000C30FFF7D5BF00BF0000000000000000D4
:101790000C304FF6FF71FFF7CBBF00BF0000000019
:1017A00000228168074B10B4044602771B689A68D0
:1017B0008A42FBD25A6862602360204614605C60F3
:1017C00010BC7047700900200000000000000000FD
:1017D000F8B50468A04221D00D460746002602E075
:1017E0002468A7421AD0E3682B43E36015B122694D
:1017F0001342F5D06068A368416B027F0B430A2A4D
:1018000043630CD00B2AEBD1026A32EA0303E7D11F
:101810000662FFF7C5FF2468A742E4D1F8BD026A5B
:101820001342DDD00662FFF7BBFFF4E700000000C3
:1018300038B52022034682F311880E4A9469606A03
:10184000236204F12405854206D003686362FFF732
:10185000A7FF606AA842F8D1637F9B0704D1636940
:1018600022691A61226953610F20BDE83840FFF7F1
:1018700037BB00BF7009002000000000000000001E
:10188000FEE700BF000000000000000000000000B4
:10189000F0B5134F134D144C144B154907F1700E4E
:1018A00000269C4211D904391A4651F8040F42F817
:1018B000040B9442F9D8DA43144424F003040434AA
:1018C00023449D4203D943F8046B9D42FBD87745DE
:1018D00004D007F110013AC91037E2E7F0BD00BFAC
:1018E000C01A0008200B0020200B0020200B002035
:1018F000981B00080000000000000000000000002D
:10190000FEE700BF00000000000000000000000033
:10191000704700BF00000000000000000000000051
:10192000704700BF00000000000000000000000041
:101930004369194A19481A49F0B41E68194B1A4FDD
:101940001C681A4D01364FF4E763B2FBF6F212B28F
:1019500012FB037380FB03601844DB17C3EBA02367
:101960001BB225F8022CB1F900209C42CCBF0132F9
:1019700002F1FF3212B20A80202383F311880C4B4C
:10198000D968986941F001014263D960002383F36B
:101990001188F0BC704700BF40420F005744419D82
:1019A000040B00200C0B002080B2FBFF180B002062
:1019B000E80A002000000000000000000000000015
:1019C000014B5B6883607047001000E0000000007E
:1019D000F0B50346134A43F8042B002500F15402E6
:1019E00000F10C044FF0010E102700F17406436063
:1019F000C16400F1640300F130014561C06200651B
:101A000080F808E0856287630664C46004618261CF
:101A100042620262C361C3638364436401634163DE
:101A2000F0BD00BF401B00080000000000000000E7
:101A30006D61696E00168118040244080C101418B8
:101A4000001C1D1E0000000000000000000000003F
:101A50000000000040420F003119000800000000A3
:101A60000000000000000000000000000000000076
:101A70000000000040420F00000000003119000883
:101A80000000000001000000000000000000000055
:101A90000000000040420F00000000003119000863
:101AA0000000000000000000000000000000000036
:101AB00069646C6500000000000000000000000088
:101AC000981B0008200B0020200B0020200B00207A
:101AD000981B00080000000000000000000000004B
:101AE000981B00080000000000000000000000003B
:101AF000981B00080000000000000000000000002B
:101B0000981B00080000000000000000000000001A
:101B1000981B00080000000000000000000000000A
:101B2000981B0008000000000000000000000000FA
:101B3000981B0008000000000000000000000000EA
:101B400001160008211700088116000891170008E7
:101B50007116000881170008F11500081117000818
:101B6000FFFFFF00006CDC02000800000000000026
:101B70000100000000000000010000000000000063
:101B80000100000000000000000000000000000054
:081B900000000000000000004D
:04000005080001C12D
:00000001FF
