:020000040800F2
:1000000000040020C1010008B1120008B11200086C
:10001000B1120008B1120008B1120008B1120008B4
:10002000B1120008B1120008B11200085103000813
:10003000B1120008B1120008B1120008B112000894
:10004000B1120008B1120008B1120008B112000884
:10005000B1120008B1120008B1120008B112000874
:10006000B1120008B1120008B1120008A10B00087B
:10007000710B0008410B0008110B0008E10A000891
:10008000B10A0008810A000891100008B1120008A6
:10009000B1120008B1120008B1120008B112000834
:1000A000B112000851070008B112000871130008CE
:1000B00001080008E107000821080008B112000843
:1000C000B1120008B1120008B1120008B112000804
:1000D000B112000881130008B1120008B112000823
:1000E000B1120008B1120008B1120008B1120008E4
:1000F000B1120008B1120008B1120008510A00083C
:10010000B1120008B1120008C1070008B1120008BE
:10011000B1120008B1120008B1120008B1120008B3
:10012000210A0008F1090008C10900089109000826
:1001300061090008B1120008B1120008B1120008EC
:10014000B1120008B1120008B1120008B112000883
:100150003109000801090008D1080008B11200089F
:10016000B1120008B1120008B1120008B112000863
:10017000B1120008B1120008B1120008B112000853
:10018000B1120008B1120008B1120008B112000843
:10019000B1120008B1120008B1120008B112000833
:1001A000B1120008B1120008B1120008B112000823
:1001B000B1120008B1120008B1120008B112000813
:1001C00072B6234880F30988022080F31488BFF3B5
:1001D0006F8F01F0BDF801F02BFE4FF055301D4937
:1001E0001D4A91423CBF41F8040BFAE71B49184AEB
:1001F00091423CBF41F8040BFAE71949194A1A4BDE
:100200009A423EBF51F8040B42F8040BF8E7002075
:100210001649174A91423CBF41F8040BFAE701F036
:100220004FF801F08DF8134C134DAC4203DA54F83B
:10023000041B8847F9E701F07BF9104C104DAC42E4
:1002400003DA54F8041B8847F9E701F071B800009D
:10025000000800200000002000040020000400200E
:100260003028000800080020380800203808002046
:10027000200E0020C0010008C0010008C0010008D5
:10028000C0010008000000000000000000000000A5
:100290002DE9F04FC1F80CD0C3689D46BDE8F08F42
:1002A000002383F311882846A047002000F0D8FFE0
:1002B00000F0B6FC00DFFEE70000000000000000D8
:1002C00038B5C36841681C69DA681440E2B2D243A9
:1002D0001A610B7D05464BB963072BD50378042BB8
:1002E00025D0A10709D4E4070BD438BDA20712D545
:1002F0000378042B0CD06307F5D50423E4072B7097
:10030000F3D56B6828461B69984703232B7038BDCB
:100310008B68C3B198476307E5D52B78042BECD1E4
:100320006968CB68002BE8D028469847E5E78B68DA
:1003300033B19847A107D6D52B78042BDDD1EFE751
:10034000A007EED4CFE76207EBD4CCE700000000B3
:1003500080B400AFEFF30983203383F309880023CF
:1003600083F31188BD4680BC704700BF00000000C9
:1003700010B4202383F31188094C0A4B22681968B2
:10038000C31D23F00703891A8B429DBF9B1823606E
:1003900010460020002383F3118810BC704700BF73
:1003A000E0080020DC080020000000000000000041
:1003B000202383F31188037F072B0ED8DFE803F097
:1003C000270D0D2308040D08026A9368013393601A
:1003D00090E80C001A600268536010B400224FF0DD
:1003E000FF3481680C4B046202771B689A688A426A
:1003F000FBD25A684260036000211060586081F3AC
:10040000118810BC7047036A00221A60E5E70023D8
:1004100083F31188704700BFC00C0020000000006B
:10042000FEE700BF00000000000000000000000028
:10043000C268D36810B413F0FF040CD14168146192
:10044000087D50B1886870B143F00603096909B1AD
:1004500043F00103D36010BC704788680028F3D1D3
:1004600043F00203F2E743F00403EFE7000000006B
:100470000378012BF0B43CD0C36800221A605A63A1
:100480009A635A62416882688C694D68B2FBF5F2E2
:1004900024F0FF04013A00264FF6FF751E61DC6070
:1004A0009A62DD620A7D72B9542240F201249C6195
:1004B0009A600A78D2B113221A6203F138023433F7
:1004C000026143610DE064224FF481749C619A6083
:1004D0000A7842B131221A6203F1340238330261E0
:1004E0004361F0BC704713221A62F5E731221A62A9
:1004F000E3E7284B984207D0274B98421BD0274B65
:1005000098422FD0C368BDE7254B264A196C264D6B
:1005100041F001011964196A4FF08054002741F03D
:100520000101702619621F6282F81C63C2F88041C3
:1005300014608560E0E71A4B1A4A196C1A4D41F0B5
:1005400002011964196A4FF00054002741F00201BA
:10055000702619621F6282F81D63C2F88041146020
:100560008560CCE70E4B0F4A196C0F4C41F0080127
:100570001964196A002641F00801702519621E628B
:100580004FF4802182F83253C368C2F8841151605D
:10059000846077E7E40B0020FC0B0020140C0020A3
:1005A0000038024000E100E000D8B805000000007B
:1005B00070B40A480A4B0B4C0B4A0C4DC260012127
:1005C00000224FF0804601701970E6602170626071
:1005D000DD6042605A6070BC704700BFFC0B0020B9
:1005E000140C0020E40B002000040040000C00402C
:1005F0002DE9F04F02F0030AC2F38008C2F3C10CE8
:10060000C2F3411ED146C2F3C31200274FF00F0BB5
:100610000FE0036A23EA040425430562490839D040
:100620004FEA48084FEA8C0C4FEA8E0E4FEA8909D0
:100630000137CB07F2D543680124BC4023EA040309
:1006400043EA0803436003257B00846805FA03F34B
:10065000DB431C4044EA0C048460C56807F00704CF
:100660001D4045EA0E05A400BAF1020FC56002FA6A
:1006700004F50BFA04F40FD00668334043EA09038B
:10068000072F0360C5D9436A23EA040425434908B8
:100690004562C5D1BDE8F08F072F0AD8066A26EA61
:1006A0000404254305620468234043EA0903036008
:1006B000B4E7466A26EA040425434562F3E700BF2F
:1006C00030B4202383F31188C3685A69002142F0B3
:1006D0000102052503245A6119611D60047081F32C
:1006E000118830BC704700BF00000000000000000F
:1006F000202383F31188114B5B6813F4006302D14C
:1007000083F31188704780B400AFEFF309834FF093
:10071000807243F8042CA3F1200282F30988084A6E
:10072000116892698968926891428CBF054A064AAD
:1007300043F8082CBD4680BC704700BF00ED00E0C8
:10074000C00C0020B1020008B40200080000000044
:1007500038B5174DAB691C69DA681440E2B2D24370
:100760001A61A30704D56B681B690BB1284698472B
:10077000600704D56B689B690BB10D48984721074A
:1007800004D56B681B6A0BB109489847E20604D58B
:100790006B689B6A0BB106489847E30704D56B6802
:1007A0009B680BB102489847BDE83840FFF7A0BFEF
:1007B0002C0C0020000000000000000000000000E1
:1007C00008B50348FFF77CFDBDE80840FFF790BF80
:1007D000140C0020000000000000000000000000D9
:1007E00008B50348FFF76CFDBDE80840FFF780BF80
:1007F000FC0B0020000000000000000000000000D2
:1008000008B50348FFF75CFDBDE80840FFF770BF7F
:10081000E40B0020000000000000000000000000C9
:100820002DE9F843254C23699B0703D4BDE8F84321
:10083000FFF75EBF00272761202585F31188204E32
:10084000606AB6F826E0F36980B2A0EB0E011A895F
:1008500089B2914206F11C081CD31968D3F80C9098
:1008600072444145F284C1F80480F161DF6008BF41
:10087000E76087F311881869C84785F31188606AB3
:10088000B6F826E0F36980B2A0EB0E011A8989B2AE
:100890008A42E2D9434509D07244121A92B2022A1E
:1008A0002CBF8218821C054B92B25A63002383F33B
:1008B0001188BDE8F843FFF71BBF00BF00080040E8
:1008C000C00C00200000000000000000000000003C
:1008D000084B09485968826F890D01F03D0110B538
:1008E0008C05DC600AB1C06F9047BDE81040FFF78F
:1008F000FFBE00BF00640240580800200000000056
:10090000084B09485968026F090C01F03D0110B508
:100910000C04DC600AB1406F9047BDE81040FFF75F
:10092000E7BE00BF0064024058080020000000003D
:10093000084B09485968826E890901F03D0110B5DC
:100940008C01DC600AB1C06E9047BDE81040FFF733
:10095000CFBE00BF00640240580800200000000025
:1009600008B5074B07485968026E01F03D01D96090
:100970000AB1406E9047BDE80840FFF7B9BE00BF1E
:100980000064024058080020000000000000000041
:10099000084B09481968826D890D01F03D0110B5B9
:1009A0008C059C600AB1C06D9047BDE81040FFF710
:1009B0009FBE00BF006402405808002000000000F5
:1009C000084B09481968026D090C01F03D0110B58A
:1009D0000C049C600AB1406D9047BDE81040FFF7E1
:1009E00087BE00BF006402405808002000000000DD
:1009F000084B09481968826C890901F03D0110B55E
:100A00008C019C600AB1C06C9047BDE81040FFF7B4
:100A10006FBE00BF006402405808002000000000C4
:100A200008B5074B07481968026C01F03D01996051
:100A30000AB1406C9047BDE80840FFF759BE00BFBF
:100A40000064024058080020000000000000000080
:100A5000084B09485968826B890D01F03D0110B5BA
:100A60008C05DC600AB1C06B9047BDE81040FFF711
:100A70003FBE00BF00600240580800200000000098
:100A8000084B09485968026B090C01F03D0110B58B
:100A90000C04DC600AB1406B9047BDE81040FFF7E2
:100AA00027BE00BF00600240580800200000000080
:100AB000084B09485968826A890901F03D0110B55F
:100AC0008C01DC600AB1C06A9047BDE81040FFF7B6
:100AD0000FBE00BF00600240580800200000000068
:100AE00008B5074B07485968026A01F03D01D96013
:100AF0000AB1406A9047BDE80840FFF7F9BD00BF62
:100B000000600240580800200000000000000000C3
:100B1000084B094819688269890D01F03D0110B53B
:100B20008C059C600AB1C0699047BDE81040FFF792
:100B3000DFBD00BF00600240580800200000000038
:100B4000084B094819680269090C01F03D0110B50C
:100B50000C049C600AB140699047BDE81040FFF763
:100B6000C7BD00BF00600240580800200000000020
:100B7000084B094819688268890901F03D0110B5E0
:100B80008C019C600AB1C0689047BDE81040FFF737
:100B9000AFBD00BF00600240580800200000000008
:100BA00008B5074B074A196801F03D0199601368C1
:100BB0000BB150689847BDE80840FFF799BD00BFEA
:100BC0000060024058080020000000000000000003
:100BD0000E4B0F4A5B68C168F0B48768166F4268B5
:100BE000D0E90445DB1B9B1BE41845F1000593424B
:100BF000026888BF436001319342C0E90445C16087
:100C0000836038BF0360F0BC704700BF001000E095
:100C1000C00C0020000000000000000000000000E8
:100C20000D4A106870B403689469136001260025AA
:100C3000A1685A6006779061257700E01B689A6882
:100C40009142FBD35A6862602360214614605C6065
:100C500070BCFFF71DBB00BFC00C002000000000EF
:100C6000074B99691A6810B4087710681860012456
:100C700043601477104610BC9A61FFF709BB00BFB0
:100C8000C00C002000000000000000000000000078
:100C90002DE9F0414FF6FF73994286B059D04F4C81
:100CA000DFF840E14E4BDEF824200493254607464A
:100CB000A069059055F81C0F022938BF0221A842EF
:100CC00096B272D0B4F826C0A6EB0C0692B28B197D
:100CD000A2EB0C029BB29342028935DB934240D3D4
:100CE000934205D900689B1A02899BB29A42F9D3B4
:100CF000426802920DF104080190C2F80080C0F829
:100D00000480ADF80C300289D31A4FF6FF720381CC
:100D1000A2843846FFF7A4FF049B83B1E3694345EF
:100D200025D0029A019B1360019B0021AB425A60BF
:100D3000049104D01A89BDF80C100A441A81A369E1
:100D4000186A06B0BDE8F08100689B1A9BB2028960
:100D5000C6E7224CFFF784FFA369186A06B0BDE816
:100D6000F0810CEB030189B2CEF83410B8E7019E94
:100D7000E6610023AE42756004932CD01948E18CE3
:100D8000426A3389BDF80C5092B2511A2B449BB27F
:100D900089B28B423381D2D95B1A9BB2022B2CBF12
:100DA000D318931C9BB24363C9E78B190DF1040858
:100DB0009BB200200222E68401950295ADF80C104A
:100DC000C4F81C80C4F82080CEF83430CEF810006F
:100DD000CEF80C209DE7034AD360B0E7C00C00209A
:100DE000B1030008000800400000000000000000FF
:100DF00061B1084B9B6910B4186044685C6002469E
:100E000023600420536010BCFFF742BF4FF0FF3057
:100E1000704700BFC00C0020000000000000000070
:100E20002DE9F04F83B004460D4616460193D0F8E5
:100E30001C804FF0200989F311880027BA46A36867
:100E400005F1010B204603B36169A3684A1C013B0D
:100E50006261A3602B780B7023696169994224BF9A
:100E6000E3686361B8F1000F00D0C0478AF31188CE
:100E7000013E07F1010712D089F31188A3685D468E
:100E800005F1010B2046002BDED10199009320468D
:100E9000FFF7AEFF009B0028D1D083F311883846BE
:100EA00003B0BDE8F08F00BF0000000000000000AC
:100EB0003030FFF7B5BF00BF0000000000000000A9
:100EC00030304FF6FF73FFF7ABBF00BF00000000EC
:100ED000F8B504460F461646202383F3118803E035
:100EE000FFF786FF002819DBA56831462046002D54
:100EF000F6D06269A368511C013B6161A360177061
:100F0000236962699A4224BFE3686361E3690BB1B4
:100F100020469847002080F31188F8BD85F311889A
:100F2000F8BD00BF0000000000000000000000004D
:100F30003030FFF7CDBF00BF000000000000000010
:100F400030304FF6FF72FFF7C3BF00BF0000000054
:100F50002DE9F04F044683B0894693461D46D0F8EC
:100F60001C80202787F3118800260197B246B8F12C
:100F7000000F05D02046C04702E0FFF739FFE0B977
:100F8000A76829462046002FF7D0A269A368511C04
:100F9000013BA161A360137809F8013B2369A269B1
:100FA0009A4224BFE368A3618AF311880136B345EE
:100FB00005D0019B83F31188D9E787F31188304668
:100FC00003B0BDE8F08F00BF00000000000000008B
:100FD0000C30FFF7BDBF00BF0000000000000000A4
:100FE0000C304FF6FF73FFF7B3BF00BF00000000E7
:100FF00070B520230E46044683F31188C3692BB1D4
:10100000984703E0FFF7F4FE002815DBA56831469A
:101010002046002DF6D0A169A36825694A1C013B32
:10102000AA42A360A26128BFE368087828BFA36131
:10103000002383F3118870BD85F3118870BD00BF54
:101040000C30FFF7D5BF00BF00000000000000001B
:101050000C304FF6FF71FFF7CBBF00BF0000000060
:1010600000228168074B10B4044602771B689A6817
:101070008A42FBD25A6862602360204614605C603A
:1010800010BC7047C00C00200000000000000000F1
:10109000F8B5224B1A6800211960930636D5204C0A
:1010A000E16A0A685368002B30D02569002D2DD0E5
:1010B000136823F01F031360136813F00103FBD1BF
:1010C0000F7A4E68AD68A26A3D20B84001213060B9
:1010D000536093609160EDB1052323701048A847D9
:1010E0002378052B04BF02232370002323612023D0
:1010F00083F31188606930B14FF0FF33036200233E
:101100006361FFF7ADFF002383F31188BDE8F8406A
:10111000FFF7EEBA022325612370E8E700200140C3
:10112000B00B0020000000000000000000000000E4
:1011300011F00C0F2DE9F041044634D0C06A036869
:101140001A6822F01F021A60196811F00101FBD120
:101150002269077A46689568A36A3D22BA40012051
:101160003260596099609860002D34D00523237057
:101170002046A8472378052B04BF022323700023B1
:101180002361202383F3118863693BB100214FF071
:10119000FF32616118461A62FFF762FF002383F392
:1011A0001188BDE8F08105699DB18A060FD52B78BD
:1011B000F3B16B686BB1C268012A4AD96D88846843
:1011C0005208510005FB0141BDE8F0411847CB062C
:1011D00005D4BDE8F081022325612370D1E76B6857
:1011E000002BF6D0C26881685208BDE8F04118476C
:1011F000C06A0268136823F01F031360136813F0BA
:101200000103FBD1077A46686D68A26A3D21B940A7
:1012100001203160536093609060ADB1042323706E
:10122000E268A1682046A8472378042B0CD020232D
:1012300083F311886369002BB0D0002262611846E5
:101240001A62FFF70DFFA9E7022200232270236133
:10125000EDE78168BDE8F041184700BF00000000DD
:1012600038B52022034682F311880E4A9469606AD9
:10127000236204F12405854206D003686362FFF708
:10128000EFFE606AA842F8D1637F9B0704D16369CF
:1012900022691A61226953610F20BDE83840FFF7C7
:1012A000DFBC00BFC00C00200000000000000000F8
:1012B000FEE700BF0000000000000000000000008A
:1012C000F0B5134F134D144C144B154907F1700E24
:1012D00000269C4211D904391A4651F8040F42F8ED
:1012E000040B9442F9D8DA43144424F00304043480
:1012F00023449D4203D943F8046B9D42FBD87745B4
:1013000004D007F110013AC91037E2E7F0BD00BF81
:10131000F0250008200E0020200E0020200E0020C6
:101320006828000800000000000000000000000025
:10133000FEE700BF00000000000000000000000009
:10134000704700BF00000000000000000000000027
:10135000704700BF00000000000000000000000017
:10136000024AD36843F08003D36070470010014005
:10137000FFF7EEB9000000000000000000000000D0
:101380002DE9F043674D6E6FD6F80C903368DA059F
:1013900083B09CB27DD4202383F3118814F02F0FE7
:1013A00046D0614F4FF0000807E0A10673681CD4D7
:1013B0003468A4B214F02F0F3AD02307F5D014F0FC
:1013C000080F0CBF00208020E10748BF40F020003C
:1013D000A20748BF40F04000630748BF40F4807058
:1013E00001F09EF8A1067368E2D56A69002A40D030
:1013F0002A6A696A8A4245D06969501C01312862AB
:10140000696113702A6AEB699A4201D3AB692B6256
:10141000EB68BB42CCD01A68EA6018465760C3F844
:101420002080FFF71DFE3468A4B214F02F0FC4D142
:10143000002383F3118819F0800F01D0220636D4DF
:10144000630611D5202383F311886A6CAB6C9A4232
:1014500052D04FF6BF7309EA03036FF04002F36006
:101460000023326083F3118803B0BDE8F043FFF737
:101470003FB90420019301F053F82A6A696A019B7D
:101480008A42B9D169690029B6D0802001F048F8B4
:101490008EE7202383F311884FF4007001F040F8A9
:1014A0006FF480733360002383F3118873E7202384
:1014B00083F31188AB6C6A6C9A4224D0AA6B296CB6
:1014C000581C0132AA63A86488421F7801D3EB6BD1
:1014D000AB642B6B154A934209D0196829634FF00E
:1014E000000E4A601846C3F820E0FFF7B9FD7760A8
:1014F000002383F31188A3E7AB6B002BA9D0102046
:1015000001F00EF8A5E7AA6B002AD7D0082001F059
:1015100007F84FF63F7309EA030343F04003F36013
:10152000E6E700BF480C0020540C0020780C002097
:101530001A4B1B4C1A694FF0FF3100222DE98048ED
:1015400019611A61586959615A61186A60F08050CE
:1015500018621A62586A59625A62196C41F08051D5
:101560001964216841F480712160196F01F44071A0
:10157000B1F5007F8BB003D04FF4803119671A6743
:101580000748084A4368084C23F400734360074B3C
:1015900000218B460D4619600CE000BF0038024068
:1015A000007000407C26000810600240D80800202F
:1015B00052F80C4CC34B256043F83B500BF1010B28
:1015C000BBF1100F02F10C02F2D1DFF85893DFF8F3
:1015D00058C3DFF858A3BC4CBC4ADFF854E3BC4FF7
:1015E000BC4EBD48BD49DFF84C834FF0FF33C9F80E
:1015F0000830C9F80C30CCF80830CCF80C30DAF8E8
:1016000030C0DFF834934CF09F0CCAF830C0DAF8E1
:1016100050C04CF09F0CCAF850C06FF48A6C6560E3
:10162000C4F808C04FF6DF7CE260C4F814C04FF481
:10163000EE4CC4F820C04FF42A2CC4F824C08022F9
:10164000C4F800904FF0553C4FF6FF74CEF80450AC
:10165000CEF80830CEF80CC0CEF81440CEF82050AA
:10166000CEF82450CEF800209D4A7D60BB60FA6021
:101670009C4A7C614FF001093D62DFF8C0E27D6267
:101680003D60602745608360C0F80CC0446105621E
:10169000456205604D604FF480208B60C1F80CC03E
:1016A0004C61DFF89CC20D624D620D605560A1F582
:1016B000704193600393C2F80CE05461DFF884E258
:1016C00015625562156086F8009006F1180288F8D8
:1016D0001273854FC8F88001C8F80000C6F82CE0E6
:1016E000C6F830C0B162B2617560B560F560356151
:1016F00075613562F261FEF75BFF04217B4A397444
:10170000BA6187F800907D60FD6000F041FFDAF873
:1017100040107748774ADFF830E2DFF830C241F016
:101720000401CAF84010816841F0040181606FF043
:101730007F034FF0804142F27F509062D462956106
:101740005563D5605560C2F81490C2F8009088F8CF
:101750001E33C8F88011C8F80010CEF80850DEF823
:101760000C206548654C6649664B22F4E062120421
:10177000120C42EA0C0CCEF80CC0D0F80CC064601D
:101780004CF0807CC0F80CC008685F4AA56040EA55
:101790000900086004F11C0C20218EF81FB004A879
:1017A0008EF822104FF0000B0191C4F81CC0C4F851
:1017B00020C024614FF0000C246064615367039BD8
:1017C0000292CDE908BCA3840493E58425670595BE
:1017D0000695079500F09CFE04A8FFF7F9F94B4B1E
:1017E00006994B48216761699D6103F1100C20F057
:1017F00007024FF0400E04F12C00C3F810C0C3F8EC
:1018000014C0C4F834E0C4F868E084F84950656650
:10181000256684F84A906564E4632164DFF830B19A
:1018200008616061A06104F15000DFF828E1DFF891
:1018300028C1206537489D602BF0070BDD601860DC
:1018400004F1540384F848906365A365CEF800B0B2
:10185000CCF8002085F3118862B6A3692E48986100
:10186000019981F311884FF0020CD4F814B084F878
:1018700094C004F5967E04F17803C4F884E0274A06
:101880002748C4F82C0104F1A00E04F19C0CC4F804
:101890003051C4F8809084F89550C4F8B490C4F8DE
:1018A000B050C4F8AC5084F89690C4F89050C4F886
:1018B0008840C4F88CB0C4F84C211846CBF81030DE
:1018C0004CE000BF5808002000000240055115649C
:1018D00000080240B00B0020000C02400010024043
:1018E00055555551001C02402C0C002000000140B1
:1018F000002004E000080040F0ED00E0C00C0020F3
:10190000001000E000100140480C002038080020C2
:10191000000002207103000830270008A10200081F
:1019200021040008006002400064024000380240C8
:101930000004024000E100E0A004802A5055555503
:10194000162C02000027000800ED00E00003FA0555
:10195000270E0020E0080020DC080020C4F89CC00E
:10196000C4F8A0E0C4F8A4E00191636100F0A0FD18
:1019700085F31188C74BC4F8903000F009FE029A35
:10198000C54B5367019981F31188137A4B4500F0D9
:101990002B82536FC0498B4200F0228201F5806197
:1019A0008B4200F01D824FF4D071996040251D617B
:1019B000012142F22C1000255961D8601D600220DF
:1019C000D3F800E05B68107285F311880422B34BF2
:1019D000BB6139707D60FD603A74202383F3118808
:1019E000AF483B78D0F804E078608B42C7F808E055
:1019F00000F07081B969D7F814C00D604D638D6334
:101A0000CD630D644D62C3680268BCFBF2F203F063
:101A10000F030EF1FF35013AD0F82CE08A62012B5A
:101A2000CD62C1F804E003D0022B0CBF03230023D6
:101A3000426902F00F02012A03D0022A03D143F0C7
:101A4000200343F01003C26902F00F02012A03D001
:101A5000022A03D143F4007343F48073426A02F014
:101A60000F02012A03D0022A03D143F4005343F4A6
:101A70008053026B0B624FF0000822F0FF034FF01F
:101A8000010E4FF4004085220225C1F814E0C1F890
:101A90001080CB6048640A60C7F80C803D7088F302
:101AA0001188FEF785FD202787F31188DFF800B243
:101AB0007C4ACBF804205846FEF7DAFC8BF800503D
:101AC00088F3118887F31188DFF8E8A1764ACAF80D
:101AD00004205046FEF7CCFC8AF8005088F31188A9
:101AE00087F31188DFF8D091704AC9F8042048467E
:101AF000FEF7BEFC89F8005088F311885846FEF7BF
:101B0000DFFD5046FEF7DCFD4846FEF7D9FD87F3C2
:101B100011883378C6F80480012B00F00181022778
:101B20003770002686F31188202585F311886048D8
:101B3000FEF77EFC86F3118885F311885D48FEF779
:101B400077FC86F3118885F311885B48FEF770FCFB
:101B500086F3118840F282324FF400415748FEF775
:101B600047FD40F2823208215548FEF741FD01222F
:101B70004FF480615348FEF73BFD01224FF4805142
:101B80005048FEF735FD82224FF480714B48FEF736
:101B90002FFD01224FF480714A48FEF729FD0122F2
:101BA0004FF400714748FEF723FD82224FF4007185
:101BB0004248FEF71DFD294601224248FEF718FD66
:101BC000012240213F48FEF713FD82224FF480613D
:101BD0003A48FEF70DFD822201213848FEF708FD44
:101BE00039464FF481723548FEF702FD4FF4817299
:101BF00010213348FEF7FCFC032240212F48FEF75A
:101C0000F7FC032280212D48FEF7F2FC2946012231
:101C10002A48FEF7EDFC012240212948FEF7E8FCA6
:101C2000012280212748FEF7E3FC85F31188264B2B
:101C300062692649C3F8C412DFF894E01F77402197
:101C40000120C3F8A4E298775A61C3F8A8625E77CE
:101C50009E635E639E611C6103F5297ED96303F177
:101C60002407136103F128021846C3F80CE09960B9
:101C70005F629A62DA62636100F01AFC86F311888F
:101C800085F3118864210820FFF702F8002383F30D
:101C90001188F5E7B027000800100140000001405E
:101CA000000800205027000870270008902700082F
:101CB000E40B0020140C0020FC0B0020000002406C
:101CC0000004024000080240E8080020A1020008C9
:101CD000812300084B4A4C4B516CDFF844C141F062
:101CE00001015164D2F82480B969C7F814C048F0E2
:101CF0000108C2F82480556270224FF0007583F805
:101D00001923C3F880511D6083F81B234FF0006234
:101D1000C3F880211A6046F668038B61CB6172E6D6
:101D20003A4AF16A10684A7A9340034242D1384DE8
:101D3000364F05EBC20503436E60354D35483B60B9
:101D400013F0FF0F45F8320004D02E48026B42F426
:101D50000012026313F47F4F04D02A4A136B43F43A
:101D6000800313630A68136823F01F03136013686A
:101D700013F00103FBD10F7A4D683D20B8402127B5
:101D8000286013605761897A4B099B0001F1604517
:101D900003F1604303F5614305F5614501F01F015F
:101DA000012000FA01F1602785F80073C3F8801163
:101DB000196000E00A681349174B93604B6C174891
:101DC000B26A43F480734B64436803F44003002118
:101DD00043F48033012543605160916095609EE635
:101DE00040F241319960E1E5DAF84430C02043F037
:101DF0001003CAF8443088F82503C8F88411C8F8DD
:101E00000410C6E50038024000E100E0D8080020D8
:101E100058080020311100084C20014000230140E7
:101E200000D8B8050000000000000000000000001D
:101E3000264A274B4FF080504FF440411064196000
:101E4000136843F00103136013689807FCD5936887
:101E50001E4923F003039360936893608B6813F02B
:101E60000C03FBD10868194A00F0F90008608B6088
:101E70004B6F43F001034B67536F9907FCD5154B2C
:101E800053601368124943F0807313604B685A041F
:101E9000FCD50E490B689B01FCD50F4B0F4A8A609D
:101EA00040F203721A608B68084A43F002038B60A9
:101EB000936803F00C03082BFAD1536C43F480436E
:101EC0005364536E43F480435366704700380240B6
:101ED0000070004010600108003C0240001088388B
:101EE00043692749274A70B41C68274E274D01349F
:101EF0004FF4E763B1FBF4F109B211FB036382FB1A
:101F000003421A44DB17C3EBA223A8421BB207D03B
:101F10001F4A90422DD01F4A90422DD070BC70476E
:101F2000012500221C4C1D4EA05626F81210002B35
:101F300000EAE071A15417DB194931F81230013B76
:101F40001BB221F81230202181F3118815498C69C8
:101F5000C8680C3204EB820405436360CD60002343
:101F600083F3118870BC70470D4931F8123001338A
:101F7000E6E702250122D5E704250222D2E700BFC9
:101F800040420F005744419D80B2FBFFE40B00200C
:101F9000140C0020FC0B002034080020180E002038
:101FA000100E00202C0C002000000000000000009B
:101FB0000EB42DE9F04F86B00FAF9F4D57F8046B6C
:101FC00002974FF0000B3178731C61B1252910D0B6
:101FD0002A68994892681E46904731780BF1010BA8
:101FE000731C0029F2D1584606B0BDE8F04F03B08B
:101FF000704772782D2A03BFB278B31C4FF0010CE2
:102000004FF0000C302A03BF5A7801334FF03009EB
:102010004FF02009591C002405E03B78043711F8E3
:10202000012B03EB4004A2F13003DBB2092B0E4677
:1020300004EB8400F3D92A2AEFD02E2A4FF00001B6
:1020400043D002F0DF034C2B4ED0A2F144003428E1
:1020500000F25181DFE810F0FE004F014F014F0107
:102060004F01FE004F014F014F014F014F01F8009A
:102070004F014F014F014F014F0188004F014F01A8
:10208000FB004F014F014F014F014F014F014F0125
:102090004F014F014F014301FE004F014F014F011E
:1020A0004F01FE004F014F014F014F014F01F8005A
:1020B0004F014F014F0129014F0188004F014F018E
:1020C000FB003B78043703EB400116F8012BA2F12B
:1020D0003003DBB2092B01EB8100F4D92A2AF0D0BE
:1020E00002F0DF034C2BB0D133780BB101361A4626
:1020F000A2F14403342B00F2FE80DFE813F0AB00C2
:10210000FC00FC00FC00FC00AB00FC00FC00FC0040
:10211000FC00FC00A500FC00FC00FC00FC00FC0036
:102120003500FC00FC00A800FC00FC00FC00FC00EA
:10213000FC00FC00FC00FC00FC00FC00F000AB001C
:10214000FC00FC00FC00FC00AB00FC00FC00FC0000
:10215000FC00FC00A500FC00FC00FC00D600FC001C
:102160003500FC00FC00A8004FF00A083A680DF1A9
:102170001701043700E00146B2FBF8FE08FB1E22FF
:1021800002F13003392BC8BF02F13703DBB27246CC
:1021900001F8013C481E002AEDD10DF117020DF1A6
:1021A0000C08121AC646104401E011F8013B0EF863
:1021B000013B8842F9D1531E0193A41A3ED4BCF1CD
:1021C000000F40F0A180C4F1000A002C00F09B80B9
:1021D00098F800102D2900F0A6802B6849469B68CE
:1021E000284698471AF1010AF7D1019B002BA34416
:1021F000A8BF5446FFF6E7AEDDF804A02B6818F838
:10220000011B9B680AF1FF3A28469847BAF1FF3F45
:10221000F4D1019B0BF1010B9B44002C3FF4D3AE96
:10222000A0462B6849469B6828469847B8F10108A4
:10223000F7D1A344C7E600BF480C0020019B002B48
:10224000A8BF0024D8DABEE64FF008088EE74FF0AA
:1022500010088BE73968002907F1040773DB0DF1DB
:102260000C08424602F10B03019318463E4BA3FBB8
:1022700001E3DB0803EB830A9E46A1EB4A033033FC
:10228000DBB2714600F8013D0029EFD10199091A2E
:10229000114401E010F8013F02F8013B8A42F9D1F4
:1022A000A2EB0802531E019387E7D7F8008004379A
:1022B000B8F1000F50D098F8003051B36BB301392A
:1022C000424601E0013903D412F8013F002BF9D155
:1022D000A2EB0802531E01934FF020096DE70DF1A8
:1022E00018083B6808F80C3D0023043701930122CD
:1022F0004FF0200961E70DF11808002308F80C2DB4
:102300000193012259E75446019B002BBFF674AF9D
:1023100083E747F6FE71002BD2D14FF0FF330193D4
:102320004FF020094BE7B9F1300F7FF456AF2A6820
:102330000E4892689047019B013B08F101080BF1A0
:10234000010B019349E72D2349428DF80C300DF123
:102350000D020DF10C0885E7DFF814800029AED1DD
:1023600047F6FF71ABE700BFCDCCCCCC480C0020CA
:10237000D02700080000000000000000000000005E
:102380002DE980483C4CDFF814818DB00DF10E072B
:102390004FF02009BA464FF0000B01975FFA8BF31C
:1023A000364ADD074CBFA2F81A90A2F818904021D7
:1023B00098070A464BBF324A314951830A8313F0CA
:1023C000040F304B4FF0800114BF5983198389F3F8
:1023D00011880320E36A20701A682B4B216B23615C
:1023E0000123E360A760D760536011601168274D37
:1023F000A36AAE69DFF8A8C041F0010111600025B1
:102400004FF040621D60DD601D61DD621A6340F2C5
:1024100003325D63C3F804C09A6002F180429A609F
:102420001B4B33626661FEF71BFC85F31188BDF818
:102430000E302AF8023F0BF1010BBBF1080FAAF88E
:102440001050ABD1019E134D36F9022F294640465C
:10245000FFF7AEFD0DF12E03B342F5D10E49404614
:10246000FFF7A6FD89F3118801210820FEF710FC73
:10247000002383F311888DE7B00B00200000024099
:102480000004024000080240E0270008C00C0020C1
:10249000C40B0020C0270008C4270008480C0020F7
:1024A0000001000400000000000000000000000027
:1024B000144B70B4002204469D690262A868A168AA
:1024C00081420BD822771B689A689142FBD95A68DF
:1024D0006260236014605C6070BC70472A771A46A3
:1024E000126891688842FBD95068686001262A60AA
:1024F000056055602677294620469C6170BCFDF733
:10250000C7BE00BFC00C002000000000000000009B
:10251000014B5B6883607047001000E00000000022
:10252000F8B5174F57F8044FBC4220D00546002697
:1025300002E02468BC421AD0E3682B43E36015B183
:1025400022691342F5D06068A368416B027F0B4398
:102550000A2A43630CD00B2AEBD1026A32EA030346
:10256000E7D10662FEF77CFD2468BC42E4D1F8BDE9
:10257000026A1342DDD00662FEF772FDF4E700BF87
:10258000480C0020000000000000000000000000D7
:10259000144B154AF0B41846012140F8042B1024BE
:1025A000002203F10C05114E197203F1740703F1B7
:1025B00054015A619A629C6303F1640203F130048E
:1025C0001F64DE64DD601D611C635C63DB621B6590
:1025D0005860996159621962DA61DA639A645A64DF
:1025E000F0BC7047480C0020102800086113000858
:1025F00068280008200E0020200E0020200E002059
:102600006828000800000000000000000000000032
:102610006828000800000000000000000000000022
:102620006828000800000000000000000000000012
:102630006828000800000000000000000000000002
:1026400068280008000000000000000000000000F2
:1026500068280008000000000000000000000000E2
:1026600068280008000000000000000000000000D2
:10267000106002400860024000000B002860024029
:102680000860024006010C00406002400860024001
:1026900010020D00586002400860024016030E0050
:1026A000706002400C60024000040F00886002402D
:1026B0000C60024006051000A06002400C60024061
:1026C00010061100B86002400C60024016072F008F
:1026D0001064024008640240000838002864024088
:1026E0000864024006093900406402400864024060
:1026F000100A3A005864024008640240160B3B007E
:10270000706402400C640240000C3C00886402408B
:102710000C640240060D4400A06402400C640240B8
:10272000100E4500B86402400C640240160F4600CB
:102730006D61696E00168118040244080C101418AB
:10274000001C1D1E00000000000000000000000032
:102750000000000040420F00E11E000800000000E1
:102760000000000000000000000000000000000069
:102770000000000040420F0000000000E11E0008C1
:102780000000000001000000000000000000000048
:102790000000000040420F0000000000E11E0008A1
:1027A0000000000000000000000000000000000029
:1027B00069646C650000000000000000000000007B
:1027C000256420000A0D0000000000000000000049
:1027D000286E756C6C2900000000000000000000ED
:1027E00000000100000000000000000000000000E8
:1027F0000000004000000000000000000000000099
:102800000000000C000000000000000000000000BC
:10281000C10E0008E10F0008410F00085110000828
:10282000310F000841100008B10E0008D10F000858
:10283000006CDC0200080000000000000100000045
:102840000000000001000000000000000100000086
:102850000000000000000000000000000000000078
:0828600000000000FDFDFD0079
:04000005080001C12D
:00000001FF
