:020000040800F2
:1000000000040020C1010008F1130008F1130008EA
:10001000F1130008F1130008F1130008F1130008B0
:10002000F1130008F1130008F1130008E10B0008B8
:10003000F1130008F1130008F1130008F113000890
:10004000F1130008F1130008F1130008F113000880
:10005000F1130008F1130008F1130008F113000870
:10006000F1130008F1130008F1130008B10B0008A8
:10007000810B0008510B0008210B0008F10A000851
:10008000C10A0008910A0008010F0008F1130008D6
:10009000F1130008F1130008F1130008F113000830
:1000A000F113000851070008F1130008C107000808
:1000B00011080008F107000831080008F1130008D2
:1000C000F1130008F1130008F1130008F113000800
:1000D000F1130008510D0008F1130008F113000896
:1000E000F1130008F1130008F1130008F1130008E0
:1000F000F1130008F1130008F1130008610A000869
:10010000F1130008F1130008D1070008F1130008EB
:10011000F1130008F1130008F1130008F1130008AF
:10012000310A0008010A0008D1090008A1090008E5
:1001300071090008F1130008F1130008F113000819
:10014000F1130008F1130008F1130008F11300087F
:100150004109000811090008E1080008F11300082E
:10016000F1130008F1130008F1130008F11300085F
:10017000F1130008F1130008F1130008F11300084F
:10018000F1130008F1130008F1130008F11300083F
:10019000F1130008F1130008F1130008F11300082F
:1001A000F1130008F1130008F1130008F11300081F
:1001B000F1130008F1130008F1130008F11300080F
:1001C00072B6234880F30988022080F31488BFF3B5
:1001D0006F8F02F0E5F902F0F3F84FF055301D494A
:1001E0001D4A91423CBF41F8040BFAE71B49184AEB
:1001F00091423CBF41F8040BFAE71949194A1A4BDE
:100200009A423EBF51F8040B42F8040BF8E7002075
:100210001649174A91423CBF41F8040BFAE702F035
:1002200077F902F0B5F9134C134DAC4203DA54F8E8
:10023000041B8847F9E701F053FC104C104DAC4209
:1002400003DA54F8041B8847F9E702F099B9000073
:10025000000800200000002000040020000400200E
:10026000E027000800080020380800203808002097
:100270009C0B0020C0010008C0010008C00100085C
:10028000C0010008000000000000000000000000A5
:100290002DE9F04FC1F80CD0C3689D46BDE8F08F42
:1002A000002383F311882846A047002002F0E8F8D5
:1002B00002F00EF900DFFEE7000000000000000081
:1002C000014B5B6883607047001000E00000000095
:1002D000024AD36843F08003D360704700100140A6
:1002E000144B154A70B41846144C40F8042B0125E1
:1002F000002210211D7203F174065A6103F10C05EE
:100300009A62996303F1640203F15401DC6403F11E
:1003100030041E64C3E90355C3E90C44DB621B656A
:1003200058609961C3E90811DA61DA63C3E91122FF
:1003300070BC7047D0080020C0270008D102000818
:1003400030B4202383F31188084B9C69DA6800F1EC
:100350000C0504EB8504012585402A43DA606160C1
:10036000002383F3118830BC704700BFB40800201D
:10037000FEE700BF000000000000000000000000D9
:100380000346202282F311880849094A0868126846
:10039000073323F00703121A93429ABF1B180B600E
:1003A0000020002383F31188704700BF900B0020CA
:1003B0003C0B0020000000000000000000000000D6
:1003C000F8B5C36841681A69DC681440E2B2D243E8
:1003D0001A610B7D054604F0020704F00406C3B958
:1003E0007EB10378042B09D087B9E30705D56B6884
:1003F00028461B69984703232B70F8BD8B6803B30D
:100400009847002FF1D02B78042B11D004232B70A8
:10041000EBE747B10378042B02D0002EF6D1E4E7D6
:100420008B688BB19847002EDFD02B78042BEDD151
:100430006968CB68002BE9D02846984704232B70C5
:10044000D3E7002FF5D1D0E7002EF2D1CDE700BFE2
:10045000C268D36810B413F0FF040CD14168146172
:100460000C7D88684CB968B143F00603096909B18D
:1004700043F00103D36010BC70470028F4D143F06F
:100480000403F3E743F00203F0E700BF00000000BD
:100490000278C368012A30B437D000221A605A6348
:1004A0009A635A62D0E901128C694D68B2FBF5F289
:1004B00000251D6124F0FF04013A4FF6FF75DC6052
:1004C0009A62DD620C7D0A788CB940F201245421D5
:1004D0009C61996042B113221A6203F138023433ED
:1004E000C0E9042330BC704731221A62F5E74FF4AB
:1004F000817464219C6199603ABB13221A6203F1F2
:1005000034023833C0E90423ECE7284A904236D05D
:10051000274A90421CD0274A9042C3D1264A2749F5
:10052000146C274D44F008041464146A44F0080461
:100530001462002414624FF48022702481F8324344
:10054000C1F884214A608560ACE731221A62D6E79F
:10055000194A1A49146C1A4D44F002041464146ABE
:1005600044F002041462002414624FF0005270241C
:1005700081F81D43C1F880210A60856092E70E4A28
:100580000E49146C0E4D44F001041464146A44F0D6
:1005900001041462002414624FF08052702481F828
:1005A0001C43C1F880210A6085607BE76C0800204D
:1005B000840800209C0800200038024000E100E090
:1005C00000D8B80500000000000000000000000096
:1005D00030B40A480A4C0B4B0B4AC26001214FF061
:1005E00080450022E560017005F5406519702170B5
:1005F0006260DD6042605A6030BC70478408002051
:100600006C0800209C08002000040040000000004E
:1006100002F0030C2DE9F047D209674600244FF0A1
:1006200001094FF003084FF00F0E0FE0D0F800A0C3
:1006300003EA0A033B43072C036035D8036A1E40D4
:100640003543056249082DD0BF000134CB07F9D5E9
:10065000436809FA04F523EA0503436063008568EB
:1006600008FA03F3DB431D408560C66804F0070504
:10067000AD001E400EFA05FABCF1020FC66002FA88
:1006800005F56FEA0A06D1D1072C12D8D0F820A0C0
:1006900006EA0A063543056205682B403B434908D4
:1006A0000360D1D1BDE8F087436A1E4035434562FF
:1006B000C8E7D0F824A006EA0A0635434562EBE70E
:1006C00030B4202383F31188C3685A69002142F0B3
:1006D0000102052503245A6119611D60047081F32C
:1006E000118830BC704700BF00000000000000000F
:1006F000202383F31188114B5B6813F4006302D14C
:1007000083F31188704780B400AFEFF309834FF093
:10071000807243F8042CA3F1200282F30988084A6E
:10072000116892698968926891428CBF054A064AAD
:1007300043F8082CBD4680BC704700BF00ED00E0C8
:1007400048090020B1020008B402000800000000BF
:1007500038B5174DAB691C69DA681440E2B2D24370
:100760001A61A30704D56B681B690BB1284698472B
:10077000600704D56B689B690BB10D48984721074A
:1007800004D56B681B6A0BB109489847E20604D58B
:100790006B689B6A0BB106489847E30704D56B6802
:1007A0009B680BB102489847BDE83840FFF7A0BFEF
:1007B000B40800200000000000000000000000005D
:1007C000FFF7C6BF000000000000000000000000AE
:1007D00008B50348FFF7F4FDBDE80840FFF788BF00
:1007E0009C08002000000000000000000000000045
:1007F00008B50348FFF7E4FDBDE80840FFF778BF00
:10080000840800200000000000000000000000003C
:1008100008B50348FFF7D4FDBDE80840FFF768BFFF
:100820006C08002000000000000000000000000034
:10083000264A13699B0701D4FFF75ABF2DE9F041FF
:1008400000271761202686F31188214C506AB4F8DE
:1008500026C0E16980B2A0EB0C050B89ADB29D42C8
:1008600038BF04F11C081ED3154604F11C080A68A1
:1008700063444245E384CB68C2F80480E261CF6000
:1008800008BFEF6087F311880869984786F31188DD
:10089000686AB4F826C0E16980B2A0EB0C020B894B
:1008A00092B29342E3D9414509D063441B1A9BB2EB
:1008B000022B2CBFC318831C044A9BB25363002332
:1008C00083F31188BDE8F041FFF712BF0008004034
:1008D00048090020000000000000000000000000A7
:1008E000084B09485968826F890D01F03D0110B528
:1008F0008C05DC600AB1C06F9047BDE81040FFF77F
:10090000F7BE00BF00640240B80A002000000000EB
:10091000084B09485968026F090C01F03D0110B5F8
:100920000C04DC600AB1406F9047BDE81040FFF74F
:10093000DFBE00BF00640240B80A002000000000D3
:10094000084B09485968826E890901F03D0110B5CC
:100950008C01DC600AB1C06E9047BDE81040FFF723
:10096000C7BE00BF00640240B80A002000000000BB
:1009700008B5074B07485968026E01F03D01D96080
:100980000AB1406E9047BDE80840FFF7B1BE00BF16
:1009900000640240B80A00200000000000000000CF
:1009A000084B09481968826D890D01F03D0110B5A9
:1009B0008C059C600AB1C06D9047BDE81040FFF700
:1009C00097BE00BF00640240B80A0020000000008B
:1009D000084B09481968026D090C01F03D0110B57A
:1009E0000C049C600AB1406D9047BDE81040FFF7D1
:1009F0007FBE00BF00640240B80A00200000000073
:100A0000084B09481968826C890901F03D0110B54D
:100A10008C019C600AB1C06C9047BDE81040FFF7A4
:100A200067BE00BF00640240B80A0020000000005A
:100A300008B5074B07481968026C01F03D01996041
:100A40000AB1406C9047BDE80840FFF751BE00BFB7
:100A500000640240B80A002000000000000000000E
:100A6000084B09485968826B890D01F03D0110B5AA
:100A70008C05DC600AB1C06B9047BDE81040FFF701
:100A800037BE00BF00600240B80A0020000000002E
:100A9000084B09485968026B090C01F03D0110B57B
:100AA0000C04DC600AB1406B9047BDE81040FFF7D2
:100AB0001FBE00BF00600240B80A00200000000016
:100AC000084B09485968826A890901F03D0110B54F
:100AD0008C01DC600AB1C06A9047BDE81040FFF7A6
:100AE00007BE00BF00600240B80A002000000000FE
:100AF00008B5074B07485968026A01F03D01D96003
:100B00000AB1406A9047BDE80840FFF7F1BD00BF59
:100B100000600240B80A0020000000000000000051
:100B2000084B094819688269890D01F03D0110B52B
:100B30008C059C600AB1C0699047BDE81040FFF782
:100B4000D7BD00BF00600240B80A002000000000CE
:100B5000084B094819680269090C01F03D0110B5FC
:100B60000C049C600AB140699047BDE81040FFF753
:100B7000BFBD00BF00600240B80A002000000000B6
:100B8000084B094819688268890901F03D0110B5D0
:100B90008C019C600AB1C0689047BDE81040FFF727
:100BA000A7BD00BF00600240B80A0020000000009E
:100BB00008B5074B074A196801F03D0199601368B1
:100BC0000BB150689847BDE80840FFF791BD00BFE2
:100BD00000600240B80A0020000000000000000091
:100BE00080B400AFEFF30983203383F30988002337
:100BF00083F31188BD4680BC704700BF0000000031
:100C00000F4A104B52681B6F81682DE93008D31AC8
:100C1000D0E90445C2685B1A01324168C26014EB36
:100C2000030B0268836045F1000C8B4288BF436070
:100C30009342C0E904BC38BF0360BDE83008704788
:100C4000001000E048090020000000000000000043
:100C5000202383F31188037F072B0DD8DFE803F0EF
:100C6000260C0C2208040C08026A93680133936076
:100C7000D0E9003213605A6010B400224FF0FF3404
:100C800081680C4B046202771B689A688A42FBD227
:100C90005A680021C0E900321060586081F3118861
:100CA00010BC7047036A00221A60E5E7002383F353
:100CB0001188704748090020000000000000000073
:100CC00000228168074B10B4044602771B689A68BB
:100CD0008A42FBD25A682046C4E9003214605C6044
:100CE00010BC704748090020000000000000000010
:100CF000F8B5154F57F8044FBC421FD005460026E3
:100D000004E00B2A1BD02468BC4217D0E3682B43B5
:100D1000E36015B122691342F5D0D4E90103416BB8
:100D2000027F0B430A2A4363EBD1026A1342EAD0E3
:100D30000662FFF7C5FF2468BC42E7D1F8BD026A2E
:100D400032EA0303DFD1F3E7D008002000000000FF
:100D50002DE9F047674C666FD6F80C803368DA05EA
:100D60009DB27DD4202383F3118815F02F0F49D035
:100D7000614F4FF0000908E0A906D6F804A01DD481
:100D80003568ADB215F02F0F3CD02B07F4D015F01D
:100D9000080F0CBF00208020E90748BF40F020006A
:100DA000AA0748BF40F040006B0748BF40F480707E
:100DB000FFF79EFFA906D6F804A0E1D56369002BD2
:100DC00040D0D4E90832934243D06269591C0132C1
:100DD0006261216283F800A0D4E907329A4201D30C
:100DE000A3692362E368BB42CAD01A68E26018466E
:100DF0005760C3F82090FFF763FF3568ADB215F078
:100E00002F0FC2D1002383F3118818F0800F01D077
:100E10002A0633D46B0611D5202383F31188D4E935
:100E200011239A4251D04FF6BF7308EA03036FF0C3
:100E30004002F3600023326083F31188BDE8F0477D
:100E4000FFF756BC0420FFF753FFD4E90832934262
:100E5000BBD16269002AB8D08020FFF749FF8FE735
:100E6000202383F311884FF40070FFF741FF6FF4E4
:100E700080733360002383F3118873E7202383F3A7
:100E80001188D4E911239A4226D0A26B216C581CF8
:100E90000132A263A06488421F7801D3E36BA3648C
:100EA000236B164A934209D0196821634FF0000C56
:100EB0004A601846C3F820C0FFF702FF776000239E
:100EC00083F311886B06B9D5A6E7A36B002BAAD0D4
:100ED0001020FFF70DFFA6E7A26B002AD5D008204F
:100EE000FFF706FF4FF63F7308EA030343F04003A2
:100EF000F360E4E7D0080020DC08002000090020AF
:100F0000F8B5224B1A6800211960930636D5204C9B
:100F1000E16A0A685368002B30D02569002D2DD076
:100F2000136823F01F031360136813F00103FBD150
:100F30000F7A4E68AD68A26A3D20B840012130604A
:100F4000536093609160EDB1052323701048A8476A
:100F50002378052B04BF0223237000232361202361
:100F600083F31188606930B14FF0FF3303620023CF
:100F70006361FFF7A5FE002383F31188BDE8F84005
:100F8000FFF7B6BB022325612370E8E7002001408C
:100F900038080020000000000000000000000000F1
:100FA00011F00C0F2DE9F0410446056933D0C06AF9
:100FB00003681A6822F01F021A60196811F0010113
:100FC000FBD1077A4668AD68A36A3D22BA4001208A
:100FD0003260596099609860002D3ED005232370DF
:100FE0002046A8472378052B04BF02232370002343
:100FF0002361202383F3118863693BB100214FF003
:10100000FF32616118461A62FFF75AFE002383F32C
:101010001188BDE8F081002DFBD08A0612D52B780F
:101020006E68F3B1002EF4D0D0E90212012A43D940
:101030006B88520802FB03F301EB43013346BDE822
:10104000F0411847CB06E4D56B68002BE1D0D0E91E
:101050000212BDE8F04152081847022325612370AF
:10106000C7E7C06A0268136823F01F0313601368A0
:1010700013F00103FBD1077A4568A26A3D21B9400C
:1010800001202960536093609060CEB104232370E7
:10109000D4E902122046B0472378042B10D0202335
:1010A00083F311886369002BB0D000226261184677
:1010B0001A62FFF705FEA9E73346BDE8F04118477D
:1010C0000222002322702361E9E700BF0000000034
:1010D0001B4B0268D969814230B40ED041680A6066
:1010E00002681C3300249A425160C46003D0018915
:1010F00013890B44138130BC70471846002440F814
:101100001C2F82425060CC6017D00E4C0889616A57
:10111000DD8C138989B20344481B9BB280B28342A1
:101120001381E8D96D1A2B449BB2022B2CBFCB182C
:101130008B1C9BB2636330BC7047024BDC60DAE708
:1011400048090020000800400000000000000000E6
:1011500038B5164B164993F90040164DFF20202252
:1011600018700A8335F91410B1F5006F13DB1248BB
:1011700004EB840300EB830082F31188C3680BB196
:10118000FFF7A6FF002383F311880C4B53F824309C
:1011900025F8143038BD01310BB21946E0B225F8FC
:1011A0001430BDE83840FFF7CBB800BF000800207E
:1011B000000002407C0B0020400B0020840B00202C
:1011C000F0B4254E254FB4467D6A5CF81C4F0229C9
:1011D00038BF02216445C0E90323AAB22DD0B6F876
:1011E00026C02389A2EB0C02ADB2114489B2A5EB53
:1011F0000C05A94217DB8B421AD8994205D92468FD
:10120000C91A238989B28B42F9D36368C0E90043C4
:1012100018606060018123894FF6FF72591A21819D
:10122000B284F0BC70472468C91A89B22389E4E704
:101230008C441FFA8CF27A63DFE78B18F2849BB23E
:1012400000250222C6E90700C0E9004401817B6352
:101250003D61FA60E5E700BF480900200008004052
:10126000F8B52C4B4269984214684ED02A4B9842EC
:1012700003D02A4B984243D0F8BD0126284F35466B
:101280003146284B284A19702023538383F3118851
:10129000FB6813B13846FFF71BFF38460023234A8B
:1012A000234F44F62061FFF78BFF01340023B7FB87
:1012B000F4F424B283F311881E481F4B20F8154024
:1012C0001E4A1F494FF4E76014FB003382FB030200
:1012D0001A44DB1751F82510C3EBA223194A1BB29D
:1012E0008B4232F81530B4BF013303F1FF331BB228
:1012F0003046194622F81530BDE8F840FFF720B80F
:10130000022635463146104FBBE7002635463146AA
:101310000E4FB6E76C0800209C08002084080020CF
:10132000540B00200008002000000240511100086A
:1013300040420F00940B002080B2FBFF5744419DB8
:10134000840B00207C0B0020680B0020400B002049
:1013500070B51C4B1C4A1D491D4E0446C0B21D569B
:101360001256012303FA02F2AB4092B29BB20A83F7
:101370004B83184A36F914304FF4167542F824504E
:10138000CBB1154A154B147004EB840403EB8404B1
:10139000202383F31188E36813B12046FFF798FEFA
:1013A000204600230E4A44F62061FFF709FF002380
:1013B00083F3118870BD2946FEF7C2FF26F814504A
:1013C000DFE700BFC0250008B02500080008024084
:1013D0007C0B0020840B002000080020400B002024
:1013E0005111000800000000000000000000000093
:1013F000FEE700BF00000000000000000000000049
:101400000EB42DE9F04F86B010AF4FF00008DFF8B2
:1014100088A2A04C02974C21C34600E0C346DAF8EC
:1014200000309D489B6898470BF1010BA146D846B8
:101430004C4614F8011B002900F0C4802529EDD189
:1014400099F801302D2B03BF99F8023009F10204FD
:1014500001210021302B00F0BB80202200920134BA
:10146000002607E050F8042BD2B2074614F8013BDF
:1014700002EB4506A3F13002D2B2092A3846A14652
:1014800006EB8605F2D92A2BECD02E2B4FF000026A
:101490004AD003F0DF004C2899F8004051D0A3F166
:1014A0004104A3F14400E5B2342800F21F81DFE8D3
:1014B00010F0F5001D011D011D011D01F5001D01AC
:1014C0001D011D011D011D0172011D011D011D01D7
:1014D0001D011D0165011D011D016F011D011D0182
:1014E0001D011D011D011D011D011D011D011D010C
:1014F000AE00F5001D011D011D011D01F5001D01BE
:101500001D011D011D011D0172011D011D011D0196
:1015100093001D0165011D011D016F0154F8040BAD
:10152000C0B2274600EB450219F8013BA3F1300099
:10153000C0B209283C4602EB8205F3D92A2BEDD034
:10154000A7E7002C00F0D280A4F1440309F10109BF
:10155000342B00F2CA80DFE813F0A100C800C800F5
:10156000C800C800A100C800C800C800C800C80062
:10157000DE00C800C800C800C800C8000901C800D3
:10158000C8000D01C800C800C800C800C800C800D5
:10159000C800C800C800C8005A00A100C800C800A0
:1015A000C800C800A100C800C800C800C800C80022
:1015B000DE00C800C800C8003F00C8000901C8001C
:1015C000C8000D01404606B0BDE8F04F03B07047BB
:1015D00000930134237842E757F8044B002C00F0C5
:1015E000F580237847F6FF70002A08BF0246002BDB
:1015F00000F0F380254601E0D34205D415F8010F31
:10160000EB4323440028F7D12023009308E0202354
:10161000009357F8043B8DF80C3003AC0DF10D0529
:101620002D1B6B1E761B184666D400296BD1B34662
:101630007642BBF1000F65D021782D2900F0B680ED
:10164000DAF8003000999B68504698470136F7D188
:101650006B1ED8443FF5ECAEE5189B46DAF8003037
:1016600014F8011B9A68504690472A1B002AF5DAA5
:1016700008F101020BEB0208002E3FF4D9AE34460C
:10168000DAF8003000999B6850469847013CF7D142
:10169000B044CDE6B1260008D00800203A683B1DD2
:1016A000002A1F467ADB03ACA3460BF10B05AC46C0
:1016B00000E002464E4BA3FB0230C00800EB800363
:1016C000A2EB43033033092A0CF8013DF1DCA5EB12
:1016D0000C050CEB050E0BF1FF331CF8012B03F886
:1016E000012FF445F9D15D449AE723468DF80C307B
:1016F00003AC0DF10D0593E741B9002BA8BF0E46D1
:10170000AADA95E6681E031EA6DAB5E7002BA8BF85
:101710000026A1DA8CE64FF0080E3B1D3C681F4600
:101720000DF1170300E063462246B4FBFEF40EFB06
:10173000142505F130003928C8BF05F13700C0B2C3
:10174000964503F1FF3C03F8010CECD90DF11702AB
:1017500003ACA2EB0C05A646AC4401E013F8010B68
:101760000EF8010B9C45F9D1254459E74FF00A0EBC
:101770003B1DD3E74FF0100E3B1DCFE74FF00A0E95
:101780003B46192D53F8044B88BF1F46C8D8C5E700
:101790004FF0100EF4E74FF0080EF1E72D23524200
:1017A0008DF80C300DF10D0B03AC7EE7009A302A5A
:1017B0007FF446AFDAF80000019385685046A847E9
:1017C000019B08F1010801341D4639E7094C002A44
:1017D0007FF410AF47F6FF720CE731B920220D46B7
:1017E000B3464FF0FF33009222E72023009343E7F4
:1017F000CDCCCCCCBC2600080000000000000000CE
:10180000074B99691A6810B40877106818600124AA
:1018100043601477104610BC9A61FEF739BD00BFD3
:101820004809002000000000000000000000000047
:1018300030B54FF6FF73994287B012D00C4C0D4A69
:10184000A369054601A8FFF7BBFC2846FFF7D8FFB0
:10185000049B13B101A8FFF73BFCA369186A07B00A
:1018600030BD034CFFF7CCFFA369186A07B030BD49
:1018700048090020510C0008000000000000000092
:1018800061B1084B9B6910B4186044685C60024603
:1018900023600420536010BCFFF7CABF4FF0FF3035
:1018A000704700BF48090020000000000000000051
:1018B0002DE9F04F83B004460E4615460193D0F84B
:1018C0001C804FF0200989F311880027BA46A268CE
:1018D000B346204602B36169A2684E1C013A6661B4
:1018E000A2601BF8012B0A70D4E90421914224BFA5
:1018F000E2686261B8F1000F00D0C0478AF3118836
:10190000013D07F1010711D089F31188A2685E46F5
:10191000B3462046002ADED1019900922046FFF707
:10192000AFFF009A0028D2D082F31188384603B066
:10193000BDE8F08F00000000000000000000000083
:101940003030FFF7B5BF00BF00000000000000000E
:1019500030304FF6FF73FFF7ABBF00BF0000000051
:10196000F8B504460F461646202383F3118803E09A
:10197000FFF786FF002818DBA56831462046002DBA
:10198000F6D06269A368511C013B6161A3601770C6
:10199000D4E904329A4224BFE3686361E36903B186
:1019A0009847002080F31188F8BD85F31188F8BDB1
:1019B0003030FFF7D5BF00BF00000000000000007E
:1019C00030304FF6FF72FFF7CBBF00BF00000000C2
:1019D0002DE9F04F044683B0894693461D46D0F862
:1019E0001C80202787F3118800260197B246B8F1A2
:1019F000000F05D02046C04702E0FFF741FFE0B9E5
:101A0000A76829462046002FF7D0A269A368511C79
:101A1000013BA161A360137809F8013B2369A26926
:101A20009A4224BFE368A3618AF311880136B34563
:101A300005D0019B83F31188D9E787F311883046DD
:101A400003B0BDE8F08F00BF000000000000000000
:101A50000C30FFF7BDBF00BF000000000000000019
:101A60000C304FF6FF73FFF7B3BF00BF000000005C
:101A700070B520230E46044683F31188C3692BB149
:101A8000984703E0FFF7FCFE002815DBA568314608
:101A90002046002DF6D0A169A36825694A1C013BA8
:101AA000AA42A360A26128BFE368087828BFA361A7
:101AB000002383F3118870BD85F3118870BD00BFCA
:101AC0000C30FFF7D5BF00BF000000000000000091
:101AD0000C304FF6FF71FFF7CBBF00BF00000000D6
:101AE0001A4B1B4C1A694FF0FF3100222DE9804838
:101AF00019611A61586959615A61186A60F0805019
:101B000018621A62586A59625A62196C41F080511F
:101B10001964216841F480712160196F01F44071EA
:101B2000B1F5007F87B003D04FF4803119671A6791
:101B30000748084A4368084C23F400734360074B86
:101B40000021894619600D460CE000BF00380240B4
:101B500000700040DC25000810600240380B0020B7
:101B600052F80C4CC94B256043F8395009F1010972
:101B7000B9F1100F02F10C02F2D1C54FC54CDFF8DC
:101B800078B3DFF878E3DFF87883DFF878C3C24E04
:101B9000C248C349C34A4FF0FF33BB60FB60A36038
:101BA000E360DBF83040C04F44F09F04CBF8304096
:101BB000DBF850A04AF09F0ACBF850A06FF48A6A75
:101BC000CEF80450CEF808A0CEF80C804FF6DF7A9D
:101BD0004FF4EE48CEF814A0CEF820804FF42A2A15
:101BE000DFF82483CEF824A08024CEF800804FF0C4
:101BF000553A4FF6FF78CCF80450CCF80830CCF8C2
:101C00000CA0CCF81480CCF82050CCF82450CCF8A0
:101C10000040DFF8F8C27560A44CB360C6F80CC091
:101C2000C6F8148035627562356045608360C0F81F
:101C30000CA0C0F814800562456205609C484D60A8
:101C400060268B60C1F80CA0C1F814804FF0010A27
:101C50000D624D620D6055604FF480219360D0603D
:101C6000C2F81480156255621560A2F57C4287F8AF
:101C700000A084F81263C4F880112160BA6207F1F1
:101C800018028C4E8C488D493D62C7E90622F862E5
:101C90003963C7E90155C7E903557D61FEF798FC33
:101CA0000421874A3174B26186F800A07560F5603E
:101CB000FEF716FBDBF840208248834942F004021D
:101CC000CBF84020D0F808C0804ADFF844B24CF08E
:101CD000040CC0F808C042F27F5090626FF07F039E
:101CE0004FF08040C2F82C8095615563D5605560F7
:101CF000C2F814A0C2F800A084F81E33C4F8800112
:101D000020608D60C868724ADFF808C24FF6FF0491
:101D100020400243CA60DCF80C206E486E4C42F052
:101D20008072CCF80C200268646042EA0A02026009
:101D3000202281F81F9081F8222001F1C04101F595
:101D40000C5104F11C00CBF874104FF0FF33C4E9C0
:101D5000070024606846A560C4E904444FF0000908
:101D6000C4F824804FF00008CDE90035CDE904899E
:101D70002567CDE90255FEF7A3FA6846FEF740FF56
:101D8000564B5748D4F814E0029AC4F840E003F1E7
:101D9000100CC3E904CC20F007084FF0400C04F10C
:101DA0002C009D61C4F834C0C4F868C084F8495060
:101DB000C4E9185584F84AA06564E4632267494978
:101DC000CEF81000C4E9050004F15000DFF848E146
:101DD000DFF848C120654448186021F00701C3E9D5
:101DE000025504F1540384F848A0C4E91533CEF831
:101DF0000010CCF8008085F3118862B6A3693B49D6
:101E00009961202282F311886369DFF814C1384890
:101E1000C4F880A0022104F1780204F5967EC4E99A
:101E20002C5AC4F8AC5084F896A0C4F82CC1C4F85D
:101E30004C01A4F89410C4F88C30C4F83051C4F8A4
:101E40009050C4E921E41A61A369C4F898509968D4
:101E5000626104F1A00004F19C0CC4E927C0C4F83D
:101E6000A400002900F0838084F8945023461B6866
:101E70009D68002DFBD1A3675968E1670A605A602D
:101E800085F311881B4BC4F890304BE0B80A002052
:101E9000006002400064024000080240000C024062
:101EA00000100240001C02403808002000E100E061
:101EB00050555555B408002060260008162C020025
:101EC00000000140002004E000ED00E000080040B8
:101ED0000003FA05001000E048090020980A0020DD
:101EE00000000220A70B00208103000890260008B4
:101EF000A10200083027000800380240000002401C
:101F00000551156400040240A004802A555555511E
:101F1000D0080020F0ED00E0900B00203C0B0020EA
:101F200071030008FEF7DCF9C44BCBF874302022B3
:101F300082F311889BF80830012B0BD1C048C14BAC
:101F4000416C41F010014164C02183F82513C3F8AE
:101F500084215A60DBF87420B84B9A4209D003F50B
:101F600080639A4205D04FF4D073936004E01977F0
:101F7000FEE740F24133936040231361012142F2B6
:101F80002C1000235161D060136002201468526845
:101F90008BF8080083F311880420AB4AB2613170DA
:101FA0007360F3603074202282F31188A74832787E
:101FB00044688A42C6E9010400F0BC81B26913603A
:101FC00053639363D36313645362C2687369016894
:101FD000B3FBF1F102F00F02B369D0F82CC0013C61
:101FE0000139012A9962DC62C3F804C002D0022AD6
:101FF00002D1154645F00105426902F00F02012A9F
:1020000003D0022A03D145F0200545F01005C2692E
:1020100002F00F02012A03D0022A03D145F4007511
:1020200045F48075426A02F00F02012A03D0022AA9
:1020300003D145F4005545F48055026B1D62002420
:1020400022F0FF0201254FF4004085214FF00208E5
:102050005D611C61DA6058641960F46086F8008084
:1020600084F31188FEF7B4FA202585F31188DFF890
:10207000FCA1774BCAF804305046FEF709FA8AF8FB
:10208000008084F3118885F31188DFF8E491714BA7
:10209000C9F804304846FEF7FBF989F8008084F35C
:1020A000118885F311886C4E6C4B73603046FEF7D7
:1020B000EFF986F8008084F311885046FEF700FBA4
:1020C0004846FEF7FDFA3046FEF7FAFA03220621EB
:1020D0006348FEF79DFA032206216248FEF798FA4C
:1020E00085F311883B787C60012B00F0CB804FF0AA
:1020F000020887F80080002686F311885A4A536840
:1021000043F400035360202484F311885748FEF7FA
:102110009FF986F3118884F311885548FEF798F9E2
:1021200086F3118884F311884B48FEF791F986F302
:1021300011884B4D40F2823228464FF40041FEF7A1
:1021400067FA40F2823208214648FEF761FA01221E
:102150004FF480614748FEF75BFA01224FF480514B
:102160004448FEF755FA284682224FF48071FEF764
:102170004FFA01224FF480713E48FEF749FA0122DE
:102180004FF400713B48FEF743FA284682224FF491
:102190000071FEF73DFA214601223648FEF738FA73
:1021A000012240213348FEF733FA284682224FF4B9
:1021B0008061FEF72DFA82220121FEF729FA4146BD
:1021C0004FF48172FEF724FA4FF4817210212548F2
:1021D000FEF71EFA284603224021FEF719FA0322D1
:1021E0008021FEF715FA21460122FEF711FA01229D
:1021F00040211C48FEF70CFA012280211D48FEF701
:1022000007FA1D491D48FFF7FBF81D4B6C8330464C
:10221000DE601E625E63FFF79BF80120FFF798F80F
:102220004046FFF795F884F3118864210820FFF7F2
:10223000FFFA002383F31188F5E700BF0010014087
:102240000038024000E100E00000014004080020E6
:10225000D0260008F0260008840800201027000877
:102260000000024000040240002301406C080020EE
:102270009C08002000080240B0260008D00800207A
:10228000400B0020FA6A434D517A28688B40034284
:102290003AD1414E034306EBC10440482B6013F092
:1022A000FF0F676046F8310004D03D48016B41F4F0
:1022B0000011016313F47F4F65D11368196821F091
:1022C0001F011960196811F00101FBD1147A5568DA
:1022D0003D20A0402124286019605C61917A4B095F
:1022E0009B0001F1604403F1604303F5614304F591
:1022F000614401F01F01012000FA01F1602584F81A
:102300000053C3F88011196013682549254A9A6063
:102310004B6C2548BA6A43F480734B64436803F4FA
:102320004003002143F480330124436051609160F5
:102330009460DCE61A491D4AD1F844C0D6F818E08A
:102340004CF0010CC1F844C0D1F824C04CF0010C91
:10235000C1F824C04B6270234FF0007182F819332A
:10236000C2F8801111604FF0006182F81B33C2F88F
:10237000801146F6680311600D4ACEF8183072617C
:10238000CEF81C3021E606490B6B43F480030B6347
:1023900093E700BF380B0020B80A0020A10F000807
:1023A000003802404C2001400023014000E100E0E1
:1023B00000D8B80500000000000000000000000088
:1023C000274B284A4FF080504FF440411864116069
:1023D0001A6842F001021A601A689007FCD59968E1
:1023E0001F4A21F00301996099689960916811F082
:1023F0000C01FBD110681A4B00F0F90010609160DD
:10240000516F41F0010151675A6F9107FCD5164A8F
:102410005A601A68134942F080721A604B685A0475
:10242000FCD50F4A13689B01FCD5104B10499160F5
:1024300040F203711960916841F00201A3F58063D5
:1024400091609A6802F00C02082AFAD15A6C42F4A0
:1024500080425A645A6E42F480425A66704700BF06
:10246000003802400070004010600108003C02404B
:10247000001088380000000000000000000000008C
:1024800038B5202383F311880D4B9C69636A206261
:1024900004F12405AB4207D01A6862621846FEF7C1
:1024A0000FFC636AAB42F7D1637F9B0703D1D4E98A
:1024B000043213615A610F20BDE83840FFF7A0B91C
:1024C000480900200000000000000000000000009B
:1024D0000D4908688A69036830B495680B605960D3
:1024E0000124886100210477117700E01B68996856
:1024F0008D42FBD35C681146C2E9003422605A6009
:1025000030BCFDF7C5BE00BF480900200000000038
:10251000F0B4144F144D1548154B164907F1700CC3
:102520000026984211D904391A4651F8044F42F84E
:10253000044B9042F9D8421ED21A22F00302043210
:1025400013449D4203D943F8046B9D42FBD8674571
:1025500005D0D7E90413D7E906051037E1E7F0BC49
:10256000704700BF402700089C0B00209C0B0020F8
:102570009C0B00201828000800000000000000004C
:10258000FEE700BF000000000000000000000000A7
:10259000704700BF000000000000000000000000C5
:1025A000704700BF000000000000000000000000B5
:1025B0000C09050000000000000000000000000001
:1025C0000A080600000000000000000000000000F3
:1025D000106002400860024000000B0028600240CA
:1025E0000860024006010C004060024008600240A2
:1025F00010020D00586002400860024016030E00F1
:10260000706002400C60024000040F0088600240CD
:102610000C60024006051000A06002400C60024001
:1026200010061100B86002400C60024016072F002F
:102630001064024008640240000838002864024028
:102640000864024006093900406402400864024000
:10265000100A3A005864024008640240160B3B001E
:10266000706402400C640240000C3C00886402402C
:102670000C640240060D4400A06402400C64024059
:10268000100E4500B86402400C640240160F46006C
:102690006D61696E00168118040244080C1014184C
:1026A000001C1D1E000000000000000000000000D3
:1026B0004C6F6164656421200D0A0000286E756C02
:1026C0006C29000000000000000000000000000075
:1026D0000000000040420F006112000800000000EE
:1026E00000000000000000000000000000000000EA
:1026F0000000000040420F000000000061120008CE
:1027000000000000010000000000000000000000C8
:102710000000000040420F000000000061120008AD
:1027200000000000000000000000000000000000A9
:1027300069646C65000000000000000000000000FB
:10274000182800089C0B00209C0B00209C0B0020EC
:102750001828000800000000000000000000000031
:102760001828000800000000000000000000000021
:102770001828000800000000000000000000000011
:102780001828000800000000000000000000000001
:1027900018280008000000000000000000000000F1
:1027A00018280008000000000000000000000000E1
:1027B00018280008000000000000000000000000D1
:1027C00051190008611A0008C1190008D11A00083F
:1027D000B1190008C11A000841190008511A00086F
:1027E000FF000000006CDC02000800000000000098
:1027F00001000000000000000100000000000000D7
:1028000001000000000000000000000000000000C7
:082810000000000000000000C0
:04000005080001C12D
:00000001FF
